:100000000C9462000C948A000C948A000C948A0070
:100010000C948A000C948A000C948A000C948A0038
:100020000C948A000C948A000C948A000C948A0028
:100030000C948A000C948A000C948A000C948A0018
:100040000C94C8060C948A000C945C030C94AA03CC
:100050000C948A000C948A000C948A000C948A00F8
:100060000C948A000C948A000000000024002700F1
:100070002A0000000000250028002B0000000000DE
:1000800023002600290004040404040404040202DA
:100090000202020203030303030301020408102007
:1000A0004080010204081020010204081020000012
:1000B0000007000201000003040600000000000029
:1000C0000000160511241FBECFEFD8E0DEBFCDBF64
:1000D00011E0A0E0B1E0E2E1F1E102C005900D9293
:1000E000A63CB107D9F712E0A6ECB1E001C01D9221
:1000F000A83FB107E1F710E0C4ECD0E004C02297BC
:10010000FE010E948308C23CD107C9F70E946C051A
:100110000C9487080C9400001F93CF93DF93182F43
:10012000EB0160387105C8F48AE060E00E940D08B8
:10013000812F90E0805C9F4F8EBD0DB407FEFDCFF8
:100140008EB5CF77D070CEBD0DB407FEFDCF8EB586
:100150001EBC0DB407FEFDCF2FC0CB0180589040D0
:1001600080589F4710F010E02CC08AE060E00E94A9
:100170000D08812F90E0805C9F4F8EBD0DB407FE6F
:10018000FDCF8EB5CE018F77907080589F4F8EBD7A
:100190000DB407FEFDCF8EB5C078DF77CC0FCD2F25
:1001A000CC1FDD0BD195CEBD0DB407FEFDCF8EB5B6
:1001B0001EBC0DB407FEFDCF1EB58AE061E00E94B3
:1001C0000D08812FDF91CF911F910895EF92FF923B
:1001D0000F931F93082F83E0602F70E00E948C0024
:1001E000E82EFF2410E00F5F1F4F83E0B8010E944C
:1001F0008C00382F20E02E0D3F1DC9011F910F915B
:10020000FF90EF9008950F931F93CF93DF93182FD4
:10021000EB01042F60387105C8F48AE060E00E94A9
:100220000D08812F90E080549F4F8EBD0DB407FEC6
:10023000FDCF8EB5CF77D070CEBD0DB407FEFDCF0C
:100240008EB50EBD0DB407FEFDCF2DC0CB0180587D
:10025000904080589F4760F58AE060E00E940D085A
:10026000812F90E080549F4F8EBD0DB407FEFDCFCF
:100270008EB5CE018F77907080589F4F8EBD0DB494
:1002800007FEFDCF8EB5C078DF77CC0FCD2FCC1F0A
:10029000DD0BD195CEBD0DB407FEFDCF8EB50EBDE5
:1002A0000DB407FEFDCF8EB58AE061E00E940D0817
:1002B000DF91CF911F910F91089586E360E070E088
:1002C00041E00E9403018DE267E070E040E80E9497
:1002D000030188EC90E00E945C0786E360E070E038
:1002E00040E00E9403010895EF92FF920F931F9345
:1002F000CF93DF937C018DE060E070E040E40E94EA
:1003000003018DE061E070E00E948C00482F4E7F79
:100310004F5F8DE061E070E00E9403018FE061E0DB
:1003200070E00E948C00182F8FE062E070E00E9465
:100330008C0015FF05C08DEC92E060E071E00DC00F
:1003400014FF05C08DEC92E062E171E006C084FF0D
:10035000E5CF8DEC92E063E371E00E94B5068DE09D
:1003600060E070E040E40E94030180E160E070E042
:100370000E948C008F77C0E0D0E0082F10E009C009
:1003800081E1BE010E948C00F701EC0FFD1F80830C
:100390002196C017D107A4F385E160E070E00E94C8
:1003A0008C0085E161E070E00E948C0085E162E0F4
:1003B00070E00E948C00DF91CF911F910F91FF9010
:1003C000EF900895EF92FF920F931F93CF93DF93D7
:1003D0007C018B018DE060E070E040E40E9403014D
:1003E000C0E0D0E009C0F701EC0FFD1F89E0BE01BD
:1003F00040810E9403012196C017D107A4F3402F2A
:100400004E5F88E060E070E00E9403018DE060E0F4
:1004100070E042E00E9403018FE060E070E00E9423
:100420008C0087FF05C08DEC92E06BE471E00BC09F
:100430008FE063E070E00E948C0084FFEDCF8DECD4
:1004400092E069E571E00E94B5068FE060E070E03F
:100450004EEF0E9403018DE060E070E040E40E94F6
:100460000301DF91CF911F910F91FF90EF900895BD
:10047000EF92FF920F931F93082F7B01AB015070F7
:1004800083E0602F70E00E94030110E00F5F1F4FB8
:1004900083E0B8014F2D0E9403011F910F91FF903F
:1004A000EF900895CF92DF92EF92FF920F931F93F8
:1004B00080E063E070E00E948C00E82E80E062E063
:1004C00070E00E948C00F82E80E061E070E00E94F5
:1004D0008C00D82E80E060E070E00E948C00C82E76
:1004E0000DEC12E0C80160E871E00E94B2067E2DBA
:1004F00060E06F0D711DC80140E150E00E9454069C
:10050000C80169E871E00E94B206C8016D2D40E1A2
:1005100050E00E948206C8016CE771E00E94B206BA
:10052000C8016C2D40E150E00E9494061F910F918C
:10053000FF90EF90DF90CF900895CF93DF9386ECFC
:1005400091E00E9474018DEC92E060E971E00E94FC
:10055000B206C6ECD1E08DEC92E0699140E150E04A
:100560000E94820681E0CD3CD807A9F78DEC92E08D
:1005700060EA71E00E94B506FE01339780818F5FCB
:10058000808368EE73E080E090E00E943607CE0141
:10059000079767E070E00E94E2018DEC92E062EA6A
:1005A00071E00E94B506DF91CF9108950F931F93DC
:1005B0000DEC12E0C80140E855E260E070E00E94F6
:1005C000E5038CE060E00E94A1078BE061E00E94FF
:1005D000A1078DE061E00E94A1078AE061E00E942E
:1005E000A1078AE061E00E940D0880E00E942E03CE
:1005F00085E00E94330381E00E9425030E944403AA
:100600000E945D0180E06BE070E00E94380282E0B1
:100610006AEC7EED0E9438020E945202C80164EA30
:1006200071E00E94B20682E00E94E600BC01C801AF
:1006300040E150E00E9465068DE060E070E040E43B
:100640000E9403011F910F910895882319F48CB51E
:10065000806202C08CB58F7D8CBD08959CB5937F60
:10066000982B9CBD08952CB5382F33702C7F322BDE
:100670003CBD2DB590E095958795959587958170B2
:100680002E7F822B8DBD08958AE061E00E940D08C7
:100690008AE061E00E94A1078CB580618CBD8CB5B9
:1006A00080648CBD8DE061E00E94A1078BE061E079
:1006B0000E94A107089508951F920F920FB60F92FE
:1006C00011242F933F934F938F939F93EF93FF9317
:1006D0008091C00082FD1DC04091C600209185021E
:1006E000309186022F5F3F4F2F73307080918702C9
:1006F000909188022817390771F0E0918502F091F6
:100700008602EB5BFD4F4083309386022093850287
:1007100002C08091C600FF91EF919F918F914F9100
:100720003F912F910F900FBE0F901F901895E09161
:10073000D902F091DA02E05CFF4F81919191208122
:100740003181821B930B8F739070892B11F00E9463
:100750005B0308951F920F920FB60F9211242F93EF
:100760003F938F939F93EF93FF932091C902309112
:10077000CA028091CB029091CC022817390731F43C
:100780008091C1008F7D8093C10014C0E091CB02A5
:10079000F091CC02E757FD4F20818091CB029091E0
:1007A000CC0201968F7390709093CC028093CB0211
:1007B0002093C600FF91EF919F918F913F912F91D0
:1007C0000F900FBE0F901F901895AF92BF92DF92BF
:1007D000EF92FF920F931F93CF93DF93EC017A0177
:1007E0008B01DD24403081EE580780E0680780E00F
:1007F000780711F0DD24D39491E0A92EB12CEC8977
:10080000FD89DD2069F0C50108A002C0880F991F8D
:100810000A94E2F7808360E079E08DE390E005C020
:10082000108260E874E88EE190E0A80197010E94D0
:100830005F082150304040405040569547953795CD
:10084000279580E12030380720F0DD2011F0DD24ED
:10085000D6CFE889F9893083EA89FB89208319A2F8
:10086000EE89FF89408121E030E0C9010C8C02C093
:10087000880F991F0A94E2F7482B4083EE89FF897D
:100880004081C9010D8C02C0880F991F0A94E2F7BC
:10089000482B4083EE89FF894081C9010E8C02C03C
:1008A000880F991F0A94E2F7482B4083EE89FF894D
:1008B00080810F8C02C0220F331F0A94E2F720952B
:1008C00028232083DF91CF911F910F91FF90EF900C
:1008D000DF90BF90AF900895DC011C96ED91FC91E4
:1008E0001D97E05CFF4F2191319180819181281B00
:1008F000390B2F733070C9010895DC011C96ED91FE
:10090000FC911D97E05CFF4F20813181E054F04065
:10091000DF01AE5BBF4F8D919C911197281739076E
:1009200019F42FEF3FEF07C08D919C91E80FF91F4D
:100930008081282F30E0C9010895DC011C96ED91DB
:10094000FC911D97E05CFF4F20813181E054F04025
:10095000DF01AE5BBF4F8D919C911197281739072E
:1009600019F42FEF3FEF10C08D919C911197E80F74
:10097000F91F20818D919C91119701968F73907032
:1009800011969C938E9330E0C9010895DC019196F5
:100990008C919197882339F05496ED91FC9155975D
:1009A000808186FFF9CF91961C920895CF93DF93B3
:1009B000EC01EE85FF85E05CFF4F20813181E05442
:1009C000F0402F5F3F4F2F733070DF01AE5BBF4FA2
:1009D0008D919C91119728173907D1F3E05CFF4F57
:1009E00080819181E054F040E80FF91F6083EE852B
:1009F000FF85E05CFF4F31832083EE89FF892081F2
:100A000081E090E00F8C02C0880F991F0A94E2F7F2
:100A1000282B208381E089A3EC89FD898081806473
:100A2000808381E090E0DF91CF9108951092D00211
:100A30001092CF0288EE93E0A0E0B0E08093D10264
:100A40009093D202A093D302B093D40289EB91E0A9
:100A50009093CE028093CD0285E492E09093DA02E7
:100A60008093D90289E892E09093DC028093DB02C4
:100A700085EC90E09093DE028093DD0284EC90E0C0
:100A80009093E0028093DF0280EC90E09093E2028A
:100A90008093E10281EC90E09093E4028093E30282
:100AA00082EC90E09093E6028093E50286EC90E081
:100AB0009093E8028093E70284E08093E90283E068
:100AC0008093EA0287E08093EB0285E08093EC025A
:100AD00081E08093ED020895CF93DF930E94660733
:100AE0000E94D602C7E9D3E00E949D022097E1F35D
:100AF0000E949703F9CFCF92DF92EF92FF920F936C
:100B00001F93CF93DF937C016B018A01C0E0D0E09B
:100B10000FC0D6016D916D01D701ED91FC9101904F
:100B2000F081E02DC7010995C80FD91F0150104071
:100B30000115110571F7CE01DF91CF911F910F9132
:100B4000FF90EF90DF90CF900895EF92FF920F9378
:100B50001F938C01DC01ED91FC910190F081E02D5F
:100B60006DE009957C01D801ED91FC910190F08137
:100B7000E02DC8016AE009959C012E0D3F1DC901B9
:100B80001F910F91FF90EF900895CF93DF93EC01A9
:100B90006115710519F420E030E00FC0DB010D9004
:100BA0000020E9F71197A61BB70BE881F9810280B5
:100BB000F381E02DAD0109959C01C901DF91CF9131
:100BC00008954F925F927F928F929F92AF92BF92C1
:100BD000CF92DF92EF92FF920F931F93DF93CF9309
:100BE000CDB7DEB7A1970FB6F894DEBF0FBECDBF6D
:100BF0002C01742ECB01223008F42AE019A231E234
:100C0000C32ED12CCC0EDD1E822E9924AA24BB2407
:100C1000672D752FA50194010E945F0879018A0153
:100C2000C801B701A50194010E944008472D461B49
:100C30000894C108D1084A3014F4405D01C0495CF1
:100C4000F6014083E114F1040105110521F07E2C29
:100C50005F2DC801DDCFC201B6010E94C505A19676
:100C60000FB6F894DEBF0FBECDBFCF91DF911F91BD
:100C70000F91FF90EF90DF90CF90BF90AF909F903B
:100C80008F907F905F904F900895DC012115310582
:100C900041F4ED91FC910190F081E02D642F0995D4
:100CA00008950E94E1050895EF92FF920F931F931C
:100CB0009A017B0100E010E0B801A7010E944506FF
:100CC0001F910F91FF90EF900895CF92DF92EF92D6
:100CD000FF920F931F936C017B019A0100E010E0DB
:100CE000B801A7010E9445068C01C6010E94A50516
:100CF000080F191FC8011F910F91FF90EF90DF900F
:100D0000CF900895EF92FF920F931F939A01E62ED2
:100D1000FF2400E010E0B801A7010E9445061F91E2
:100D20000F91FF90EF900895CF92DF92EF92FF9294
:100D30000F931F936C01E62E9A01FF2400E010E050
:100D4000B801A7010E9445068C01C6010E94A505B5
:100D5000080F191FC8011F910F91FF90EF90DF90AE
:100D6000CF9008950E94C5050895EF92FF920F93CA
:100D70001F937C010E94C5058C01C7010E94A50537
:100D8000080F191FC8011F910F91FF90EF90089550
:100D90001F920F920FB60F9211242F933F938F93B0
:100DA0009F93AF93BF938091F3029091F402A0912F
:100DB000F502B091F6023091F7020196A11DB11D26
:100DC000232F2D5F2D3720F02D570196A11DB11D2A
:100DD0002093F7028093F3029093F402A093F5021C
:100DE000B093F6028091EF029091F002A091F1028F
:100DF000B091F2020196A11DB11D8093EF02909374
:100E0000F002A093F102B093F202BF91AF919F91D3
:100E10008F913F912F910F900FBE0F901F901895BB
:100E20009FB7F8942091EF023091F0024091F102C7
:100E30005091F20286B5A89B06C08F3F21F02F5F2C
:100E40003F4F4F4F5F4F9FBF542F432F322F2227CB
:100E5000280F311D411D511D82E0220F331F441FF9
:100E6000551F8A95D1F7B901CA010895EF92FF92F3
:100E70000F931F93CF93DF937B018C010E94100788
:100E8000EB010EC00E9410076C1B7D0B685E734067
:100E9000C8F30894E108F10801091109C851DC4FB1
:100EA000E114F1040105110569F7DF91CF911F915C
:100EB0000F91FF90EF900895019739F0880F991FD7
:100EC000880F991F02970197F1F70895789484B5D8
:100ED000826084BD84B5816084BD85B5826085BD36
:100EE00085B5816085BDEEE6F0E08081816080831C
:100EF000E1E8F0E0108280818260808380818160FF
:100F00008083E0E8F0E0808181608083E1EBF0E0C5
:100F1000808184608083E0EBF0E080818160808369
:100F2000EAE7F0E080818460808380818260808352
:100F30008081816080838081806880831092C1007D
:100F40000895CF93DF93482F50E0CA0186569F4FF4
:100F5000FC0134914A575F4FFA018491882369F16B
:100F600090E0880F991FFC01E859FF4FA591B491BB
:100F7000FC01EE58FF4FC591D491662351F42FB771
:100F8000F8948C91932F909589238C938881892351
:100F90000BC0623061F42FB7F8948C91932F909529
:100FA00089238C938881832B88832FBF06C09FB7AA
:100FB000F8948C91832B8C939FBFDF91CF910895F0
:100FC000833071F0843028F48130A1F0823021F533
:100FD00014C08630B1F08730D1F08430E9F404C019
:100FE000809180008F7703C0809180008F7D8093F7
:100FF0008000089584B58F7702C084B58F7D84BD4D
:1010000008958091B0008F778093B000089580910B
:10101000B0008F7D8093B0000895FF920F931F93CF
:10102000F62E482F50E0CA0182559F4FFC012491B3
:10103000CA0186569F4FFC0114914A575F4FFA012F
:1010400004910023C9F0222319F0822F0E94E007A7
:10105000E02FF0E0EE0FFF1FEE58FF4FA591B49187
:101060009FB7F894FF2021F48C911095812302C042
:101070008C91812B8C939FBF1F910F91FF900895AE
:10108000629FD001739FF001829FE00DF11D649F6C
:10109000E00DF11D929FF00D839FF00D749FF00DF8
:1010A000659FF00D9927729FB00DE11DF91F639F99
:1010B000B00DE11DF91FBD01CF0111240895A1E27A
:1010C0001A2EAA1BBB1BFD010DC0AA1FBB1FEE1FC2
:1010D000FF1FA217B307E407F50720F0A21BB30B0D
:1010E000E40BF50B661F771F881F991F1A9469F789
:1010F00060957095809590959B01AC01BD01CF01E5
:101100000895EE0FFF1F0590F491E02D0994F894D7
:02111000FFCF0F
:10111200446174612072656365697665643A204F43
:101122004B004572726F723A20526563656976654B
:101132007220504859206865616465722045727258
:101142006F72004572726F723A20526563656976FA
:101152006572204F76657272756E0044617461200B
:1011620073656E743A204F4B004572726F723A206B
:101172005472616E736D6974204275666665722081
:101182004572726F72004555493A20002E000A00DE
:101192004465766963653A2000205665722E200008
:1011A2004461746F20726563696269646F3A2000FA
:1011B20020000A0053686F72742041646472657380
:1011C20073202D200000000000D6047B056C049DD6
:0611D200047D04C60400C8
:00000001FF
