:100000000C9403010C9430010C9430010C943001D9
:100010000C9430010C9430010C9430010C9430019C
:100020000C9430010C9430010C9430010C9430018C
:100030000C9430010C9430010C9430010C9430017C
:100040000C9430010C9430010C9430010C9430016C
:100050000C9430010C9430010C9430010C94D309B1
:100060000C9430010C9489030C94D5040C94300149
:100070000C9430010C9430010C9430010C9430013C
:100080000C9430010C9430010C9430010C9430012C
:100090000C94C9030C9414050C9430010C94300199
:1000A0000C9430010C9430010C9430010C9430010C
:1000B0000C9430010C9430010C9430010C943001FC
:1000C0000C9430010C9430010C9430010C94090410
:1000D0000C9453050C9430010C9449040C94920533
:1000E0000C94300100002100240027002A002D007C
:1000F0003000330001010000040107010A01000083
:100100002200250028002B002E00310034000201BF
:100110000000050108010B0100002000230026005B
:1001200029002C002F00320000010000030106010D
:10013000090105050505070508080808020202026D
:100140000A0A080804040404010101010101010173
:100150000303030303030303040707070C0C0C0C3E
:100160000C0C0C0C02020202060606060606060627
:100170000B0B0B0B0B0B0B0B0102102020080810B4
:100180002040102040800201020108040201010207
:1001900004081020408080402010080402018004E0
:1001A000020180402010080402010804020101023B
:1001B0000408102040800102040810204080000044
:1001C000090A02080B0C0D070603040100000000D9
:1001D000000000000000000000000000000000001F
:1001E0000000000000000000000011100F000000DF
:1001F00000000000000000000000000000000000FF
:1002000000000000050711241FBECFEFD1E2DEBFC2
:10021000CDBF00E00CBF12E0A0E0B2E0ECE7F7E1F8
:1002200000E00BBF02C007900D92AC37B107D9F7C1
:100230001BBE15E0ACE7B2E001C01D92AE3AB107BB
:10024000E1F712E0C6E0D2E004C02297FE010E946E
:10025000B80BC430D107C9F70E943B080C94BC0B03
:100260000C9400000F931F93CF93DF938C01EB014D
:1002700060387105E8F1CB018058904080589F4765
:1002800038F010E0812FDF91CF911F910F910895E9
:1002900085E360E00E943F0B005C1F4F0EBD0DB474
:1002A00007FEFDCF8EB5CE018F77907080589F4F9F
:1002B0008EBD0DB407FEFDCF8EB5C078DF77CC0FB5
:1002C000CD2FCC1FDD0BD195CEBD0DB407FEFDCFDC
:1002D0008EB51EBC0DB407FEFDCF1EB585E361E0F3
:1002E0000E943F0B812FDF91CF911F910F910895B5
:1002F00085E360E00E943F0B005C1F4F0EBD0DB414
:1003000007FEFDCF8EB5CF77D070CEBD0DB407FE02
:10031000FDCF8EB51EBC0DB407FEFDCF1EB585E327
:1003200061E00E943F0BDECFEF92FF920F931F938D
:10033000082F83E090E0602F70E00E943201E82EE9
:10034000FF2410E00F5F1F4F83E090E0B8010E9490
:100350003201382F20E02E0D3F1DC9011F910F9152
:10036000FF90EF900895FF920F931F93CF93DF9329
:100370008C01EB01F42E60387105E0F1CB0180585F
:10038000904080589F4730F0DF91CF911F910F919F
:10039000FF90089585E360E00E943F0B00541F4FDB
:1003A0000EBD0DB407FEFDCF8EB5CE018F779070D8
:1003B00080589F4F8EBD0DB407FEFDCF8EB5C0781F
:1003C000DF77CC0FCD2FCC1FDD0BD195CEBD0DB47B
:1003D00007FEFDCF8EB5FEBC0DB407FEFDCF8EB57A
:1003E00085E361E00E943F0BDF91CF911F910F9158
:1003F000FF90089585E360E00E943F0B00541F4F7B
:100400000EBD0DB407FEFDCF8EB5CF77D070CEBD3B
:100410000DB407FEFDCF8EB5FEBC0DB407FEFDCFBB
:100420008EB585E361E00E943F0BDECFEF92FF9235
:100430000F931F93CF93DF937C018DE090E061E0F9
:1004400070E00E943201482F4F5F8DE090E061E044
:1004500070E050E00E94B3018FE090E061E070E056
:100460000E94320185FF38C08DE090E060E070E0CE
:100470000E943201482F4F7B405C8DE090E060E0AD
:1004800070E050E00E94B30180E190E060E070E035
:100490000E9432018F77082F10E00115110579F0C5
:1004A000C0E0D0E081E190E0BE010E943201F7019E
:1004B000EC0FFD1F80832196C017D1079CF38DE1BF
:1004C00095E062E172E00E94AD09DF91CF911F914A
:1004D0000F91FF90EF90089584FFBECF8DE195E0DE
:1004E00060E072E00E94AD09BFCF0F931F93082F09
:1004F000462F83E090E0602F70E050E00E94B3014F
:1005000010E00F5F1F4F83E090E0B80140E050E043
:100510000E94B3011F910F910895CF92DF92EF9245
:10052000FF920F931F9380E090E063E070E00E94E1
:100530003201E82E80E090E062E070E00E9432013B
:10054000F82E80E090E061E070E00E943201D82E49
:1005500080E090E060E070E00E943201C82E0DE182
:1005600015E0C8016AE372E00E948E097E2D60E00A
:100570006F0D711DC80140E150E00E943009C801B3
:1005800063E472E00E948E09C8016D2D40E150E0E5
:100590000E945E09C80168E372E00E948E09C801EA
:1005A0006C2D40E150E00E9470091F910F91FF9067
:1005B000EF90DF90CF9008958EE792E00E941602B0
:1005C0008DE195E06AE472E00E948E0910927D024E
:1005D00010927C02E0E0F0E0E258FD4F8DE195E002
:1005E000608140E150E00E945E09E0917C02F09160
:1005F0007D023196F0937D02E0937C02E730F105B5
:100600005CF3809182028F5F8093820208950F9342
:100610001F930DE115E0C80140E855E260E070E08D
:100620000E94D10582E360E00E947D0A83E361E0DD
:100630000E947D0A84E361E00E947D0A85E361E017
:100640000E947D0A85E361E00E943F0B80E00E94EA
:100650005B0385E00E94600381E00E9451030E94D9
:1006600071038DE290E067E070E040E850E00E94A6
:10067000B30180E06BE070E00E9475020E948D0281
:10068000C8016AE572E00E948E0980E00E94940130
:10069000BC01C80140E150E00E9441091F910F9147
:1006A0000895882321F08CB58F7D8CBD08958CB57D
:1006B00080628CBD08959CB5937F982B9CBD089556
:1006C0002CB5382F33702C7F322B3CBD2DB590E0EC
:1006D000959587959595879581702E7F822B8DBDF9
:1006E000089585E361E00E943F0B85E361E00E948D
:1006F0007D0A8CB580618CBD8CB580648CBD84E333
:1007000061E00E947D0A83E361E00E947D0A089512
:1007100008951F920F920FB60F920BB60F921124ED
:100720002F933F934F938F939F93EF93FF938091DA
:10073000C00082FD2AC04091C60020913D03309147
:100740003E032F5F3F4F2F73307080913F03909196
:1007500040032817390759F0E0913D03F0913E031B
:10076000E350FD4F408330933E0320933D03FF91C0
:10077000EF919F918F914F913F912F910F900BBED1
:100780000F900FBE0F901F9018958091C600EFCF6D
:1007900008951F920F920FB60F920BB60F9211246D
:1007A0002F933F934F938F939F93EF93FF9380915A
:1007B000C80082FD2AC04091CE002091C50330912F
:1007C000C6032F5F3F4F2F7330708091C703909106
:1007D000C8032817390759F0E091C503F091C60303
:1007E000EB57FC4F40833093C6032093C503FF9122
:1007F000EF919F918F914F913F912F910F900BBE51
:100800000F900FBE0F901F9018958091CE00EFCFE4
:1008100008951F920F920FB60F920BB60F921124EC
:100820002F933F934F938F939F93EF93FF938091D9
:10083000D00082FD2AC04091D60020914D04309115
:100840004E042F5F3F4F2F73307080914F04909173
:1008500050042817390759F0E0914D04F0914E04E7
:10086000E35FFB4F408330934E0420934D04FF9190
:10087000EF919F918F914F913F912F910F900BBED0
:100880000F900FBE0F901F9018958091D600EFCF5C
:1008900008951F920F920FB60F920BB60F9211246C
:1008A0002F933F934F938F939F93EF93FF93809159
:1008B000300182FD2AC0409136012091D50430914B
:1008C000D6042F5F3F4F2F7330708091D7049091E3
:1008D000D8042817390759F0E091D504F091D604CF
:1008E000EB56FB4F40833093D6042093D504FF9101
:1008F000EF919F918F914F913F912F910F900BBE50
:100900000F900FBE0F901F90189580913601EFCF7A
:10091000E0912905F0912A05E05CFF4F81919191CA
:1009200020813181821B930B8F739070892BD1F5BD
:10093000E0914B05F0914C05E05CFF4F8191919166
:1009400020813181821B930B8F739070892B39F535
:10095000E0916D05F0916E05E05CFF4F8191919102
:1009600020813181821B930B8F739070892BA1F4AE
:10097000E0918F05F0919005E05CFF4F819191919E
:1009800020813181821B930B8F739070892B09F426
:1009900008950E94480408950E940804E9CF0E9427
:1009A000C803D6CF0E948803C3CF1F920F920FB601
:1009B0000F920BB60F9211242F933F938F939F9317
:1009C000EF93FF9320918103309182038091830301
:1009D000909184032817390709F1E0918303F0917E
:1009E0008403EF5BFC4F208180918303909184030B
:1009F00001968F7390709093840380938303209368
:100A0000C600FF91EF919F918F913F912F910F9091
:100A10000BBE0F900FBE0F901F9018958091C100D4
:100A20008F7D8093C100EDCF1F920F920FB60F9272
:100A30000BB60F9211242F933F938F939F93EF93B5
:100A4000FF932091090430910A0480910B04909146
:100A50000C042817390709F1E0910B04F0910C04FC
:100A6000E753FC4F208180910B0490910C04019678
:100A70008F73907090930C0480930B042093CE009E
:100A8000FF91EF919F918F913F912F910F900BBE0E
:100A90000F900FBE0F901F9018958091C9008F7D09
:100AA0008093C900EDCF1F920F920FB60F920BB635
:100AB0000F9211242F933F938F939F93EF93FF9364
:100AC0002091910430919204809193049091940428
:100AD0002817390709F1E0919304F0919404EF5A33
:100AE000FB4F2081809193049091940401968F7321
:100AF000907090939404809393042093D600FF9178
:100B0000EF919F918F913F912F910F900BBE0F907E
:100B10000FBE0F901F9018958091D1008F7D80930C
:100B2000D100EDCF1F920F920FB60F920BB60F921E
:100B300011242F933F938F939F93EF93FF932091D3
:100B4000190530911A0580911B0590911C052817F5
:100B5000390709F1E0911B05F0911C05E752FB4FA5
:100B6000208180911B0590911C0501968F739070D8
:100B700090931C0580931B0520933601FF91EF9104
:100B80009F918F913F912F910F900BBE0F900FBEB1
:100B90000F901F901895809131018F7D80933101C6
:100BA000EDCFDF92EF92FF920F931F93CF93DF93DE
:100BB000EC017A018B01DD24403081EE580780E0A2
:100BC000680780E0780721F1DD24D394EC89FD8962
:100BD00081E090E008A002C0880F991F0A94E2F714
:100BE000808360E079E08DE390E0A80197010E94A6
:100BF000940B2150304040405040569547953795D2
:100C0000279580E120303807D0F0DD20C1F0DD24C9
:100C1000EC89FD89108260E874E88EE190E0A8011B
:100C200097010E94940B215030404040504056950F
:100C300047953795279580E12030380730F7E889C8
:100C4000F9893083EA89FB89208319A2EE89FF891B
:100C5000408121E030E0C9010C8C02C0880F991F4F
:100C60000A94E2F7482B4083EE89FF894081C9014D
:100C70000D8C02C0880F991F0A94E2F7482B40831D
:100C8000EE89FF894081C9010E8C02C0880F991F2F
:100C90000A94E2F7482B4083EE89FF8980810F8C0C
:100CA00002C0220F331F0A94E2F7209528232083E5
:100CB000DF91CF911F910F91FF90EF90DF900895FA
:100CC000DC011C96ED91FC911D97E05CFF4F21919A
:100CD000319180819181281B390B2F733070C901AC
:100CE0000895DC011C96ED91FC911D97E05CFF4F8F
:100CF00020813181E054F040DF01AE5BBF4F8D9128
:100D00009C9111972817390749F08D919C91E80F14
:100D1000F91F8081282F30E0C90108952FEF3FEFA0
:100D2000C9010895DC011C96ED91FC911D97E05CD2
:100D3000FF4F20813181E054F040DF01AE5BBF4FB7
:100D40008D919C9111972817390791F08D919C9165
:100D50001197E80FF91F20818D919C9111970196B1
:100D60008F73907011969C938E9330E0C901089513
:100D70002FEF3FEFC9010895FC0181A1882311F4F1
:100D800011A20895A489B5898C9186FFFDCF11A287
:100D90000895CF93DF93EC01AE85BF85AD01405C34
:100DA0005F4FFA01208131812F5F3F4F2F733070E9
:100DB000FD01EE5BFF4F8081918128173907D9F340
:100DC000FA0180819181A80FB91F6C93EE85FF8590
:100DD000E05CFF4F31832083EE89FF89208181E031
:100DE00090E00F8C02C0880F991F0A94E2F7282B1D
:100DF000208381E089A3EC89FD89808180648083E0
:100E000081E090E0DF91CF9108951F93109220052B
:100E100010921F0528EE33E040E050E020932105BA
:100E20003093220540932305509324056FE672E02A
:100E300070931E0560931D058DEF92E090932A0537
:100E40008093290581E493E090932C0580932B05F2
:100E500085EC90E090932E0580932D0584EC90E036
:100E60009093300580932F0580EC90E090933205AD
:100E70008093310581EC90E09093340580933305A5
:100E800082EC90E0909336058093350586EC90E0F7
:100E9000909338058093370514E010933905B3E03B
:100EA000B0933A05A7E0A0933B05F5E0F0933C052D
:100EB000E1E0E0933D051092420510924105209338
:100EC0004305309344054093450550934605709380
:100ED000400560933F0585E893E090934C0580932F
:100EE0004B0589EC93E090934E0580934D058DEC76
:100EF00090E09093500580934F058CEC90E0909398
:100F000052058093510588EC90E0909354058093AE
:100F1000530589EC90E090935605809355058AEC33
:100F200090E090935805809357058EEC90E0909355
:100F30005A058093590510935B05B0935C05A09307
:100F40005D05F0935E05E0935F05109264051092D5
:100F500063052093650530936605409367055093BC
:100F6000680570936205609361058DE094E090934D
:100F70006E0580936D0581E594E0909370058093F4
:100F80006F0585ED90E0909372058093710584ED77
:100F900090E0909374058093730580ED90E09093BA
:100FA00076058093750581ED90E0909378058093A8
:100FB000770582ED90E090937A058093790586ED30
:100FC00090E090937C0580937B0510937D05B09312
:100FD0007E05A0937F05F0938005E0938105109234
:100FE00086051092850520938705309388054093E8
:100FF000890550938A05709384056093830585E97C
:1010000094E09093900580938F0589ED94E0909300
:1010100092058093910585E391E0909394058093E8
:10102000930584E391E0909396058093950580E382
:1010300091E0909398058093970581E391E09093D8
:101040009A058093990582E391E090939C058093A3
:101050009B0586E391E090939E0580939D051093F8
:101060009F05B093A005A093A105F093A205E0937E
:10107000A3051F9108950E941B0A0E9407030E9466
:10108000DC0288E894E0892B29F00E9488040E9401
:10109000DC02FBCF0E94DC020E94DC02FBCFCF927D
:1010A000DF92EF92FF920F931F93CF93DF937C0118
:1010B0006B01EA0141155105D9F000E010E0D601BD
:1010C0006D916D01D701ED91FC910190F081E02DC2
:1010D000C7011995080F191F219789F7C801DF91DA
:1010E000CF911F910F91FF90EF90DF90CF900895D7
:1010F00000E010E0F3CFEF92FF920F931F938C016B
:10110000DC01ED91FC910190F081E02D6DE01995ED
:101110007C01D801ED91FC910190F081E02DC80196
:101120006AE019959C012E0D3F1DC9011F910F9179
:10113000FF90EF9008954F925F927F928F929F92CF
:10114000AF92BF92CF92DF92EF92FF920F931F93D5
:10115000DF93CF93CDB7DEB7A1970FB6F894DEBF7C
:101160000FBECDBF2C01742ECB01223008F460C01D
:10117000822E9924AA24BB2419A221E2C22ED12CAA
:10118000CC0EDD1E0BC0405DF6014083E114F1047E
:101190000105110501F17E2C5F2DC801672D752F0A
:1011A000A50194010E94940B79018A01C801B7013D
:1011B000A50194010E94750B472D461B0894C10898
:1011C000D1084A3004F3495CF6014083E114F1048C
:1011D0000105110501F7C114D10481F1D6010D906B
:1011E0000020E9F71197AC19BD09F20180819181C6
:1011F000FC0122813381C201B601AD01F9011995CB
:101200009C01C901A1960FB6F894DEBF0FBECDBFF9
:10121000CF91DF911F910F91FF90EF90DF90CF90D2
:10122000BF90AF909F908F907F905F904F90089568
:101230003AE0832E912CA12CB12C9ECF20E030E0FF
:10124000E0CFDC012115310519F00E949B080895BB
:10125000ED91FC910190F081E02D642F1995089596
:10126000EF92FF920F931F939A017B0100E010E031
:10127000B801A7010E9421091F910F91FF90EF90E3
:101280000895CF92DF92EF92FF920F931F936C011C
:101290007B019A0100E010E0B801A7010E9421093A
:1012A0008C01C6010E947B08080F191FC8011F91FD
:1012B0000F91FF90EF90DF90CF900895EF92FF9203
:1012C0000F931F939A01E62EFF2400E010E0B8016F
:1012D000A7010E9421091F910F91FF90EF9008959F
:1012E000CF92DF92EF92FF920F931F936C01E62E45
:1012F0009A01FF2400E010E0B801A7010E94210933
:101300008C01C6010E947B08080F191FC8011F919C
:101310000F91FF90EF90DF90CF900895CF93DF93E0
:10132000EC016115710599F0DB010D900020E9F7E2
:101330001197A61BB70BE881F9810280F381E02D9C
:10134000AD0119959C01C901DF91CF91089520E06D
:1013500030E0C901DF91CF9108950F931F93CF9390
:10136000DF93EC0161157105D9F0DB010D900020D0
:10137000E9F71197A61BB70BE881F9810280F38189
:10138000E02DAD0119958C01CE010E947B089801DA
:10139000280F391FC901DF91CF911F910F91089537
:1013A00000E010E0F1CF1F920F920FB60F921124C0
:1013B0002F933F938F939F93AF93BF938091A905F2
:1013C0009091AA05A091AB05B091AC053091AD0507
:1013D0000196A11DB11D232F2D5F2D3720F02D5714
:1013E0000196A11DB11D2093AD058093A905909391
:1013F000AA05A093AB05B093AC058091A50590918B
:10140000A605A091A705B091A8050196A11DB11D43
:101410008093A5059093A605A093A705B093A80572
:10142000BF91AF919F918F913F912F910F900FBEE0
:101430000F901F901895789484B5826084BD84B510
:10144000816084BD85B5826085BD85B5816085BDBF
:10145000EEE6F0E0808181608083E1E8F0E01082D8
:10146000808182608083808181608083E0E8F0E019
:10147000808181608083E1EBF0E080818460808303
:10148000E0EBF0E0808181608083E1E9F0E0808141
:1014900082608083808181608083E0E9F0E08081E8
:1014A00081608083E1EAF0E08081826080838081D6
:1014B00081608083E0EAF0E0808181608083E1E206
:1014C000F1E0808182608083808181608083E0E2BE
:1014D000F1E0808181608083EAE7F0E080818460D0
:1014E000808380818260808380818160808380812D
:1014F000806880831092C1000895CF93DF93482FB6
:1015000050E0CA0188589E4FFC0134914E5C5E4FFA
:10151000FA0184918823B9F090E0880F991FFC01AB
:10152000EC51FF4FA591B491FC01E250FF4FC591E2
:10153000D491662359F06230B9F09FB7F8948C913A
:10154000832B8C939FBFDF91CF9108952FB7F89491
:101550008C91932F909589238C93888189238883FC
:101560002FBFDF91CF9108952FB7F8948C91932FCF
:10157000909589238C938881832B88832FBFE3CF19
:10158000893009F45EC08A3070F08D3009F45FC094
:101590008E30D0F0803109F46CC0813109F463C021
:1015A0008F30C9F10895843009F445C08530B8F012
:1015B0008730B9F1883048F58630A1F78091B000C6
:1015C0008F778093B00008958B3009F446C08C303B
:1015D000B0F08091A0008F7D8093A00008958230AC
:1015E00031F1833030F48130E9F684B58F7784BDF2
:1015F0000895809180008F77809380000895809176
:101600009000877F809390000895809190008F775D
:10161000809390000895809120018F77809320011E
:1016200008958091B0008F7D8093B000089584B5B7
:101630008F7D84BD0895809180008F7D8093800090
:101640000895809190008F7D8093900008958091FF
:10165000A000877F8093A00008958091A0008F77DD
:101660008093A000089580912001877F80932001BE
:101670000895809120018F7D809320010895FF922D
:101680000F931F93F62E482F50E0CA0182549E4FAD
:10169000FC012491CA0188589E4FFC0104914E5CC4
:1016A0005E4FFA011491112399F02223D1F4E12F16
:1016B000F0E0EE0FFF1FE250FF4FA591B4919FB7EE
:1016C000F894FF2049F48C91009580238C939FBF60
:1016D0001F910F91FF9008958C91802B8C939FBF49
:1016E000F7CF822F0E94C00AE2CF629FD001739F82
:1016F000F001829FE00DF11D649FE00DF11D929FAE
:10170000F00D839FF00D749FF00D659FF00D9927EC
:10171000729FB00DE11DF91F639FB00DE11DF91F10
:10172000BD01CF0111240895A1E21A2EAA1BBB1BF3
:10173000FD010DC0AA1FBB1FEE1FFF1FA217B3079D
:10174000E407F50720F0A21BB30BE40BF50B661FB3
:10175000771F881F991F1A9469F760957095809577
:1017600090959B01AC01BD01CF010895EE0FFF1FC5
:0C1770000590F491E02D1994F894FFCF3F
:10177C002D2D52656365697665206572726F722DC9
:10178C002D00446174612072656365697665643A05
:10179C00204F4B00446174612073656E743A204F86
:1017AC004B004555493A20002E0044657669636527
:1017BC003A2000205665722E20004461746F20720E
:1017CC006563696269646F3A200053686F727420B4
:1017DC0041646472657373202D200000000000C901
:0C17EC00064F08600692067106BC06005D
:00000001FF
