:100000000C9462000C948A000C948A000C948A0070
:100010000C948A000C948A000C948A000C948A0038
:100020000C948A000C948A000C948A000C948A0028
:100030000C948A000C948A000C948A000C948A0018
:100040000C9451060C948A000C94E5020C94330332
:100050000C948A000C948A000C948A000C948A00F8
:100060000C948A000C948A000000000024002700F1
:100070002A0000000000250028002B0000000000DE
:1000800023002600290004040404040404040202DA
:100090000202020203030303030301020408102007
:1000A0004080010204081020010204081020000012
:1000B0000007000201000003040600000000000029
:1000C00000009F0411241FBECFEFD8E0DEBFCDBFDC
:1000D00011E0A0E0B1E0E4E2F0E102C005900D9291
:1000E000A23BB107D9F712E0A2EBB1E001C01D922B
:1000F000A43EB107E1F710E0C4ECD0E004C02297C1
:10010000FE010E940C08C23CD107C9F70E94F50409
:100110000C9410080C940000FC0181E0808388E8B6
:10012000818312829AEC93832EED24838AE0858367
:100130001682978320878BE0818712869387948726
:1001400008951F93CF93DF93182FEB01603871054B
:10015000C8F48AE060E00E949607812F90E0805CFE
:100160009F4F8EBD0DB407FEFDCF8EB5CF77D070FB
:10017000CEBD0DB407FEFDCF8EB51EBC0DB407FE7F
:10018000FDCF2FC0CB018058904080589F4710F082
:1001900010E02CC08AE060E00E949607812F90E07A
:1001A000805C9F4F8EBD0DB407FEFDCF8EB5CE0196
:1001B0008F77907080589F4F8EBD0DB407FEFDCF96
:1001C0008EB5C078DF77CC0FCD2FCC1FDD0BD1954E
:1001D000CEBD0DB407FEFDCF8EB51EBC0DB407FE1F
:1001E000FDCF1EB58AE061E00E949607812FDF9166
:1001F000CF911F910895EF92FF920F931F93082FB5
:1002000083E0602F70E00E94A100E82EFF2410E040
:100210000F5F1F4F83E0B8010E94A100382F20E03C
:100220002E0D3F1DC9011F910F91FF90EF90089572
:100230000F931F93CF93DF93182FEB01042F603898
:100240007105C8F48AE060E00E949607812F90E073
:1002500080549F4F8EBD0DB407FEFDCF8EB5CF7776
:10026000D070CEBD0DB407FEFDCF8EB50EBD0DB462
:1002700007FEFDCF2DC0CB018058904080589F478E
:1002800060F58AE060E00E949607812F90E080543C
:100290009F4F8EBD0DB407FEFDCF8EB5CE018F777B
:1002A000907080589F4F8EBD0DB407FEFDCF8EB568
:1002B000C078DF77CC0FCD2FCC1FDD0BD195CEBD15
:1002C0000DB407FEFDCF8EB50EBD0DB407FEFDCFFC
:1002D0008EB58AE061E00E949607DF91CF911F9171
:1002E0000F91089586E360E070E041E00E941801FC
:1002F0008DE267E070E040E80E94180188EC90E031
:100300000E94E50686E360E070E040E00E9418018C
:100310000895EF92FF920F931F93CF93DF937C0189
:100320008B018DE060E070E040E40E941801C0E0C5
:10033000D0E009C0F701EC0FFD1F89E0BE0140814C
:100340000E9418012196C017D107A4F3402F4E5FD9
:1003500088E060E070E00E9418018DE060E070E0ED
:1003600042E00E9418018FE060E070E00E94A1006E
:1003700087FF05C089EB92E06BE471E00BC08FE072
:1003800063E070E00E94A10084FFEDCF89EB92E072
:1003900069E571E00E943E068FE060E070E04EEF9C
:1003A0000E9418018DE060E070E040E40E941801B6
:1003B000DF91CF911F910F91FF90EF900895EF92F1
:1003C000FF920F931F93082F7B01AB01507083E0C6
:1003D000602F70E00E94180110E00F5F1F4F83E054
:1003E000B8014F2D0E9418011F910F91FF90EF90BF
:1003F0000895CF92DF92EF92FF920F931F9380E0C8
:1004000063E070E00E94A100E82E80E062E070E00E
:100410000E94A100F82E80E061E070E00E94A1003F
:10042000D82E80E060E070E00E94A100C82E09EBA9
:1004300012E0C80160E871E00E943B067E2D60E09A
:100440006F0D711DC80140E150E00E94DD05C8013B
:1004500069E871E00E943B06C8016D2D40E150E063
:100460000E940B06C8016CE771E00E943B06C801C0
:100470006C2D40E150E00E941D061F910F91FF90EE
:10048000EF90DF90CF9008950F931F936AE070E094
:1004900080E090E00E94BF0602EB11E0C8010E94DC
:1004A0008C00C8016DE070E00E94890168EE73E085
:1004B00080E090E00E94BF061F910F9108950F9376
:1004C0001F9309EB12E0C80140E855E260E070E0DC
:1004D0000E946E038CE060E00E942A078BE061E0DE
:1004E0000E942A078DE061E00E942A078AE061E00D
:1004F0000E942A078AE061E00E94960780E00E943D
:10050000B70285E00E94BC0281E00E94AE020E9418
:10051000CD020E94720180E06BE070E00E94DF017A
:1005200082E06AEC7EED0E94DF010E94F901C801C1
:1005300060E971E00E943B0682E00E94FB00BC0182
:10054000C80140E150E00E94EE058DE060E070E0FF
:1005500040E40E9418011F910F910895882319F417
:100560008CB5806202C08CB58F7D8CBD08959CB522
:10057000937F982B9CBD08952CB5382F33702C7F1A
:10058000322B3CBD2DB590E0959587959595879537
:1005900081702E7F822B8DBD08958AE061E00E94DC
:1005A00096078AE061E00E942A078CB580618CBDC5
:1005B0008CB580648CBD8DE061E00E942A078BE0E1
:1005C00061E00E942A07089508951F920F920FB6C6
:1005D0000F9211242F933F934F938F939F93EF93F9
:1005E000FF938091C00082FD1DC04091C600209104
:1005F0007102309172022F5F3F4F2F7330708091E4
:100600007302909174022817390771F0E09171021A
:10061000F0917202EF5CFD4F4083309372022093A1
:10062000710202C08091C600FF91EF919F918F915E
:100630004F913F912F910F900FBE0F901F901895E3
:10064000E091C502F091C602E05CFF4F819191916B
:1006500020813181821B930B8F739070892B11F055
:100660000E94E40208951F920F920FB60F92112478
:100670002F933F938F939F93EF93FF932091B50216
:100680003091B6028091B7029091B80228173907CD
:1006900031F48091C1008F7D8093C10014C0E0913E
:1006A000B702F091B802EB58FD4F20818091B7025C
:1006B0009091B80201968F7390709093B8028093D6
:1006C000B7022093C600FF91EF919F918F913F91C8
:1006D0002F910F900FBE0F901F901895AF92BF9261
:1006E000DF92EF92FF920F931F93CF93DF93EC0172
:1006F0007A018B01DD24403081EE580780E06807E5
:1007000080E0780711F0DD24D39491E0A92EB12C7C
:10071000EC89FD89DD2069F0C50108A002C0880FC1
:10072000991F0A94E2F7808360E079E08DE390E01E
:1007300005C0108260E874E88EE190E0A80197019E
:100740000E94E80721503040404050405695479560
:100750003795279580E12030380720F0DD2011F013
:10076000DD24D6CFE889F9893083EA89FB892083A3
:1007700019A2EE89FF89408121E030E0C9010C8C8B
:1007800002C0880F991F0A94E2F7482B4083EE8934
:10079000FF894081C9010D8C02C0880F991F0A94FE
:1007A000E2F7482B4083EE89FF894081C9010E8C16
:1007B00002C0880F991F0A94E2F7482B4083EE8904
:1007C000FF8980810F8C02C0220F331F0A94E2F749
:1007D000209528232083DF91CF911F910F91FF90C7
:1007E000EF90DF90BF90AF900895DC011C96ED91E3
:1007F000FC911D97E05CFF4F2191319180819181A7
:10080000281B390B2F733070C9010895DC011C9629
:10081000ED91FC911D97E05CFF4F20813181E05408
:10082000F040DF01AE5BBF4F8D919C91119728176F
:10083000390719F42FEF3FEF07C08D919C91E80F16
:10084000F91F8081282F30E0C9010895DC011C9632
:10085000ED91FC911D97E05CFF4F20813181E054C8
:10086000F040DF01AE5BBF4F8D919C91119728172F
:10087000390719F42FEF3FEF10C08D919C9111971C
:10088000E80FF91F20818D919C91119701968F732C
:10089000907011969C938E9330E0C9010895DC010D
:1008A00091968C919197882339F05496ED91FC9113
:1008B0005597808186FFF9CF91961C920895CF932A
:1008C000DF93EC01EE85FF85E05CFF4F20813181F5
:1008D000E054F0402F5F3F4F2F733070DF01AE5B6D
:1008E000BF4F8D919C91119728173907D1F3E05C88
:1008F000FF4F80819181E054F040E80FF91F608341
:10090000EE85FF85E05CFF4F31832083EE89FF8910
:10091000208181E090E00F8C02C0880F991F0A941B
:10092000E2F7282B208381E089A3EC89FD8980816F
:100930008064808381E090E0DF91CF9108951092F0
:10094000BC021092BB0288EE93E0A0E0B0E080937E
:10095000BD029093BE02A093BF02B093C00285EA8D
:1009600091E09093BA028093B90281E392E0909370
:10097000C6028093C50285E792E09093C8028093F7
:10098000C70285EC90E09093CA028093C90284EC80
:1009900090E09093CC028093CB0280EC90E0909317
:1009A000CE028093CD0281EC90E09093D0028093B0
:1009B000CF0282EC90E09093D2028093D10286EC39
:1009C00090E09093D4028093D30284E08093D50288
:1009D00083E08093D60287E08093D70285E08093FE
:1009E000D80281E08093D9020895CF93DF930E94CB
:1009F000EF060E945F02C0E2D3E00E94440220970B
:100A0000E1F30E942003F9CFCF92DF92EF92FF92A1
:100A10000F931F93CF93DF937C016B018A01C0E09A
:100A2000D0E00FC0D6016D916D01D701ED91FC9121
:100A30000190F081E02DC7010995C80FD91F015021
:100A400010400115110571F7CE01DF91CF911F9173
:100A50000F91FF90EF90DF90CF900895EF92FF926B
:100A60000F931F938C01DC01ED91FC910190F081BB
:100A7000E02D6DE009957C01D801ED91FC9101908C
:100A8000F081E02DC8016AE009959C012E0D3F1D03
:100A9000C9011F910F91FF90EF900895CF93DF93BD
:100AA000EC016115710519F420E030E00FC0DB01A5
:100AB0000D900020E9F71197A61BB70BE881F9818B
:100AC0000280F381E02DAD0109959C01C901DF9100
:100AD000CF9108954F925F927F928F929F92AF92A3
:100AE000BF92CF92DF92EF92FF920F931F93DF930B
:100AF000CF93CDB7DEB7A1970FB6F894DEBF0FBE88
:100B0000CDBF2C01742ECB01223008F42AE019A2AB
:100B100031E2C32ED12CCC0EDD1E822E9924AA24C4
:100B2000BB24672D752FA50194010E94E807790168
:100B30008A01C801B701A50194010E94C907472D88
:100B4000461B0894C108D1084A3014F4405D01C026
:100B5000495CF6014083E114F1040105110521F01F
:100B60007E2C5F2DC801DDCFC201B6010E944E056B
:100B7000A1960FB6F894DEBF0FBECDBFCF91DF9127
:100B80001F910F91FF90EF90DF90CF90BF90AF90AB
:100B90009F908F907F905F904F900895DC0121157A
:100BA000310541F4ED91FC910190F081E02D642F2D
:100BB000099508950E946A050895EF92FF920F9398
:100BC0001F939A017B0100E010E0B801A7010E9489
:100BD000CE051F910F91FF90EF900895CF92DF9275
:100BE000EF92FF920F931F936C017B019A0100E03B
:100BF00010E0B801A7010E94CE058C01C6010E9439
:100C00002E05080F191FC8011F910F91FF90EF903B
:100C1000DF90CF900895EF92FF920F931F939A0168
:100C2000E62EFF2400E010E0B801A7010E94CE05E7
:100C30001F910F91FF90EF900895CF92DF92EF9266
:100C4000FF920F931F936C01E62E9A01FF2400E0A0
:100C500010E0B801A7010E94CE058C01C6010E94D8
:100C60002E05080F191FC8011F910F91FF90EF90DB
:100C7000DF90CF9008950E944E050895EF92FF9265
:100C80000F931F937C010E944E058C01C7010E94A7
:100C90002E05080F191FC8011F910F91FF90EF90AB
:100CA00008951F920F920FB60F9211242F933F9326
:100CB0008F939F93AF93BF938091DF029091E00257
:100CC000A091E102B091E2023091E3020196A11DF0
:100CD000B11D232F2D5F2D3720F02D570196A11D1B
:100CE000B11D2093E3028093DF029093E002A09372
:100CF000E102B093E2028091DB029091DC02A091CC
:100D0000DD02B091DE020196A11DB11D8093DB02D0
:100D10009093DC02A093DD02B093DE02BF91AF910D
:100D20009F918F913F912F910F900FBE0F901F9029
:100D300018959FB7F8942091DB023091DC02409126
:100D4000DD025091DE0286B5A89B06C08F3F21F0E0
:100D50002F5F3F4F4F4F5F4F9FBF542F432F322F77
:100D60002227280F311D411D511D82E0220F331F04
:100D7000441F551F8A95D1F7B901CA010895EF9212
:100D8000FF920F931F93CF93DF937B018C010E94FF
:100D90009906EB010EC00E9499066C1B7D0B685EE4
:100DA0007340C8F30894E108F10801091109C8511A
:100DB000DC4FE114F1040105110569F7DF91CF91D2
:100DC0001F910F91FF90EF900895019739F0880FD0
:100DD000991F880F991F02970197F1F7089578944A
:100DE00084B5826084BD84B5816084BD85B5826030
:100DF00085BD85B5816085BDEEE6F0E080818160CE
:100E00008083E1E8F0E010828081826080838081CD
:100E100081608083E0E8F0E0808181608083E1EBA5
:100E2000F0E0808184608083E0EBF0E0808181608D
:100E30008083EAE7F0E08081846080838081826043
:100E4000808380818160808380818068808310922C
:100E5000C1000895CF93DF93482F50E0CA01865612
:100E60009F4FFC0134914A575F4FFA0184918823C8
:100E700069F190E0880F991FFC01E859FF4FA59197
:100E8000B491FC01EE58FF4FC591D491662351F403
:100E90002FB7F8948C91932F909589238C93888108
:100EA00089230BC0623061F42FB7F8948C91932F93
:100EB000909589238C938881832B88832FBF06C0CC
:100EC0009FB7F8948C91832B8C939FBFDF91CF9128
:100ED0000895833071F0843028F48130A1F082309D
:100EE00021F514C08630B1F08730D1F08430E9F4B8
:100EF00004C0809180008F7703C0809180008F7D37
:100F000080938000089584B58F7702C084B58F7D6B
:100F100084BD08958091B0008F778093B0000895CC
:100F20008091B0008F7D8093B0000895FF920F9361
:100F30001F93F62E482F50E0CA0182559F4FFC01A7
:100F40002491CA0186569F4FFC0114914A575F4F66
:100F5000FA0104910023C9F0222319F0822F0E9484
:100F60006907E02FF0E0EE0FFF1FEE58FF4FA5914D
:100F7000B4919FB7F894FF2021F48C9110958123B0
:100F800002C08C91812B8C939FBF1F910F91FF907A
:100F90000895629FD001739FF001829FE00DF11DC3
:100FA000649FE00DF11D929FF00D839FF00D749FE3
:100FB000F00D659FF00D9927729FB00DE11DF91F8F
:100FC000639FB00DE11DF91FBD01CF0111240895EC
:100FD000A1E21A2EAA1BBB1BFD010DC0AA1FBB1F3D
:100FE000EE1FFF1FA217B307E407F50720F0A21BAF
:100FF000B30BE40BF50B661F771F881F991F1A941C
:1010000069F760957095809590959B01AC01BD0145
:10101000CF010895EE0FFF1F0590F491E02D099484
:04102000F894FFCF72
:10102400446174612072656365697665643A204F32
:101034004B004572726F723A20526563656976653A
:101044007220504859206865616465722045727247
:101054006F72004572726F723A20526563656976E9
:101064006572204F76657272756E004461746120FA
:1010740073656E743A204F4B004572726F723A205A
:101084005472616E736D6974204275666665722070
:101094004572726F72004555493A20002E000A00CD
:1010A4004465766963653A2000205665722E2000F7
:1010B40053686F72742041646472657373202D20C9
:1010C40000000000005F040405F503260406044F35
:0210D400040016
:00000001FF
