:100000000C9403010C9430010C9430010C943001D9
:100010000C9430010C9430010C9430010C9430019C
:100020000C9430010C9430010C9430010C9430018C
:100030000C9430010C9430010C9430010C9430017C
:100040000C9430010C9430010C9430010C9430016C
:100050000C9430010C9430010C9430010C94EB0999
:100060000C9430010C94A1030C94ED040C94300119
:100070000C9430010C9430010C9430010C9430013C
:100080000C9430010C9430010C9430010C9430012C
:100090000C94E1030C942C050C9430010C94300169
:1000A0000C9430010C9430010C9430010C9430010C
:1000B0000C9430010C9430010C9430010C943001FC
:1000C0000C9430010C9430010C9430010C942104F8
:1000D0000C946B050C9430010C9461040C94AA05EB
:1000E0000C94300100002100240027002A002D007C
:1000F0003000330001010000040107010A01000083
:100100002200250028002B002E00310034000201BF
:100110000000050108010B0100002000230026005B
:1001200029002C002F00320000010000030106010D
:10013000090105050505070508080808020202026D
:100140000A0A080804040404010101010101010173
:100150000303030303030303040707070C0C0C0C3E
:100160000C0C0C0C02020202060606060606060627
:100170000B0B0B0B0B0B0B0B0102102020080810B4
:100180002040102040800201020108040201010207
:1001900004081020408080402010080402018004E0
:1001A000020180402010080402010804020101023B
:1001B0000408102040800102040810204080000044
:1001C000090A02080B0C0D070603040100000000D9
:1001D000000000000000000000000000000000001F
:1001E0000000000000000000000011100F000000DF
:1001F00000000000000000000000000000000000FF
:10020000000000001D0711241FBECFEFD1E2DEBFAA
:10021000CDBF00E00CBF12E0A0E0B2E0E4E6F8E100
:1002200000E00BBF02C007900D92A23BB107D9F7C7
:100230001BBE15E0A2EBB2E001C01D92A23EB107C9
:10024000E1F712E0C6E0D2E004C02297FE010E946E
:100250002C0CC430D107C9F70E9453080C94300C01
:100260000C940000FC0181E0808388E88183128285
:100270002EED23839AEC948315828AE0868327836C
:10028000908711868BE082879387948708951F93C8
:10029000CF93DF93182FEB0160387105E8F1CB01A4
:1002A0008058904080589F4730F010E0812FDF91B8
:1002B000CF911F91089585E360E00E94B30B812FD9
:1002C00090E0805C9F4F8EBD0DB407FEFDCF8EB5D4
:1002D000CE018F77907080589F4F8EBD0DB407FE72
:1002E000FDCF8EB5C078DF77CC0FCD2FCC1FDD0BC7
:1002F000D195CEBD0DB407FEFDCF8EB51EBC0DB49D
:1003000007FEFDCF1EB585E361E00E94B30B812F90
:10031000DF91CF911F91089585E360E00E94B30BB8
:10032000812F90E0805C9F4F8EBD0DB407FEFDCF06
:100330008EB5CF77D070CEBD0DB407FEFDCF8EB594
:100340001EBC0DB407FEFDCF1EB585E361E00E9423
:10035000B30BDDCFEF92FF920F931F93082F83E033
:10036000602F70E00E944701E82EFF2410E00F5F2D
:100370001F4F83E0B8010E944701382F20E02E0D67
:100380003F1DC9011F910F91FF90EF9008950F93AA
:100390001F93CF93DF93182FEB01042F6038710563
:1003A000E0F1CB018058904080589F4728F0DF91C2
:1003B000CF911F910F91089585E360E00E94B30BE8
:1003C000812F90E080549F4F8EBD0DB407FEFDCF6E
:1003D0008EB5CE018F77907080589F4F8EBD0DB433
:1003E00007FEFDCF8EB5C078DF77CC0FCD2FCC1FA9
:1003F000DD0BD195CEBD0DB407FEFDCF8EB50EBD84
:100400000DB407FEFDCF8EB585E361E00E94B30B0E
:10041000DF91CF911F910F91089585E360E00E94D5
:10042000B30B812F90E080549F4F8EBD0DB407FE1B
:10043000FDCF8EB5CF77D070CEBD0DB407FEFDCF0A
:100440008EB50EBD0DB407FEFDCF8EB585E361E020
:100450000E94B30BDDCF86E360E070E041E00E94D4
:10046000C7018DE267E070E040E80E94C70188ECB8
:1004700090E00E94850A86E360E070E040E00E9420
:10048000C7010895EF92FF920F931F93CF93DF93CD
:100490007C018B018DE060E070E040E40E94C701C8
:1004A0001016110674F4C0E0D0E0F701EC0FFD1F48
:1004B00089E0BE0140810E94C7012196C017D10783
:1004C000A4F3402F4E5F88E060E070E00E94C70117
:1004D0008DE060E070E042E00E94C7018FE060E0E4
:1004E00070E00E94470187FD0CC08FE063E070E080
:1004F0000E94470184FFF2CF81E595E069E572E053
:1005000004C081E595E06BE472E00E94C5098FE0CC
:1005100060E070E04EEF0E94C7018DE060E070E0A7
:1005200040E40E94C701DF91CF911F910F91FF908E
:10053000EF900895EF92FF920F931F93082F7B0186
:10054000AB01507083E0602F70E00E94C70110E0A3
:100550000F5F1F4F83E0B8014F2D0E94C7011F910D
:100560000F91FF90EF900895CF92DF92EF92FF925C
:100570000F931F9380E063E070E00E944701E82E34
:1005800080E062E070E00E944701F82E80E061E0C8
:1005900070E00E944701D82E80E060E070E00E9489
:1005A0004701C82E01E515E0C80160E872E00E942D
:1005B000A6097E2D60E06F0D711DC80140E150E07D
:1005C0000E944809C80169E872E00E94A609C801B2
:1005D0006D2D40E150E00E947609C8016CE772E0A1
:1005E0000E94A609C8016C2D40E150E00E948809D4
:1005F0001F910F91FF90EF90DF90CF9008950F9390
:100600001F936AE070E080E090E00E945A0A02EBDB
:1006100012E0C8010E943201C8016DE070E00E9442
:10062000420268EE73E080E090E00E945A0A1F9157
:100630000F9108950F931F9301E515E0C80140E85D
:1006400055E260E070E00E94E9058CE060E00E9405
:10065000F10A8BE061E00E94F10A8DE061E00E9406
:10066000F10A8AE061E00E94F10A8AE061E00E94FA
:10067000B30B80E00E94730385E00E94780381E061
:100680000E9469030E9489030E942B0280E06BE0B4
:1006900070E00E949A0282E06AEC7EED0E949A026B
:1006A0000E94B402C80160E972E00E94A60982E0DB
:1006B0000E94AA01BC01C80140E150E00E94590912
:1006C0008DE060E070E040E40E94C7011F910F914F
:1006D0000895882321F08CB58F7D8CBD08958CB54D
:1006E00080628CBD08959CB5937F982B9CBD089526
:1006F0002CB5382F33702C7F322B3CBD2DB590E0BC
:10070000959587959595879581702E7F822B8DBDC8
:10071000089585E361E00E94B30B85E361E00E94E8
:10072000F10A8CB580618CBD8CB580648CBD84E38E
:1007300061E00E94F10A83E361E00E94F10A0895FA
:1007400008951F920F920FB60F920BB60F921124BD
:100750002F933F934F938F939F93EF93FF938091AA
:10076000C00082FD2AC04091C600209171033091E3
:1007700072032F5F3F4F2F733070809173039091FE
:1007800074032817390759F0E0917103F09172034F
:10079000EF5CFC4F40833093720320937103FF9111
:1007A000EF919F918F914F913F912F910F900BBEA1
:1007B0000F900FBE0F901F9018958091C600EFCF3D
:1007C00008951F920F920FB60F920BB60F9211243D
:1007D0002F933F934F938F939F93EF93FF9380912A
:1007E000C80082FD2AC04091CE002091F9033091CB
:1007F000FA032F5F3F4F2F7330708091FB0390916E
:10080000FC032817390759F0E091F903F091FA0336
:10081000E754FC4F40833093FA032093F903FF9190
:10082000EF919F918F914F913F912F910F900BBE20
:100830000F900FBE0F901F9018958091CE00EFCFB4
:1008400008951F920F920FB60F920BB60F921124BC
:100850002F933F934F938F939F93EF93FF938091A9
:10086000D00082FD2AC04091D600209181043091B1
:1008700082042F5F3F4F2F733070809183049091DB
:1008800084042817390759F0E0918104F09182041B
:10089000EF5BFB4F40833093820420938104FF91F0
:1008A000EF919F918F914F913F912F910F900BBEA0
:1008B0000F900FBE0F901F9018958091D600EFCF2C
:1008C00008951F920F920FB60F920BB60F9211243C
:1008D0002F933F934F938F939F93EF93FF93809129
:1008E000300182FD2AC040913601209109053091E6
:1008F0000A052F5F3F4F2F73307080910B05909149
:100900000C052817390759F0E0910905F0910A05FF
:10091000E753FB4F408330930A0520930905FF916D
:10092000EF919F918F914F913F912F910F900BBE1F
:100930000F900FBE0F901F90189580913601EFCF4A
:10094000E0915D05F0915E05E05CFF4F8191919132
:1009500020813181821B930B8F739070892BD1F58D
:10096000E0917F05F0918005E05CFF4F81919191CE
:1009700020813181821B930B8F739070892B39F505
:10098000E091A105F091A205E05CFF4F819191916A
:1009900020813181821B930B8F739070892BA1F47E
:1009A000E091C305F091C405E05CFF4F8191919106
:1009B00020813181821B930B8F739070892B09F4F6
:1009C00008950E94600408950E942004E9CF0E94C7
:1009D000E003D6CF0E94A003C3CF1F920F920FB6A1
:1009E0000F920BB60F9211242F933F938F939F93E7
:1009F000EF93FF932091B5033091B6038091B70335
:100A00009091B8032817390709F1E091B703F091E5
:100A1000B803EB58FC4F20818091B7039091B80345
:100A200001968F7390709093B8038093B7032093CF
:100A3000C600FF91EF919F918F913F912F910F9061
:100A40000BBE0F900FBE0F901F9018958091C100A4
:100A50008F7D8093C100EDCF1F920F920FB60F9242
:100A60000BB60F9211242F933F938F939F93EF9385
:100A7000FF9320913D0430913E0480913F0490917A
:100A800040042817390709F1E0913F04F091400430
:100A9000E350FC4F208180913F04909140040196E7
:100AA0008F7390709093400480933F042093CE0006
:100AB000FF91EF919F918F913F912F910F900BBEDE
:100AC0000F900FBE0F901F9018958091C9008F7DD9
:100AD0008093C900EDCF1F920F920FB60F920BB605
:100AE0000F9211242F933F938F939F93EF93FF9334
:100AF0002091C5043091C6048091C7049091C80428
:100B00002817390709F1E091C704F091C804EB57A1
:100B1000FB4F20818091C7049091C80401968F7388
:100B200090709093C8048093C7042093D600FF91DF
:100B3000EF919F918F913F912F910F900BBE0F904E
:100B40000FBE0F901F9018958091D1008F7D8093DC
:100B5000D100EDCF1F920F920FB60F920BB60F92EE
:100B600011242F933F938F939F93EF93FF932091A3
:100B70004D0530914E0580914F05909150052817F5
:100B8000390709F1E0914F05F0915005E35FFA4F05
:100B9000208180914F059091500501968F73907040
:100BA0009093500580934F0520933601FF91EF916C
:100BB0009F918F913F912F910F900BBE0F900FBE81
:100BC0000F901F901895809131018F7D8093310196
:100BD000EDCFDF92EF92FF920F931F93CF93DF93AE
:100BE000EC017A018B01DD24403081EE580780E072
:100BF000680780E0780721F1DD24D394EC89FD8932
:100C000081E090E008A002C0880F991F0A94E2F7E3
:100C1000808360E079E08DE390E0A80197010E9475
:100C2000080C21503040404050405695479537952C
:100C3000279580E120303807D0F0DD20C1F0DD2499
:100C4000EC89FD89108260E874E88EE190E0A801EB
:100C500097010E94080C215030404040504056956A
:100C600047953795279580E12030380730F7E88998
:100C7000F9893083EA89FB89208319A2EE89FF89EB
:100C8000408121E030E0C9010C8C02C0880F991F1F
:100C90000A94E2F7482B4083EE89FF894081C9011D
:100CA0000D8C02C0880F991F0A94E2F7482B4083ED
:100CB000EE89FF894081C9010E8C02C0880F991FFF
:100CC0000A94E2F7482B4083EE89FF8980810F8CDC
:100CD00002C0220F331F0A94E2F7209528232083B5
:100CE000DF91CF911F910F91FF90EF90DF900895CA
:100CF000DC011C96ED91FC911D97E05CFF4F21916A
:100D0000319180819181281B390B2F733070C9017B
:100D10000895DC011C96ED91FC911D97E05CFF4F5E
:100D200020813181E054F040DF01AE5BBF4F8D91F7
:100D30009C9111972817390749F08D919C91E80FE4
:100D4000F91F8081282F30E0C90108952FEF3FEF70
:100D5000C9010895DC011C96ED91FC911D97E05CA2
:100D6000FF4F20813181E054F040DF01AE5BBF4F87
:100D70008D919C9111972817390791F08D919C9135
:100D80001197E80FF91F20818D919C911197019681
:100D90008F73907011969C938E9330E0C9010895E3
:100DA0002FEF3FEFC9010895FC0181A1882311F4C1
:100DB00011A20895A489B5898C9186FFFDCF11A257
:100DC0000895CF93DF93EC01AE85BF85AD01405C04
:100DD0005F4FFA01208131812F5F3F4F2F733070B9
:100DE000FD01EE5BFF4F8081918128173907D9F310
:100DF000FA0180819181A80FB91F6C93EE85FF8560
:100E0000E05CFF4F31832083EE89FF89208181E000
:100E100090E00F8C02C0880F991F0A94E2F7282BEC
:100E2000208381E089A3EC89FD89808180648083AF
:100E300081E090E0DF91CF9108951F9310925405C7
:100E40001092530528EE33E040E050E02093550522
:100E500030935605409357055093580565EA72E064
:100E6000709352056093510581E393E090935E0582
:100E700080935D0585E793E09093600580935F051F
:100E800085EC90E0909362058093610584EC90E09E
:100E9000909364058093630580EC90E090936605E1
:100EA0008093650581EC90E09093680580936705D9
:100EB00082EC90E090936A058093690586EC90E05F
:100EC00090936C0580936B0514E010936D05B3E06F
:100ED000B0936E05A7E0A0936F05F5E0F093700561
:100EE000E1E0E0937105109276051092750520936C
:100EF0007705309378054093790550937A05709380
:100F000074056093730589EB93E09093800580935B
:100F10007F058DEF93E090938205809381058DECA2
:100F200090E090938405809383058CEC90E09093FF
:100F300086058093850588EC90E0909388058093E2
:100F4000870589EC90E090938A05809389058AEC67
:100F500090E090938C0580938B058EEC90E09093BD
:100F60008E0580938D0510938F05B0939005A09307
:100F70009105F0939205E0939305109298051092D5
:100F800097052093990530939A0540939B055093BC
:100F90009C05709396056093950581E494E0909389
:100FA000A2058093A10585E894E09093A405809321
:100FB000A30585ED90E09093A6058093A50584EDAB
:100FC00090E09093A8058093A70580ED90E0909322
:100FD000AA058093A90581ED90E09093AC058093DC
:100FE000AB0582ED90E09093AE058093AD0586ED64
:100FF00090E09093B0058093AF051093B105B09346
:10100000B205A093B305F093B405E093B505109233
:10101000BA051092B9052093BB053093BC054093E7
:10102000BD055093BE057093B8056093B70589EC74
:1010300094E09093C4058093C3058DE095E0909370
:10104000C6058093C50585E391E09093C80580931C
:10105000C70584E391E09093CA058093C90580E3B6
:1010600091E09093CC058093CB0581E391E0909340
:10107000CE058093CD0582E391E09093D0058093D7
:10108000CF0586E391E09093D2058093D10510932C
:10109000D305B093D405A093D505F093D605E0937E
:1010A000D7051F9108950E948F0A0E941A030E947B
:1010B000FF0280EA94E0892B29F00E94A0040E949C
:1010C000FF02FBCF0E94FF020E94FF02FBCFCF92E4
:1010D000DF92EF92FF920F931F93CF93DF937C01E8
:1010E0006B01EA0141155105D9F000E010E0D6018D
:1010F0006D916D01D701ED91FC910190F081E02D92
:10110000C7011995080F191F219789F7C801DF91A9
:10111000CF911F910F91FF90EF90DF90CF900895A6
:1011200000E010E0F3CFEF92FF920F931F938C013A
:10113000DC01ED91FC910190F081E02D6DE01995BD
:101140007C01D801ED91FC910190F081E02DC80166
:101150006AE019959C012E0D3F1DC9011F910F9149
:10116000FF90EF9008954F925F927F928F929F929F
:10117000AF92BF92CF92DF92EF92FF920F931F93A5
:10118000DF93CF93CDB7DEB7A1970FB6F894DEBF4C
:101190000FBECDBF2C01742ECB01223008F460C0ED
:1011A000822E9924AA24BB2419A221E2C22ED12C7A
:1011B000CC0EDD1E0BC0405DF6014083E114F1044E
:1011C0000105110501F17E2C5F2DC801672D752FDA
:1011D000A50194010E94080C79018A01C801B70198
:1011E000A50194010E94E90B472D461B0894C108F4
:1011F000D1084A3004F3495CF6014083E114F1045C
:101200000105110501F7C114D10481F1D6010D903A
:101210000020E9F71197AC19BD09F2018081918195
:10122000FC0122813381C201B601AD01F90119959A
:101230009C01C901A1960FB6F894DEBF0FBECDBFC9
:10124000CF91DF911F910F91FF90EF90DF90CF90A2
:10125000BF90AF909F908F907F905F904F90089538
:101260003AE0832E912CA12CB12C9ECF20E030E0CF
:10127000E0CFDC012115310519F00E94B308089573
:10128000ED91FC910190F081E02D642F1995089566
:10129000EF92FF920F931F939A017B0100E010E001
:1012A000B801A7010E9439091F910F91FF90EF909B
:1012B0000895CF92DF92EF92FF920F931F936C01EC
:1012C0007B019A0100E010E0B801A7010E943909F2
:1012D0008C01C6010E949308080F191FC8011F91B5
:1012E0000F91FF90EF90DF90CF900895EF92FF92D3
:1012F0000F931F939A01E62EFF2400E010E0B8013F
:10130000A7010E9439091F910F91FF90EF90089556
:10131000CF92DF92EF92FF920F931F936C01E62E14
:101320009A01FF2400E010E0B801A7010E943909EA
:101330008C01C6010E949308080F191FC8011F9154
:101340000F91FF90EF90DF90CF900895CF93DF93B0
:10135000EC016115710599F0DB010D900020E9F7B2
:101360001197A61BB70BE881F9810280F381E02D6C
:10137000AD0119959C01C901DF91CF91089520E03D
:1013800030E0C901DF91CF9108950F931F93CF9360
:10139000DF93EC0161157105D9F0DB010D900020A0
:1013A000E9F71197A61BB70BE881F9810280F38159
:1013B000E02DAD0119958C01CE010E949308980192
:1013C000280F391FC901DF91CF911F910F91089507
:1013D00000E010E0F1CF1F920F920FB60F92112490
:1013E0002F933F938F939F93AF93BF938091DD058E
:1013F0009091DE05A091DF05B091E0053091E10507
:101400000196A11DB11D232F2D5F2D3720F02D57E3
:101410000196A11DB11D2093E1058093DD059093F8
:10142000DE05A093DF05B093E0058091D90590918A
:10143000DA05A091DB05B091DC050196A11DB11D77
:101440008093D9059093DA05A093DB05B093DC0572
:10145000BF91AF919F918F913F912F910F900FBEB0
:101460000F901F9018959FB7F8942091D90530914F
:10147000DA054091DB055091DC0586B5A89B06C0D6
:101480008F3F21F02F5F3F4F4F4F5F4F9FBF542F34
:10149000432F322F2227280F311D411D511D220FAE
:1014A000331F441F551F220F331F441F551FB901FF
:1014B000CA010895EF92FF920F931F93CF93DF938A
:1014C0007B018C010E94330AE114F104010511052E
:1014D000A9F0EB010E94330A6C1B7D0B685E734020
:1014E000C8F30894E108F10801091109E114F104B5
:1014F0000105110519F0C851DC4FECCFDF91CF91F8
:101500001F910F91FF90EF900895019739F0880F88
:10151000991F880F991F02970197F1F70895789402
:1015200084B5826084BD84B5816084BD85B58260E8
:1015300085BD85B5816085BDEEE6F0E08081816086
:101540008083E1E8F0E01082808182608083808186
:1015500081608083E0E8F0E0808181608083E1EB5E
:10156000F0E0808184608083E0EBF0E08081816046
:101570008083E1E9F0E08081826080838081816006
:101580008083E0E9F0E0808181608083E1EAF0E03F
:10159000808182608083808181608083E0EAF0E0E6
:1015A000808181608083E1E2F1E0808182608083DC
:1015B000808181608083E0E2F1E0808181608083CE
:1015C000EAE7F0E0808184608083808182608083AC
:1015D0008081816080838081806880831092C100D7
:1015E0000895CF93DF93482F50E0CA0188589E4F4B
:1015F000FC0134914E5C5E4FFA0184918823B9F06E
:1016000090E0880F991FFC01EC51FF4FA591B49118
:10161000FC01E250FF4FC591D491662359F062302E
:10162000B9F09FB7F8948C91832B8C939FBFDF9177
:10163000CF9108952FB7F8948C91932F909589238B
:101640008C938881892388832FBFDF91CF91089560
:101650002FB7F8948C91932F909589238C93888140
:10166000832B88832FBFE3CF893009F45EC08A3093
:1016700070F08D3009F45FC08E30D0F0803109F405
:101680006CC0813109F463C08F30C9F10895843092
:1016900009F445C08530B8F08730B9F1883048F595
:1016A0008630A1F78091B0008F778093B0000895C5
:1016B0008B3009F446C08C30B0F08091A0008F7D53
:1016C0008093A0000895823031F1833030F481306E
:1016D000E9F684B58F7784BD0895809180008F7777
:1016E00080938000089580919000877F8093900080
:1016F0000895809190008F77809390000895809155
:1017000020018F778093200108958091B0008F7D14
:101710008093B000089584B58F7D84BD0895809135
:1017200080008F7D809380000895809190008F7D50
:101730008093900008958091A000877F8093A000FF
:1017400008958091A0008F778093A00008958091E4
:101750002001877F809320010895809120018F7D53
:10176000809320010895FF920F931F93F62E482F28
:1017700050E0CA0182549E4FFC012491CA0188584E
:101780009E4FFC0104914E5C5E4FFA0114911123AF
:1017900099F02223D1F4E12FF0E0EE0FFF1FE25089
:1017A000FF4FA591B4919FB7F894FF2049F48C9115
:1017B000009580238C939FBF1F910F91FF900895F8
:1017C0008C91802B8C939FBFF7CF822F0E94340B7C
:1017D000E2CF629FD001739FF001829FE00DF11D67
:1017E000649FE00DF11D929FF00D839FF00D749F9B
:1017F000F00D659FF00D9927729FB00DE11DF91F47
:10180000639FB00DE11DF91FBD01CF0111240895A3
:10181000A1E21A2EAA1BBB1BFD010DC0AA1FBB1FF4
:10182000EE1FFF1FA217B307E407F50720F0A21B66
:10183000B30BE40BF50B661F771F881F991F1A94D3
:1018400069F760957095809590959B01AC01BD01FD
:10185000CF010895EE0FFF1F0590F491E02D19942C
:04186000F894FFCF2A
:10186400446174612072656365697665643A204FEA
:101874004B004572726F723A2052656365697665F2
:1018840072205048592068656164657220457272FF
:101894006F72004572726F723A20526563656976A1
:1018A4006572204F76657272756E004461746120B2
:1018B40073656E743A204F4B004572726F723A2012
:1018C4005472616E736D6974204275666665722028
:1018D4004572726F72004555493A20002E000A0085
:1018E4004465766963653A2000205665722E2000AF
:1018F40053686F72742041646472657373202D2081
:101904000000000000E10667087806AA068906D4EC
:021914000600CB
:00000001FF
