:100000000C9462000C948A000C948A000C948A0070
:100010000C948A000C948A000C948A000C948A0038
:100020000C948A000C948A000C948A000C948A0028
:100030000C948A000C948A000C948A000C948A0018
:100040000C949B060C948A000C942F030C947D0353
:100050000C948A000C948A000C948A000C948A00F8
:100060000C948A000C948A000000000024002700F1
:100070002A0000000000250028002B0000000000DE
:1000800023002600290004040404040404040202DA
:100090000202020203030303030301020408102007
:1000A0004080010204081020010204081020000012
:1000B0000007000201000003040600000000000029
:1000C0000000E90411241FBECFEFD8E0DEBFCDBF92
:1000D00011E0A0E0B1E0E4EAF0E102C005900D9289
:1000E000A43CB107D9F712E0A4ECB1E001C01D9225
:1000F000A63FB107E1F710E0C4ECD0E004C02297BE
:10010000FE010E944C08C23CD107C9F70E943F057E
:100110000C9450080C9400001F93CF93DF93182F7A
:10012000EB0160387105C8F48AE060E00E94D607F0
:10013000812F90E0805C9F4F8EBD0DB407FEFDCFF8
:100140008EB5CF77D070CEBD0DB407FEFDCF8EB586
:100150001EBC0DB407FEFDCF2FC0CB0180589040D0
:1001600080589F4710F010E02CC08AE060E00E94A9
:10017000D607812F90E0805C9F4F8EBD0DB407FEA7
:10018000FDCF8EB5CE018F77907080589F4F8EBD7A
:100190000DB407FEFDCF8EB5C078DF77CC0FCD2F25
:1001A000CC1FDD0BD195CEBD0DB407FEFDCF8EB5B6
:1001B0001EBC0DB407FEFDCF1EB58AE061E00E94B3
:1001C000D607812FDF91CF911F910895EF92FF9273
:1001D0000F931F93082F83E0602F70E00E948C0024
:1001E000E82EFF2410E00F5F1F4F83E0B8010E944C
:1001F0008C00382F20E02E0D3F1DC9011F910F915B
:10020000FF90EF9008950F931F93CF93DF93182FD4
:10021000EB01042F60387105C8F48AE060E00E94A9
:10022000D607812F90E080549F4F8EBD0DB407FEFE
:10023000FDCF8EB5CF77D070CEBD0DB407FEFDCF0C
:100240008EB50EBD0DB407FEFDCF2DC0CB0180587D
:10025000904080589F4760F58AE060E00E94D60792
:10026000812F90E080549F4F8EBD0DB407FEFDCFCF
:100270008EB5CE018F77907080589F4F8EBD0DB494
:1002800007FEFDCF8EB5C078DF77CC0FCD2FCC1F0A
:10029000DD0BD195CEBD0DB407FEFDCF8EB50EBDE5
:1002A0000DB407FEFDCF8EB58AE061E00E94D6074F
:1002B000DF91CF911F910F910895EF92FF920F93CD
:1002C0001F93CF93DF937C018DE060E070E040E40A
:1002D0000E9403018DE061E070E00E948C00482FD5
:1002E0004E7F4F5F8DE061E070E00E9403018FE080
:1002F00061E070E00E948C00182F8FE062E070E0F7
:100300000E948C0015FF05C08BEC92E060E071E06C
:100310000DC014FF05C08BEC92E062E171E006C0F5
:1003200084FFE5CF8BEC92E063E371E00E948806E6
:100330008DE060E070E040E40E94030180E160E055
:1003400070E00E948C008F77C0E0D0E0082F10E0B2
:1003500009C081E1BE010E948C00F701EC0FFD1F76
:1003600080832196C017D107A4F3DF91CF911F910D
:100370000F91FF90EF900895EF92FF920F931F93CC
:10038000CF93DF937C018B018DE060E070E040E46F
:100390000E940301C0E0D0E009C0F701EC0FFD1F8F
:1003A00089E0BE0140810E9403012196C017D10758
:1003B000A4F3402F4E5F88E060E070E00E940301EC
:1003C0008DE060E070E042E00E9403018FE060E0B9
:1003D00070E00E948C0087FF05C08BEC92E06BE41C
:1003E00071E00BC08FE063E070E00E948C0084FF3E
:1003F000EDCF8BEC92E069E571E00E9488068FE01A
:1004000060E070E04EEF0E9403018DE060E070E07C
:1004100040E40E940301DF91CF911F910F91FF9063
:10042000EF9008950F931F93082F462F83E0602FBE
:1004300070E00E94030110E00F5F1F4F83E0B801DE
:1004400040E00E9403011F910F910895CF92DF9227
:10045000EF92FF920F931F9380E063E070E00E94A1
:100460008C00E82E80E062E070E00E948C00F82EA4
:1004700080E061E070E00E948C00D82E80E060E0B7
:1004800070E00E948C00C82E0BEC12E0C8016EE7F1
:1004900071E00E9485067E2D60E06F0D711DC80120
:1004A00040E150E00E942706C80167E871E00E9421
:1004B0008506C8016D2D40E150E00E945506C80137
:1004C0006CE771E00E948506C8016C2D40E150E0A8
:1004D0000E9467061F910F91FF90EF90DF90CF90E1
:1004E0000895CF93DF9384EC91E00E945D018BEC43
:1004F00092E06EE871E00E948506C4ECD1E08BECDE
:1005000092E0699140E150E00E94550681E0CB3CC9
:10051000D807A9F78BEC92E06EE971E00E9488069B
:10052000FE01339780818F5F808368EE73E080E007
:1005300090E00E940907CE01079767E070E00E94F3
:10054000BC018BEC92E060EA71E00E948806DF91CA
:10055000CF9108950F931F930BEC12E0C80140E870
:1005600055E260E070E00E94B8038CE060E00E9419
:100570006A078BE061E00E946A078DE061E00E94FB
:100580006A078AE061E00E946A078AE061E00E94EF
:10059000D60780E00E94010385E00E94060381E007
:1005A0000E94F8020E9417038DE267E070E040E8C5
:1005B0000E94030180E06BE070E00E9412020E9442
:1005C0002602C80162EA71E00E94850680E00E946E
:1005D000E600BC01C80140E150E00E9438068DE011
:1005E00060E070E040E40E9403011F910F910895C4
:1005F000882319F48CB5806202C08CB58F7D8CBDC8
:1006000008959CB5937F982B9CBD08952CB5382FE9
:1006100033702C7F322B3CBD2DB590E0959587959E
:100620009595879581702E7F822B8DBD08958AE0E8
:1006300061E00E94D6078AE061E00E946A078CB5FB
:1006400080618CBD8CB580648CBD8DE061E00E94C2
:100650006A078BE061E00E946A07089508951F927F
:100660000F920FB60F9211242F933F934F938F93B6
:100670009F93EF93FF938091C00082FD1DC0409136
:10068000C60020918302309184022F5F3F4F2F7369
:10069000307080918502909186022817390771F099
:1006A000E0918302F0918402ED5BFD4F4083309333
:1006B00084022093830202C08091C600FF91EF91D3
:1006C0009F918F914F913F912F910F900FBE0F905F
:1006D0001F901895E091D702F091D802E05CFF4F8F
:1006E0008191919120813181821B930B8F73907046
:1006F000892B11F00E942E0308951F920F920FB6BE
:100700000F9211242F933F938F939F93EF93FF9317
:100710002091C7023091C8028091C9029091CA020B
:100720002817390731F48091C1008F7D8093C10073
:1007300014C0E091C902F091CA02E957FD4F20812F
:100740008091C9029091CA0201968F739070909324
:10075000CA028093C9022093C600FF91EF919F9136
:100760008F913F912F910F900FBE0F901F90189572
:10077000AF92BF92DF92EF92FF920F931F93CF93AE
:10078000DF93EC017A018B01DD24403081EE5807C4
:1007900080E0680780E0780711F0DD24D39491E0D1
:1007A000A92EB12CEC89FD89DD2069F0C50108A0D6
:1007B00002C0880F991F0A94E2F7808360E079E015
:1007C0008DE390E005C0108260E874E88EE190E06F
:1007D000A80197010E942808215030404040504015
:1007E000569547953795279580E12030380720F0BA
:1007F000DD2011F0DD24D6CFE889F9893083EA893C
:10080000FB89208319A2EE89FF89408121E030E035
:10081000C9010C8C02C0880F991F0A94E2F7482B7B
:100820004083EE89FF894081C9010D8C02C0880F89
:10083000991F0A94E2F7482B4083EE89FF89408193
:10084000C9010E8C02C0880F991F0A94E2F7482B49
:100850004083EE89FF8980810F8C02C0220F331FF5
:100860000A94E2F7209528232083DF91CF911F91EE
:100870000F91FF90EF90DF90BF90AF900895DC0153
:100880001C96ED91FC911D97E05CFF4F21913191F9
:1008900080819181281B390B2F733070C901089515
:1008A000DC011C96ED91FC911D97E05CFF4F2081CF
:1008B0003181E054F040DF01AE5BBF4F8D919C91E0
:1008C00011972817390719F42FEF3FEF07C08D91C3
:1008D0009C91E80FF91F8081282F30E0C90108950D
:1008E000DC011C96ED91FC911D97E05CFF4F20818F
:1008F0003181E054F040DF01AE5BBF4F8D919C91A0
:1009000011972817390719F42FEF3FEF10C08D9179
:100910009C911197E80FF91F20818D919C9111975F
:1009200001968F73907011969C938E9330E0C9015D
:100930000895DC0191968C919197882339F0549613
:10094000ED91FC915597808186FFF9CF91961C928D
:100950000895CF93DF93EC01EE85FF85E05CFF4FB8
:1009600020813181E054F0402F5F3F4F2F73307072
:10097000DF01AE5BBF4F8D919C911197281739070E
:10098000D1F3E05CFF4F80819181E054F040E80FAB
:10099000F91F6083EE85FF85E05CFF4F3183208384
:1009A000EE89FF89208181E090E00F8C02C0880FE2
:1009B000991F0A94E2F7282B208381E089A3EC8910
:1009C000FD8980818064808381E090E0DF91CF9118
:1009D00008951092CE021092CD0288EE93E0A0E02E
:1009E000B0E08093CF029093D002A093D102B09355
:1009F000D20287EB91E09093CC028093CB0283E408
:100A000092E09093D8028093D70287E892E0909387
:100A1000DA028093D90285EC90E09093DC02809317
:100A2000DB0284EC90E09093DE028093DD0280ECA8
:100A300090E09093E0028093DF0281EC90E090934D
:100A4000E2028093E10282EC90E09093E4028093D2
:100A5000E30286EC90E09093E6028093E50284E066
:100A60008093E70283E08093E80287E08093E902C5
:100A700085E08093EA0281E08093EB020895CF93B2
:100A8000DF930E942F070E94AA02CAE6D3E00E94C9
:100A900071022097E1F30E946A03F9CFCF92DF92AF
:100AA000EF92FF920F931F93CF93DF937C016B0123
:100AB0008A01C0E0D0E00FC0D6016D916D01D70171
:100AC000ED91FC910190F081E02DC7010995C80FCF
:100AD000D91F015010400115110571F7CE01DF91AA
:100AE000CF911F910F91FF90EF90DF90CF900895DD
:100AF000EF92FF920F931F938C01DC01ED91FC911B
:100B00000190F081E02D6DE009957C01D801ED9117
:100B1000FC910190F081E02DC8016AE009959C01EB
:100B20002E0D3F1DC9011F910F91FF90EF90089569
:100B3000CF93DF93EC016115710519F420E030E0EB
:100B40000FC0DB010D900020E9F71197A61BB70B32
:100B5000E881F9810280F381E02DAD0109959C01C6
:100B6000C901DF91CF9108954F925F927F928F924A
:100B70009F92AF92BF92CF92DF92EF92FF920F932C
:100B80001F93DF93CF93CDB7DEB7A1970FB6F8943D
:100B9000DEBF0FBECDBF2C01742ECB01223008F476
:100BA0002AE019A231E2C32ED12CCC0EDD1E822EFA
:100BB0009924AA24BB24672D752FA50194010E94B6
:100BC000280879018A01C801B701A50194010E9492
:100BD0000908472D461B0894C108D1084A3014F46F
:100BE000405D01C0495CF6014083E114F104010558
:100BF000110521F07E2C5F2DC801DDCFC201B601A9
:100C00000E949805A1960FB6F894DEBF0FBECDBF27
:100C1000CF91DF911F910F91FF90EF90DF90CF90D8
:100C2000BF90AF909F908F907F905F904F9008956E
:100C3000DC012115310541F4ED91FC910190F08129
:100C4000E02D642F099508950E94B4050895EF9250
:100C5000FF920F931F939A017B0100E010E0B8010F
:100C6000A7010E9418061F910F91FF90EF90089521
:100C7000CF92DF92EF92FF920F931F936C017B0153
:100C80009A0100E010E0B801A7010E9418068C014B
:100C9000C6010E947805080F191FC8011F910F9106
:100CA000FF90EF90DF90CF900895EF92FF920F9317
:100CB0001F939A01E62EFF2400E010E0B801A7017F
:100CC0000E9418061F910F91FF90EF900895CF9208
:100CD000DF92EF92FF920F931F936C01E62E9A0121
:100CE000FF2400E010E0B801A7010E9418068C0163
:100CF000C6010E947805080F191FC8011F910F91A6
:100D0000FF90EF90DF90CF9008950E94980508958E
:100D1000EF92FF920F931F937C010E9498058C0124
:100D2000C7010E947805080F191FC8011F910F9174
:100D3000FF90EF9008951F920F920FB60F9211241B
:100D40002F933F938F939F93AF93BF938091F10223
:100D50009091F202A091F302B091F4023091F50269
:100D60000196A11DB11D232F2D5F2D3720F02D578A
:100D70000196A11DB11D2093F5028093F10290937D
:100D8000F202A093F302B093F4028091ED029091ED
:100D9000EE02A091EF02B091F0020196A11DB11DEB
:100DA0008093ED029093EE02A093EF02B093F002D5
:100DB000BF91AF919F918F913F912F910F900FBE57
:100DC0000F901F9018959FB7F8942091ED023091E5
:100DD000EE024091EF025091F00286B5A89B06C04A
:100DE0008F3F21F02F5F3F4F4F4F5F4F9FBF542FDB
:100DF000432F322F2227280F311D411D511D82E024
:100E0000220F331F441F551F8A95D1F7B901CA011C
:100E10000895EF92FF920F931F93CF93DF937B017F
:100E20008C010E94E306EB010EC00E94E3066C1BDE
:100E30007D0B685E7340C8F30894E108F10801096E
:100E40001109C851DC4FE114F1040105110569F7DE
:100E5000DF91CF911F910F91FF90EF9008957894BB
:100E600084B5826084BD84B5816084BD85B58260AF
:100E700085BD85B5816085BDEEE6F0E0808181604D
:100E80008083E1E8F0E0108280818260808380814D
:100E900081608083E0E8F0E0808181608083E1EB25
:100EA000F0E0808184608083E0EBF0E0808181600D
:100EB0008083EAE7F0E080818460808380818260C3
:100EC00080838081816080838081806880831092AC
:100ED000C1000895CF93DF93482F50E0CA01865692
:100EE0009F4FFC0134914A575F4FFA018491882348
:100EF00069F190E0880F991FFC01E859FF4FA59117
:100F0000B491FC01EE58FF4FC591D491662351F482
:100F10002FB7F8948C91932F909589238C93888187
:100F200089230BC0623061F42FB7F8948C91932F12
:100F3000909589238C938881832B88832FBF06C04B
:100F40009FB7F8948C91832B8C939FBFDF91CF91A7
:100F50000895833071F0843028F48130A1F082301C
:100F600021F514C08630B1F08730D1F08430E9F437
:100F700004C0809180008F7703C0809180008F7DB6
:100F800080938000089584B58F7702C084B58F7DEB
:100F900084BD08958091B0008F778093B00008954C
:100FA0008091B0008F7D8093B0000895FF920F93E1
:100FB0001F93F62E482F50E0CA0182559F4FFC0127
:100FC0002491CA0186569F4FFC0114914A575F4FE6
:100FD000FA0104910023C9F0222319F0822F0E9404
:100FE000A907E02FF0E0EE0FFF1FEE58FF4FA5918D
:100FF000B4919FB7F894FF2021F48C911095812330
:1010000002C08C91812B8C939FBF1F910F91FF90F9
:101010000895629FD001739FF001829FE00DF11D42
:10102000649FE00DF11D929FF00D839FF00D749F62
:10103000F00D659FF00D9927729FB00DE11DF91F0E
:10104000639FB00DE11DF91FBD01CF01112408956B
:10105000A1E21A2EAA1BBB1BFD010DC0AA1FBB1FBC
:10106000EE1FFF1FA217B307E407F50720F0A21B2E
:10107000B30BE40BF50B661F771F881F991F1A949B
:1010800069F760957095809590959B01AC01BD01C5
:10109000CF010895EE0FFF1F0590F491E02D099404
:0410A000F894FFCFF2
:1010A400446174612072656365697665643A204FB2
:1010B4004B004572726F723A2052656365697665BA
:1010C40072205048592068656164657220457272C7
:1010D4006F72004572726F723A2052656365697669
:1010E4006572204F76657272756E0044617461207A
:1010F40073656E743A204F4B004572726F723A20DA
:101104005472616E736D69742042756666657220EF
:101114004572726F72004555493A20002E004465AD
:10112400766963653A2000205665722E200044617A
:10113400746F20726563696269646F3A20002000ED
:101144000A0053686F72742041646472657373207B
:101154002D200000000000A9044E053F0470045037
:0411640004990400E6
:00000001FF
