:100000000C9403010C9430010C9430010C943001D9
:100010000C9430010C9430010C9430010C9430019C
:100020000C9430010C9430010C9430010C9430018C
:100030000C9430010C9430010C9430010C9430017C
:100040000C9430010C9430010C9430010C9430016C
:100050000C9430010C9430010C9430010C9466091E
:100060000C9430010C9439030C9485040C943001E9
:100070000C9430010C9430010C9430010C9430013C
:100080000C9430010C9430010C9430010C9430012C
:100090000C9479030C94C4040C9430010C9430013A
:1000A0000C9430010C9430010C9430010C9430010C
:1000B0000C9430010C9430010C9430010C943001FC
:1000C0000C9430010C9430010C9430010C94B90361
:1000D0000C9403050C9430010C94F9030C94420524
:1000E0000C94300100002100240027002A002D007C
:1000F0003000330001010000040107010A01000083
:100100002200250028002B002E00310034000201BF
:100110000000050108010B0100002000230026005B
:1001200029002C002F00320000010000030106010D
:10013000090105050505070508080808020202026D
:100140000A0A080804040404010101010101010173
:100150000303030303030303040707070C0C0C0C3E
:100160000C0C0C0C02020202060606060606060627
:100170000B0B0B0B0B0B0B0B0102102020080810B4
:100180002040102040800201020108040201010207
:1001900004081020408080402010080402018004E0
:1001A000020180402010080402010804020101023B
:1001B0000408102040800102040810204080000044
:1001C000090A02080B0C0D070603040100000000D9
:1001D000000000000000000000000000000000001F
:1001E0000000000000000000000011100F000000DF
:1001F00000000000000000000000000000000000FF
:1002000000000000B50611241FBECFEFD1E2DEBF13
:10021000CDBF00E00CBF12E0A0E0B2E0E6E4F7E101
:1002200000E00BBF02C007900D92A835B107D9F7C7
:100230001BBE15E0A8E5B2E001C01D92A930B107D0
:10024000E1F712E0C6E0D2E004C02297FE010E946E
:100250009D0BC430D107C9F70E94EB070C94A10B8A
:100260000C9400000F931F93CF93DF938C01EB014D
:1002700060387105E8F1CB018058904080589F4765
:1002800038F010E0812FDF91CF911F910F910895E9
:1002900085E360E00E94240B005C1F4F0EBD0DB48F
:1002A00007FEFDCF8EB5CE018F77907080589F4F9F
:1002B0008EBD0DB407FEFDCF8EB5C078DF77CC0FB5
:1002C000CD2FCC1FDD0BD195CEBD0DB407FEFDCFDC
:1002D0008EB51EBC0DB407FEFDCF1EB585E361E0F3
:1002E0000E94240B812FDF91CF911F910F910895D0
:1002F00085E360E00E94240B005C1F4F0EBD0DB42F
:1003000007FEFDCF8EB5CF77D070CEBD0DB407FE02
:10031000FDCF8EB51EBC0DB407FEFDCF1EB585E327
:1003200061E00E94240BDECFFF920F931F93CF93C7
:10033000DF938C01EB01F42E60387105E0F1CB0105
:100340008058904080589F4730F0DF91CF911F91A7
:100350000F91FF90089585E360E00E94240B005404
:100360001F4F0EBD0DB407FEFDCF8EB5CE018F77AA
:10037000907080589F4F8EBD0DB407FEFDCF8EB597
:10038000C078DF77CC0FCD2FCC1FDD0BD195CEBD44
:100390000DB407FEFDCF8EB5FEBC0DB407FEFDCF3C
:1003A0008EB585E361E00E94240BDF91CF911F9110
:1003B0000F91FF90089585E360E00E94240B0054A4
:1003C0001F4F0EBD0DB407FEFDCF8EB5CF77D07099
:1003D000CEBD0DB407FEFDCF8EB5FEBC0DB407FE3D
:1003E000FDCF8EB585E361E00E94240BDECFCF9375
:1003F000DF9388E794E060E072E00E942109C0E0AA
:10040000D0E081E090E0BE010E943201482F50E030
:1004100060E070E088E794E02AE030E00E94D108D4
:1004200088E794E066E072E00E9421092196C830D6
:10043000D10539F788E794E066E072E00E94400950
:10044000DF91CF910895CF92DF92EF92FF920F93B9
:100450001F9380E090E063E070E00E943201E82E9C
:1004600080E090E062E070E00E943201F82E80E0CF
:1004700090E061E070E00E943201D82E80E090E0D0
:1004800060E070E00E943201C82E08E714E0C80165
:1004900068E072E00E9421097E2D60E06F0D711D01
:1004A000C80140E150E00E94E008C80161E172E04B
:1004B0000E942109C8016D2D40E150E00E94F10821
:1004C000C80166E072E00E942109C8016C2D40E17C
:1004D00050E00E9403091F910F91FF90EF90DF9071
:1004E000CF9008950F931F93CF93DF938DE090E00B
:1004F00061E070E00E943201482F4F5F8DE090E094
:1005000061E070E050E00E9494018FE090E061E0D3
:1005100070E00E94320185FFF8CF80E190E060E05A
:1005200070E00E943201182F1F7788E794E068E19D
:1005300072E00E94210988E794E0612F4AE050E0D0
:100540000E94030988E794E066E372E00E942109B3
:10055000012F10E001151105B9F0C0E0D0E081E1F4
:1005600090E0BE010E94320181E190E0BE010E9454
:100570003201682F88E794E040E150E00E94F108E2
:100580002196C017D1075CF388E794E066E472E037
:100590000E94400968EE73E080E090E00E94D50977
:1005A000DF91CF911F910F91089588E794E040E883
:1005B00055E260E070E00E94810582E360E00E9405
:1005C000620A83E361E00E94620A84E361E00E94C0
:1005D000620A85E361E00E94620A85E361E00E94AD
:1005E000240B80E00E940B0385E00E94100381E051
:1005F0000E9401030E9421030E9423020E94F7012E
:100600000895882321F08CB58F7D8CBD08958CB51D
:1006100080628CBD08959CB5937F982B9CBD0895F6
:100620002CB5382F33702C7F322B3CBD2DB590E08C
:10063000959587959595879581702E7F822B8DBD99
:10064000089585E361E00E94240B85E361E00E9448
:10065000620A8CB580618CBD8CB580648CBD84E3EE
:1006600061E00E94620A83E361E00E94620A0895E9
:1006700008951F920F920FB60F920BB60F9211248E
:100680002F933F934F938F939F93EF93FF9380917B
:10069000C00082FD2AC04091C6002091980230918E
:1006A00099022F5F3F4F2F73307080919A02909183
:1006B0009B022817390759F0E0919802F0919902AE
:1006C000E85AFD4F40833093990220939802FF919E
:1006D000EF919F918F914F913F912F910F900BBE72
:1006E0000F900FBE0F901F9018958091C600EFCF0E
:1006F00008951F920F920FB60F920BB60F9211240E
:100700002F933F934F938F939F93EF93FF938091FA
:10071000C80082FD2AC04091CE0020912003309174
:1007200021032F5F3F4F2F733070809122039091F0
:1007300023032817390759F0E0912003F091210392
:10074000E052FD4F40833093210320932003FF911B
:10075000EF919F918F914F913F912F910F900BBEF1
:100760000F900FBE0F901F9018958091CE00EFCF85
:1007700008951F920F920FB60F920BB60F9211248D
:100780002F933F934F938F939F93EF93FF9380917A
:10079000D00082FD2AC04091D6002091A80330915C
:1007A000A9032F5F3F4F2F7330708091AA03909160
:1007B000AB032817390759F0E091A803F091A9037A
:1007C000E859FC4F40833093A9032093A803FF917D
:1007D000EF919F918F914F913F912F910F900BBE71
:1007E0000F900FBE0F901F9018958091D600EFCFFD
:1007F00008951F920F920FB60F920BB60F9211240D
:100800002F933F934F938F939F93EF93FF938091F9
:10081000300182FD2AC04091360120913004309190
:1008200031042F5F3F4F2F733070809132049091CD
:1008300033042817390759F0E0913004F09131045E
:10084000E051FC4F40833093310420933004FF91FA
:10085000EF919F918F914F913F912F910F900BBEF0
:100860000F900FBE0F901F90189580913601EFCF1B
:10087000E0918404F0918504E05CFF4F81919191B7
:1008800020813181821B930B8F739070892BD1F55E
:10089000E091A604F091A704E05CFF4F8191919153
:1008A00020813181821B930B8F739070892B39F5D6
:1008B000E091C804F091C904E05CFF4F81919191EF
:1008C00020813181821B930B8F739070892BA1F44F
:1008D000E091EA04F091EB04E05CFF4F819191918B
:1008E00020813181821B930B8F739070892B09F4C7
:1008F00008950E94F80308950E94B803E9CF0E946A
:100900007803D6CF0E943803C3CF1F920F920FB641
:100910000F920BB60F9211242F933F938F939F93B7
:10092000EF93FF932091DC023091DD028091DE0293
:100930009091DF022817390709F1E091DE02F0916A
:10094000DF02E456FD4F20818091DE029091DF02AC
:1009500001968F7390709093DF028093DE02209354
:10096000C600FF91EF919F918F913F912F910F9032
:100970000BBE0F900FBE0F901F9018958091C10075
:100980008F7D8093C100EDCF1F920F920FB60F9213
:100990000BB60F9211242F933F938F939F93EF9356
:1009A000FF932091640330916503809166039091D9
:1009B00067032817390709F1E0916603F09167038F
:1009C000EC5DFC4F20818091660390916703019656
:1009D0008F73907090936703809366032093CE008B
:1009E000FF91EF919F918F913F912F910F900BBEAF
:1009F0000F900FBE0F901F9018958091C9008F7DAA
:100A00008093C900EDCF1F920F920FB60F920BB6D5
:100A10000F9211242F933F938F939F93EF93FF9304
:100A20002091EC033091ED038091EE039091EF0360
:100A30002817390709F1E091EE03F091EF03E4552F
:100A4000FC4F20818091EE039091EF0301968F730C
:100A500090709093EF038093EE032093D600FF9164
:100A6000EF919F918F913F912F910F900BBE0F901F
:100A70000FBE0F901F9018958091D1008F7D8093AD
:100A8000D100EDCF1F920F920FB60F920BB60F92BF
:100A900011242F933F938F939F93EF93FF93209174
:100AA000740430917504809176049091770428172E
:100AB000390709F1E0917604F0917704EC5CFB4F83
:100AC0002081809176049091770401968F739070C5
:100AD000909377048093760420933601FF91EF91F1
:100AE0009F918F913F912F910F900BBE0F900FBE52
:100AF0000F901F901895809131018F7D8093310167
:100B0000EDCFDF92EF92FF920F931F93CF93DF937E
:100B1000EC017A018B01DD24403081EE580780E042
:100B2000680780E0780721F1DD24D394EC89FD8902
:100B300081E090E008A002C0880F991F0A94E2F7B4
:100B4000808360E079E08DE390E0A80197010E9446
:100B5000790B21503040404050405695479537958D
:100B6000279580E120303807D0F0DD20C1F0DD246A
:100B7000EC89FD89108260E874E88EE190E0A801BC
:100B800097010E94790B21503040404050405695CB
:100B900047953795279580E12030380730F7E88969
:100BA000F9893083EA89FB89208319A2EE89FF89BC
:100BB000408121E030E0C9010C8C02C0880F991FF0
:100BC0000A94E2F7482B4083EE89FF894081C901EE
:100BD0000D8C02C0880F991F0A94E2F7482B4083BE
:100BE000EE89FF894081C9010E8C02C0880F991FD0
:100BF0000A94E2F7482B4083EE89FF8980810F8CAD
:100C000002C0220F331F0A94E2F720952823208385
:100C1000DF91CF911F910F91FF90EF90DF9008959A
:100C2000DC011C96ED91FC911D97E05CFF4F21913A
:100C3000319180819181281B390B2F733070C9014C
:100C40000895DC011C96ED91FC911D97E05CFF4F2F
:100C500020813181E054F040DF01AE5BBF4F8D91C8
:100C60009C9111972817390749F08D919C91E80FB5
:100C7000F91F8081282F30E0C90108952FEF3FEF41
:100C8000C9010895DC011C96ED91FC911D97E05C73
:100C9000FF4F20813181E054F040DF01AE5BBF4F58
:100CA0008D919C9111972817390791F08D919C9106
:100CB0001197E80FF91F20818D919C911197019652
:100CC0008F73907011969C938E9330E0C9010895B4
:100CD0002FEF3FEFC9010895FC0181A1882311F492
:100CE00011A20895A489B5898C9186FFFDCF11A228
:100CF0000895CF93DF93EC01AE85BF85AD01405CD5
:100D00005F4FFA01208131812F5F3F4F2F73307089
:100D1000FD01EE5BFF4F8081918128173907D9F3E0
:100D2000FA0180819181A80FB91F6C93EE85FF8530
:100D3000E05CFF4F31832083EE89FF89208181E0D1
:100D400090E00F8C02C0880F991F0A94E2F7282BBD
:100D5000208381E089A3EC89FD8980818064808380
:100D600081E090E0DF91CF9108951F9310927B0472
:100D700010927A0428EE33E040E050E020937C04A7
:100D800030937D0440937E0450937F046CE472E0C2
:100D9000709379046093780488E592E090938504D9
:100DA000809384048CE992E0909387048093860476
:100DB00085EC90E0909389048093880484EC90E023
:100DC00090938B0480938A0480EC90E090938D0440
:100DD00080938C0481EC90E090938F0480938E0438
:100DE00082EC90E0909391048093900486EC90E0E4
:100DF000909393048093920414E010939404B3E0CE
:100E0000B0939504A7E0A0939604F5E0F0939704BF
:100E1000E1E0E093980410929D0410929C042093CA
:100E20009E0430939F044093A0045093A1047093B8
:100E30009B0460939A0480EE92E09093A7048093C1
:100E4000A60484E293E09093A9048093A8048DEC17
:100E500090E09093AB048093AA048CEC90E0909384
:100E6000AD048093AC0488EC90E09093AF04809341
:100E7000AE0489EC90E09093B1048093B0048AECC6
:100E800090E09093B3048093B2048EEC90E0909342
:100E9000B5048093B4041093B604B093B704A09340
:100EA000B804F093B904E093BA041092BF0410920E
:100EB000BE042093C0043093C1044093C2045093F5
:100EC000C3047093BD046093BC0488E693E09093E0
:100ED000C9048093C8048CEA93E09093CB04809378
:100EE000CA0485ED90E09093CD048093CC0484ED0A
:100EF00090E09093CF048093CE0480ED90E09093A7
:100F0000D1048093D00481ED90E09093D30480933A
:100F1000D20482ED90E09093D5048093D40486EDC2
:100F200090E09093D7048093D6041093D804B093A4
:100F3000D904A093DA04F093DB04E093DC0410926C
:100F4000E1041092E0042093E2043093E304409320
:100F5000E4045093E5047093DF046093DE0480EFB3
:100F600093E09093EB048093EA0484E394E09093FD
:100F7000ED048093EC0485E391E09093EF0480937B
:100F8000EE0484E391E09093F1048093F00480E315
:100F900091E09093F3048093F20481E391E09093C5
:100FA000F5048093F40482E391E09093F704809336
:100FB000F60486E391E09093F9048093F80410938B
:100FC000FA04B093FB04A093FC04F093FD04E093B7
:100FD000FE041F9108950E94000A0E94D5020E94FB
:100FE000720288E394E0892B29F00E9438040E9461
:100FF0007202FBCF0E9472020E947202FBCFCF925C
:10100000DF92EF92FF920F931F93CF93DF937C01B8
:101010006B01EA0141155105D9F000E010E0D6015D
:101020006D916D01D701ED91FC910190F081E02D62
:10103000C7011995080F191F219789F7C801DF917A
:10104000CF911F910F91FF90EF90DF90CF90089577
:1010500000E010E0F3CFEF92FF920F931F938C010B
:10106000DC01ED91FC910190F081E02D6DE019958E
:101070007C01D801ED91FC910190F081E02DC80137
:101080006AE019959C012E0D3F1DC9011F910F911A
:10109000FF90EF9008954F925F927F928F929F9270
:1010A000AF92BF92CF92DF92EF92FF920F931F9376
:1010B000DF93CF93CDB7DEB7A1970FB6F894DEBF1D
:1010C0000FBECDBF2C01742ECB01223008F460C0BE
:1010D000822E9924AA24BB2419A221E2C22ED12C4B
:1010E000CC0EDD1E0BC0405DF6014083E114F1041F
:1010F0000105110501F17E2C5F2DC801672D752FAB
:10110000A50194010E94790B79018A01C801B701F8
:10111000A50194010E945A0B472D461B0894C10853
:10112000D1084A3004F3495CF6014083E114F1042C
:101130000105110501F7C114D10481F1D6010D900B
:101140000020E9F71197AC19BD09F2018081918166
:10115000FC0122813381C201B601AD01F90119956B
:101160009C01C901A1960FB6F894DEBF0FBECDBF9A
:10117000CF91DF911F910F91FF90EF90DF90CF9073
:10118000BF90AF909F908F907F905F904F90089509
:101190003AE0832E912CA12CB12C9ECF20E030E0A0
:1011A000E0CFDC012115310519F00E944B080895AC
:1011B000ED91FC910190F081E02D642F1995089537
:1011C000EF92FF920F931F939A017B0100E010E0D2
:1011D000B801A7010E94D1081F910F91FF90EF90D5
:1011E0000895EF92FF920F931F939A01E62EFF242A
:1011F00000E010E0B801A7010E94D1081F910F91F3
:10120000FF90EF900895CF92DF92EF92FF920F93AD
:101210001F936C01E62E9A01FF2400E010E0B80154
:10122000A7010E94D1088C01C6010E942B08080F5B
:10123000191FC8011F910F91FF90EF90DF90CF9081
:101240000895CF93DF93EC016115710599F0DB01EF
:101250000D900020E9F71197A61BB70BE881F981E3
:101260000280F381E02DAD0119959C01C901DF9148
:10127000CF91089520E030E0C901DF91CF9108952A
:101280000F931F93CF93DF93EC0161157105D9F094
:10129000DB010D900020E9F71197A61BB70BE88141
:1012A000F9810280F381E02DAD0119958C01CE0109
:1012B0000E942B089801280F391FC901DF91CF9197
:1012C0001F910F91089500E010E0F1CF1F920F924F
:1012D0000FB60F9211242F933F938F939F93AF9349
:1012E000BF938091040590910505A0910605B091EA
:1012F0000705309108050196A11DB11D232F2D5F13
:101300002D3720F02D570196A11DB11D2093080502
:101310008093040590930505A0930605B0930705F7
:101320008091000590910105A0910205B0910305FF
:101330000196A11DB11D8093000590930105A09316
:101340000205B0930305BF91AF919F918F913F919B
:101350002F910F900FBE0F901F9018959FB7F89484
:10136000209100053091010540910205509103053F
:1013700086B5A89B06C08F3F21F02F5F3F4F4F4F90
:101380005F4F9FBF542F432F322F2227280F311D2D
:10139000411D511D220F331F441F551F220F331FA4
:1013A000441F551FB901CA010895EF92FF920F9390
:1013B0001F93CF93DF937B018C010E94AE09E11450
:1013C000F10401051105A9F0EB010E94AE096C1BA7
:1013D0007D0B685E7340C8F30894E108F1080109C9
:1013E0001109E114F1040105110519F0C851DC4F90
:1013F000ECCFDF91CF911F910F91FF90EF90089567
:10140000789484B5826084BD84B5816084BD85B5DF
:10141000826085BD85B5816085BDEEE6F0E08081A6
:1014200081608083E1E8F0E01082808182608083C7
:10143000808181608083E0E8F0E08081816080834A
:10144000E1EBF0E0808184608083E0EBF0E080817C
:1014500081608083E1E9F0E0808182608083808127
:1014600081608083E0E9F0E0808181608083E1EA4F
:10147000F0E0808182608083808181608083E0EA07
:10148000F0E0808181608083E1E2F1E08081826030
:101490008083808181608083E0E2F1E080818160EF
:1014A0008083EAE7F0E080818460808380818260CD
:1014B00080838081816080838081806880831092B6
:1014C000C1000895CF93DF93482F50E0CA01885898
:1014D0009E4FFC0134914E5C5E4FFA01849188234B
:1014E000B9F090E0880F991FFC01EC51FF4FA591D6
:1014F000B491FC01E250FF4FC591D491662359F09D
:101500006230B9F09FB7F8948C91832B8C939FBF76
:10151000DF91CF9108952FB7F8948C91932F9095E8
:1015200089238C938881892388832FBFDF91CF9172
:1015300008952FB7F8948C91932F909589238C93CD
:101540008881832B88832FBFE3CF893009F45EC065
:101550008A3070F08D3009F45FC08E30D0F0803169
:1015600009F46CC0813109F463C08F30C9F108956A
:10157000843009F445C08530B8F08730B9F188303F
:1015800048F58630A1F78091B0008F778093B00046
:1015900008958B3009F446C08C30B0F08091A000E3
:1015A0008F7D8093A0000895823031F1833030F434
:1015B0008130E9F684B58F7784BD089580918000ED
:1015C0008F7780938000089580919000877F80932B
:1015D00090000895809190008F77809390000895F7
:1015E000809120018F778093200108958091B00031
:1015F0008F7D8093B000089584B58F7D84BD08955C
:10160000809180008F7D809380000895809190006C
:101610008F7D8093900008958091A000877F8093B4
:10162000A00008958091A0008F778093A000089576
:1016300080912001877F809320010895809120016F
:101640008F7D809320010895FF920F931F93F62EB4
:10165000482F50E0CA0182549E4FFC012491CA01D8
:1016600088589E4FFC0104914E5C5E4FFA01149124
:10167000112399F02223D1F4E12FF0E0EE0FFF1FA8
:10168000E250FF4FA591B4919FB7F894FF2049F421
:101690008C91009580238C939FBF1F910F91FF9099
:1016A00008958C91802B8C939FBFF7CF822F0E943F
:1016B000A50AE2CF629FD001739FF001829FE00DE7
:1016C000F11D649FE00DF11D929FF00D839FF00DC1
:1016D000749FF00D659FF00D9927729FB00DE11D6D
:1016E000F91F639FB00DE11DF91FBD01CF0111244A
:1016F0000895A1E21A2EAA1BBB1BFD010DC0AA1F53
:10170000BB1FEE1FFF1FA217B307E407F50720F06A
:10171000A21BB30BE40BF50B661F771F881F991FE5
:101720001A9469F760957095809590959B01AC012E
:10173000BD01CF010895EE0FFF1F0590F491E02D3C
:061740001994F894FFCF9C
:101746004555493A20002E004465766963653A207E
:1017560000205665722E2000457874656E73696F99
:101766006E2064656C206461746F207265636962C3
:1017760069646F3A20004461746F20726563696220
:1017860069646F3A20002000000000007906FF0718
:081796001006420621066C0654
:00000001FF
