:100000000C9462000C948A000C948A000C948A0070
:100010000C948A000C948A000C948A000C948A0038
:100020000C948A000C948A000C948A000C948A0028
:100030000C948A000C948A000C948A000C948A0018
:100040000C9451060C948A000C94AF020C94FD029F
:100050000C948A000C948A000C948A000C948A00F8
:100060000C948A000C948A000000000024002700F1
:100070002A0000000000250028002B0000000000DE
:1000800023002600290004040404040404040202DA
:100090000202020203030303030301020408102007
:1000A0004080010204081020010204081020000012
:1000B0000007000201000003040600000000000029
:1000C0000000690411241FBECFEFD8E0DEBFCDBF12
:1000D00011E0A0E0B1E0E0E1F0E102C005900D9296
:1000E000A835B107D9F712E0A8E5B1E001C01D922B
:1000F000A039B107E1F710E0C4ECD0E004C02297CA
:10010000FE010E940208C23CD107C9F70E94BF0449
:100110000C9406080C9400000F931F93CF93DF9369
:100120008C01EB0160387105B8F48AE060E00E9450
:100130008C07005C1F4F0EBD0DB407FEFDCF8EB5C2
:10014000CF77D070CEBD0DB407FEFDCF8EB51EBCEF
:100150000DB407FEFDCF2DC0CB01805890408058D4
:100160009F4710F010E02AC08AE060E00E948C07F0
:10017000005C1F4F0EBD0DB407FEFDCF8EB5CE0146
:100180008F77907080589F4F8EBD0DB407FEFDCFC6
:100190008EB5C078DF77CC0FCD2FCC1FDD0BD1957E
:1001A000CEBD0DB407FEFDCF8EB51EBC0DB407FE4F
:1001B000FDCF1EB58AE061E00E948C07812FDF91A0
:1001C000CF911F910F910895FF920F931F93CF939B
:1001D000DF938C01EB01F42E60387105B8F48AE0EE
:1001E00060E00E948C0700541F4F0EBD0DB407FE47
:1001F000FDCF8EB5CF77D070CEBD0DB407FEFDCF4D
:100200008EB5FEBC0DB407FEFDCF2BC0CB018058D0
:10021000904080589F4750F58AE060E00E948C072C
:1002200000541F4F0EBD0DB407FEFDCF8EB5CE019D
:100230008F77907080589F4F8EBD0DB407FEFDCF15
:100240008EB5C078DF77CC0FCD2FCC1FDD0BD195CD
:10025000CEBD0DB407FEFDCF8EB5FEBC0DB407FEBE
:10026000FDCF8EB58AE061E00E948C07DF91CF91CF
:100270001F910F91FF900895CF93DF9385E692E051
:1002800060E071E00E943B06C0E0D0E081E090E0D9
:10029000BE010E948C00682F85E692E070E04AE083
:1002A00050E00E94280685E692E066E071E00E9438
:1002B0003B062196C830D10549F785E692E066E015
:1002C00071E00E943E06DF91CF910895CF92DF92B8
:1002D000EF92FF920F931F9380E090E063E070E055
:1002E0000E948C00E82E80E090E062E070E00E94C6
:1002F0008C00F82E80E090E061E070E00E948C00BD
:10030000D82E80E090E060E070E00E948C00C82E63
:1003100005E612E0C80168E071E00E943B067E2D10
:1003200060E06F0D711DC80140E150E00E94A7051B
:10033000C80161E171E00E943B06C8016D2D40E1FA
:1003400050E00E94B805C80166E071E00E943B06DB
:10035000C8016C2D40E150E00E94CA051F910F9129
:10036000FF90EF90DF90CF9008951F93CF93DF938E
:100370008DE090E061E070E00E948C00482F4F5FBC
:1003800040935C018DE090E061E070E050E00E94FD
:10039000E40010925B0111E00DC08FE090E061E09D
:1003A00070E00E948C00807280935D01803211F4B5
:1003B00010935B0180915B01882379F38DE090E0DD
:1003C00060E070E00E948C00482F4F7B405C4093BF
:1003D0005C018DE090E060E070E050E00E94E4009D
:1003E00080E190E060E070E00E948C008F77809365
:1003F000580185E692E068E171E00E943B0685E6DF
:1004000092E0609158014AE050E00E94CA0585E6FA
:1004100092E066E371E00E943B0610925A0110924E
:10042000590120C081E190E0BE010E948C00C25AB7
:10043000DE4F88836091590170915A0181E190E00B
:100440000E948C00682F85E692E040E150E00E9417
:10045000B8058091590190915A01019690935A01E3
:1004600080935901C0915901D0915A01809158014E
:1004700090E0C817D907B4F285E692E066E471E02F
:100480000E943E0668EE73E080E090E00E94BF06A6
:10049000DF91CF911F91089585E692E040E855E203
:1004A00060E070E00E9438038CE060E00E9420076A
:1004B0008BE061E00E9420078DE061E00E94200750
:1004C0008AE061E00E9420078AE061E00E948C07D8
:1004D00080E00E94810285E00E94860281E00E9405
:1004E00078020E9497020E9466010E943C010895D2
:1004F000882319F48CB5806202C08CB58F7D8CBDC9
:1005000008959CB5937F982B9CBD08952CB5382FEA
:1005100033702C7F322B3CBD2DB590E0959587959F
:100520009595879581702E7F822B8DBD08958AE0E9
:1005300061E00E948C078AE061E00E9420078CB590
:1005400080618CBD8CB580648CBD8DE061E00E94C3
:1005500020078BE061E00E942007089508951F9214
:100560000F920FB60F9211242F933F934F938F93B7
:100570009F93EF93FF938091C00082FD1DC0409137
:10058000C60020911D0230911E022F5F3F4F2F7336
:10059000307080911F02909120022817390771F066
:1005A000E0911D02F0911E02E352FE4F4083309312
:1005B0001E0220931D0202C08091C600FF91EF91A0
:1005C0009F918F914F913F912F910F900FBE0F9060
:1005D0001F901895E0917102F0917202E05CFF4F5C
:1005E0008191919120813181821B930B8F73907047
:1005F000892B11F00E94AE0208951F920F920FB640
:100600000F9211242F933F938F939F93EF93FF9318
:1006100020916102309162028091630290916402A4
:100620002817390731F48091C1008F7D8093C10074
:1006300014C0E0916302F0916402EF5DFD4F2081F0
:10064000809163029091640201968F7390709093F1
:100650006402809363022093C600FF91EF919F9103
:100660008F913F912F910F900FBE0F901F90189573
:10067000AF92BF92DF92EF92FF920F931F93CF93AF
:10068000DF93EC017A018B01DD24403081EE5807C5
:1006900080E0680780E0780711F0DD24D39491E0D2
:1006A000A92EB12CEC89FD89DD2069F0C50108A0D7
:1006B00002C0880F991F0A94E2F7808360E079E016
:1006C0008DE390E005C0108260E874E88EE190E070
:1006D000A80197010E94DE07215030404040504061
:1006E000569547953795279580E12030380720F0BB
:1006F000DD2011F0DD24D6CFE889F9893083EA893D
:10070000FB89208319A2EE89FF89408121E030E036
:10071000C9010C8C02C0880F991F0A94E2F7482B7C
:100720004083EE89FF894081C9010D8C02C0880F8A
:10073000991F0A94E2F7482B4083EE89FF89408194
:10074000C9010E8C02C0880F991F0A94E2F7482B4A
:100750004083EE89FF8980810F8C02C0220F331FF6
:100760000A94E2F7209528232083DF91CF911F91EF
:100770000F91FF90EF90DF90BF90AF900895DC0154
:100780001C96ED91FC911D97E05CFF4F21913191FA
:1007900080819181281B390B2F733070C901089516
:1007A000DC011C96ED91FC911D97E05CFF4F2081D0
:1007B0003181E054F040DF01AE5BBF4F8D919C91E1
:1007C00011972817390719F42FEF3FEF07C08D91C4
:1007D0009C91E80FF91F8081282F30E0C90108950E
:1007E000DC011C96ED91FC911D97E05CFF4F208190
:1007F0003181E054F040DF01AE5BBF4F8D919C91A1
:1008000011972817390719F42FEF3FEF10C08D917A
:100810009C911197E80FF91F20818D919C91119760
:1008200001968F73907011969C938E9330E0C9015E
:100830000895DC0191968C919197882339F0549614
:10084000ED91FC915597808186FFF9CF91961C928E
:100850000895CF93DF93EC01EE85FF85E05CFF4FB9
:1008600020813181E054F0402F5F3F4F2F73307073
:10087000DF01AE5BBF4F8D919C911197281739070F
:10088000D1F3E05CFF4F80819181E054F040E80FAC
:10089000F91F6083EE85FF85E05CFF4F3183208385
:1008A000EE89FF89208181E090E00F8C02C0880FE3
:1008B000991F0A94E2F7282B208381E089A3EC8911
:1008C000FD8980818064808381E090E0DF91CF9119
:1008D0000895109268021092670288EE93E0A0E0FB
:1008E000B0E08093690290936A02A0936B02B09388
:1008F0006C028CE491E090936602809365028DED2A
:1009000091E0909372028093710281E292E0909361
:1009100074028093730285EC90E09093760280934A
:10092000750284EC90E0909378028093770280ECDB
:1009300090E090937A028093790281EC90E090931A
:100940007C0280937B0282EC90E090937E02809305
:100950007D0286EC90E09093800280937F0284E099
:100960008093810283E08093820287E080938302F8
:1009700085E08093840281E0809385020895CF937F
:10098000DF930E94E5060E944C02CAEED2E00E946C
:10099000B5012097E1F30E94EA02F9CFCF92DF92EE
:1009A000EF92FF920F931F93CF93DF937C016B0124
:1009B0008A01C0E0D0E00FC0D6016D916D01D70172
:1009C000ED91FC910190F081E02DC7010995C80FD0
:1009D000D91F015010400115110571F7CE01DF91AB
:1009E000CF911F910F91FF90EF90DF90CF900895DE
:1009F000EF92FF920F931F938C01DC01ED91FC911C
:100A00000190F081E02D6DE009957C01D801ED9118
:100A1000FC910190F081E02DC8016AE009959C01EC
:100A20002E0D3F1DC9011F910F91FF90EF9008956A
:100A3000CF93DF93EC016115710519F420E030E0EC
:100A40000FC0DB010D900020E9F71197A61BB70B33
:100A5000E881F9810280F381E02DAD0109959C01C7
:100A6000C901DF91CF9108954F925F927F928F924B
:100A70009F92AF92BF92CF92DF92EF92FF920F932D
:100A80001F93DF93CF93CDB7DEB7A1970FB6F8943E
:100A9000DEBF0FBECDBF2C01742ECB01223008F477
:100AA0002AE019A231E2C32ED12CCC0EDD1E822EFB
:100AB0009924AA24BB24672D752FA50194010E94B7
:100AC000DE0779018A01C801B701A50194010E94DE
:100AD000BF07472D461B0894C108D1084A3014F4BB
:100AE000405D01C0495CF6014083E114F104010559
:100AF000110521F07E2C5F2DC801DDCFC201B601AA
:100B00000E941805A1960FB6F894DEBF0FBECDBFA8
:100B1000CF91DF911F910F91FF90EF90DF90CF90D9
:100B2000BF90AF909F908F907F905F904F9008956F
:100B3000DC012115310541F4ED91FC910190F0812A
:100B4000E02D642F099508950E9434050895EF92D1
:100B5000FF920F931F939A017B0100E010E0B80110
:100B6000A7010E9498051F910F91FF90EF900895A3
:100B7000EF92FF920F931F939A01E62EFF2400E05D
:100B800010E0B801A7010E9498051F910F91FF90F6
:100B9000EF900895CF92DF92EF92FF920F931F9301
:100BA0006C01E62E9A01FF2400E010E0B801A701D5
:100BB0000E9498058C01C6010E94F804080F191FB5
:100BC000C8011F910F91FF90EF90DF90CF90089593
:100BD000CF92DF92EF92FF920F931F93CF93DF9309
:100BE000EC016A017B012115310541F4E881F981AD
:100BF0000190F081E02D642F09951FC02A30310546
:100C0000D1F477FF17C0E881F9810190F081E02DE0
:100C10006DE209958C0144275527BA014C195D09ED
:100C20006E097F09CE012AE00E9434059801280F41
:100C3000391F04C02AE00E9434059C01C901DF91DC
:100C4000CF911F910F91FF90EF90DF90CF9008957B
:100C5000EF92FF920F931F937B019A010027F7FCFD
:100C60000095102FB801A7010E94E8051F910F9170
:100C7000FF90EF9008950E9418050895EF92FF925B
:100C80000F931F937C010E9418058C01C7010E94DD
:100C9000F804080F191FC8011F910F91FF90EF90E2
:100CA00008951F920F920FB60F9211242F933F9326
:100CB0008F939F93AF93BF9380918B0290918C02FF
:100CC000A0918D02B0918E0230918F020196A11DEC
:100CD000B11D232F2D5F2D3720F02D570196A11D1B
:100CE000B11D20938F0280938B0290938C02A0936E
:100CF0008D02B0938E028091870290918802A0911C
:100D00008902B0918A020196A11DB11D80938702CC
:100D100090938802A0938902B0938A02BF91AF9109
:100D20009F918F913F912F910F900FBE0F901F9029
:100D300018959FB7F89420918702309188024091CE
:100D4000890250918A0286B5A89B06C08F3F21F088
:100D50002F5F3F4F4F4F5F4F9FBF542F432F322F77
:100D60002227280F311D411D511D82E0220F331F04
:100D7000441F551F8A95D1F7B901CA010895EF9212
:100D8000FF920F931F93CF93DF937B018C010E94FF
:100D90009906EB010EC00E9499066C1B7D0B685EE4
:100DA0007340C8F30894E108F10801091109C8511A
:100DB000DC4FE114F1040105110569F7DF91CF91D2
:100DC0001F910F91FF90EF900895789484B5826001
:100DD00084BD84B5816084BD85B5826085BD85B5DF
:100DE000816085BDEEE6F0E0808181608083E1E88E
:100DF000F0E01082808182608083808181608083C6
:100E0000E0E8F0E0808181608083E1EBF0E08081C8
:100E100084608083E0EBF0E0808181608083EAE79A
:100E2000F0E0808184608083808182608083808123
:100E3000816080838081806880831092C1000895E2
:100E4000CF93DF93482F50E0CA0186569F4FFC0195
:100E500034914A575F4FFA018491882369F190E0F9
:100E6000880F991FFC01E859FF4FA591B491FC012F
:100E7000EE58FF4FC591D491662351F42FB7F894E3
:100E80008C91932F909589238C93888189230BC013
:100E9000623061F42FB7F8948C91932F9095892349
:100EA0008C938881832B88832FBF06C09FB7F894CB
:100EB0008C91832B8C939FBFDF91CF9108958330CA
:100EC00071F0843028F48130A1F0823021F514C013
:100ED0008630B1F08730D1F08430E9F404C08091DD
:100EE00080008F7703C0809180008F7D8093800089
:100EF000089584B58F7702C084B58F7D84BD089531
:100F00008091B0008F778093B00008958091B000F9
:100F10008F7D8093B0000895FF920F931F93F62E5C
:100F2000482F50E0CA0182559F4FFC012491CA010D
:100F300086569F4FFC0114914A575F4FFA01049166
:100F40000023C9F0222319F0822F0E945F07E02FAF
:100F5000F0E0EE0FFF1FEE58FF4FA591B4919FB741
:100F6000F894FF2021F48C911095812302C08C917C
:100F7000812B8C939FBF1F910F91FF900895629FCB
:100F8000D001739FF001829FE00DF11D649FE00D81
:100F9000F11D929FF00D839FF00D749FF00D659FE2
:100FA000F00D9927729FB00DE11DF91F639FB00DE1
:100FB000E11DF91FBD01CF0111240895A1E21A2EF0
:100FC000AA1BBB1BFD010DC0AA1FBB1FEE1FFF1FED
:100FD000A217B307E407F50720F0A21BB30BE40B3D
:100FE000F50B661F771F881F991F1A9469F7609584
:100FF0007095809590959B01AC01BD01CF0108953E
:10100000EE0FFF1F0590F491E02D0994F894FFCFA7
:101010004555493A20002E004465766963653A20BB
:1010200000205665722E2000457874656E73696FD6
:101030006E2064656C206461746F20726563696200
:1010400069646F3A20004461746F2072656369625D
:1010500069646F3A20002000000000002904CE04DB
:08106000BF03F003D0031904E3
:00000001FF
