:100000000C9403010C9430010C9430010C943001D9
:100010000C9430010C9430010C9430010C9430019C
:100020000C9430010C9430010C9430010C9430018C
:100030000C9430010C9430010C9430010C9430017C
:100040000C9430010C9430010C9430010C9430016C
:100050000C9430010C9430010C9430010C94F00994
:100060000C9430010C946B030C94B7040C94300185
:100070000C9430010C9430010C9430010C9430013C
:100080000C9430010C9430010C9430010C9430012C
:100090000C94AB030C94F6040C9430010C943001D6
:1000A0000C9430010C9430010C9430010C9430010C
:1000B0000C9430010C9430010C9430010C943001FC
:1000C0000C9430010C9430010C9430010C94EB032F
:1000D0000C9435050C9430010C942B040C9474058D
:1000E0000C94300100002100240027002A002D007C
:1000F0003000330001010000040107010A01000083
:100100002200250028002B002E00310034000201BF
:100110000000050108010B0100002000230026005B
:1001200029002C002F00320000010000030106010D
:10013000090105050505070508080808020202026D
:100140000A0A080804040404010101010101010173
:100150000303030303030303040707070C0C0C0C3E
:100160000C0C0C0C02020202060606060606060627
:100170000B0B0B0B0B0B0B0B0102102020080810B4
:100180002040102040800201020108040201010207
:1001900004081020408080402010080402018004E0
:1001A000020180402010080402010804020101023B
:1001B0000408102040800102040810204080000044
:1001C000090A02080B0C0D070603040100000000D9
:1001D000000000000000000000000000000000001F
:1001E0000000000000000000000011100F000000DF
:1001F00000000000000000000000000000000000FF
:1002000000000000E70611241FBECFEFD1E2DEBFE1
:10021000CDBF00E00CBF12E0A0E0B2E0EAE5F8E1FB
:1002200000E00BBF02C007900D92A835B107D9F7C7
:100230001BBE15E0A8E5B2E001C01D92AE38B107C3
:10024000E1F712E0C6E0D2E004C02297FE010E946E
:10025000270CC430D107C9F70E941D080C942B0C41
:100260000C9400000F931F93CF93DF938C01EB014D
:1002700060387105E8F1CB018058904080589F4765
:1002800038F010E0812FDF91CF911F910F910895E9
:1002900085E360E00E94AE0B005C1F4F0EBD0DB405
:1002A00007FEFDCF8EB5CE018F77907080589F4F9F
:1002B0008EBD0DB407FEFDCF8EB5C078DF77CC0FB5
:1002C000CD2FCC1FDD0BD195CEBD0DB407FEFDCFDC
:1002D0008EB51EBC0DB407FEFDCF1EB585E361E0F3
:1002E0000E94AE0B812FDF91CF911F910F91089546
:1002F00085E360E00E94AE0B005C1F4F0EBD0DB4A5
:1003000007FEFDCF8EB5CF77D070CEBD0DB407FE02
:10031000FDCF8EB51EBC0DB407FEFDCF1EB585E327
:1003200061E00E94AE0BDECFFF920F931F93CF933D
:10033000DF938C01EB01F42E60387105E0F1CB0105
:100340008058904080589F4730F0DF91CF911F91A7
:100350000F91FF90089585E360E00E94AE0B00547A
:100360001F4F0EBD0DB407FEFDCF8EB5CE018F77AA
:10037000907080589F4F8EBD0DB407FEFDCF8EB597
:10038000C078DF77CC0FCD2FCC1FDD0BD195CEBD44
:100390000DB407FEFDCF8EB5FEBC0DB407FEFDCF3C
:1003A0008EB585E361E00E94AE0BDF91CF911F9186
:1003B0000F91FF90089585E360E00E94AE0B00541A
:1003C0001F4F0EBD0DB407FEFDCF8EB5CF77D07099
:1003D000CEBD0DB407FEFDCF8EB5FEBC0DB407FE3D
:1003E000FDCF8EB585E361E00E94AE0BDECFCF93EB
:1003F000DF938DEF94E060E072E00E94AB09C0E013
:10040000D0E081E090E0BE010E943201682F8DEFC4
:1004100094E070E04AE050E00E9498098DEF94E08B
:1004200066E072E00E94AB092196C830D10549F719
:100430008DEF94E066E072E00E94CA09DF91CF91EF
:100440000895CF92DF92EF92FF920F931F9380E077
:1004500090E063E070E00E943201E82E80E090E0DE
:1004600062E070E00E943201F82E80E090E061E0EE
:1004700070E00E943201D82E80E090E060E070E0F1
:100480000E943201C82E0DEF14E0C80168E072E04E
:100490000E94AB097E2D60E06F0D711DC80140E127
:1004A00050E00E941209C80161E172E00E94AB09AC
:1004B000C8016D2D40E150E00E942309C80166E0AB
:1004C00072E00E94AB09C8016C2D40E150E00E942F
:1004D00035091F910F91FF90EF90DF90CF90089515
:1004E0001F93CF93DF938DE090E061E070E00E9476
:1004F0003201482F4F5F40935C028DE090E061E055
:1005000070E050E00E94940110925B0211E00DC077
:100510008FE090E061E070E00E9432018072809391
:100520005D02803211F410935B0280915B0288239C
:1005300079F38DE090E060E070E00E943201482F96
:100540004F7B405C40935C028DE090E060E070E0A7
:1005500050E00E94940180E190E060E070E00E9431
:1005600032018F77809358028DEF94E068E172E05A
:100570000E94AB098DEF94E0609158024AE050E090
:100580000E9435098DEF94E066E372E00E94AB09AA
:1005900010925A021092590220C081E190E0BE01EF
:1005A0000E943201C25ADD4F8883609159027091D6
:1005B0005A0281E190E00E943201682F8DEF94E0B1
:1005C00040E150E00E9423098091590290915A0223
:1005D000019690935A0280935902C0915902D0918A
:1005E0005A028091580290E0C817D907B4F28DEFF3
:1005F00094E066E472E00E94CA0968EE73E080E06D
:1006000090E00E945F0ADF91CF911F9108958DEFD6
:1006100094E040E855E260E070E00E94B3058CE0B1
:1006200060E00E94EC0A8BE061E00E94EC0A8DE041
:1006300061E00E94EC0A8AE061E00E94EC0A8AE034
:1006400061E00E94AE0B80E00E943D0385E00E94C5
:10065000420381E00E9433030E9453030E9421025F
:100660000E94F7010895882321F08CB58F7D8CBD01
:1006700008958CB580628CBD08959CB5937F982BAE
:100680009CBD08952CB5382F33702C7F322B3CBD88
:100690002DB590E0959587959595879581702E7FDE
:1006A000822B8DBD089585E361E00E94AE0B85E34A
:1006B00061E00E94EC0A8CB580618CBD8CB58064D1
:1006C0008CBD84E361E00E94EC0A83E361E00E9458
:1006D000EC0A089508951F920F920FB60F920BB671
:1006E0000F9211242F933F934F938F939F93EF93E8
:1006F000FF938091C00082FD2AC04091C6002091E6
:100700001D0330911E032F5F3F4F2F733070809178
:100710001F03909120032817390759F0E0911D031A
:10072000F0911E03E352FD4F408330931E0320934C
:100730001D03FF91EF919F918F914F913F912F91C9
:100740000F900BBE0F900FBE0F901F9018958091C9
:10075000C600EFCF08951F920F920FB60F920BB6FF
:100760000F9211242F933F934F938F939F93EF9367
:10077000FF938091C80082FD2AC04091CE00209155
:10078000A5033091A6032F5F3F4F2F7330708091E8
:10079000A7039091A8032817390759F0E091A50302
:1007A000F091A603EB59FC4F40833093A6032093AE
:1007B000A503FF91EF919F918F914F913F912F91C1
:1007C0000F900BBE0F900FBE0F901F901895809149
:1007D000CE00EFCF08951F920F920FB60F920BB677
:1007E0000F9211242F933F934F938F939F93EF93E7
:1007F000FF938091D00082FD2AC04091D6002091C5
:100800002D0430912E042F5F3F4F2F733070809155
:100810002F04909130042817390759F0E0912D04E6
:10082000F0912E04E351FC4F408330932E0420932B
:100830002D04FF91EF919F918F914F913F912F91B7
:100840000F900BBE0F900FBE0F901F9018958091C8
:10085000D600EFCF08951F920F920FB60F920BB6EE
:100860000F9211242F933F934F938F939F93EF9366
:10087000FF938091300182FD2AC040913601209182
:10088000B5043091B6042F5F3F4F2F7330708091C5
:10089000B7049091B8042817390759F0E091B504CE
:1008A000F091B604EB58FB4F40833093B60420938D
:1008B000B504FF91EF919F918F914F913F912F91AF
:1008C0000F900BBE0F900FBE0F901F901895809148
:1008D0003601EFCFE0910905F0910A05E05CFF4F8A
:1008E0008191919120813181821B930B8F73907044
:1008F000892BD1F5E0912B05F0912C05E05CFF4FA1
:100900008191919120813181821B930B8F73907023
:10091000892B39F5E0914D05F0914E05E05CFF4FD4
:100920008191919120813181821B930B8F73907003
:10093000892BA1F4E0916F05F0917005E05CFF4F09
:100940008191919120813181821B930B8F739070E3
:10095000892B09F408950E942A0408950E94EA034D
:10096000E9CF0E94AA03D6CF0E946A03C3CF1F9289
:100970000F920FB60F920BB60F9211242F933F9345
:100980008F939F93EF93FF932091610330916203C4
:1009900080916303909164032817390709F1E0916E
:1009A0006303F0916403EF5DFC4F2081809163034A
:1009B0009091640301968F73907090936403809379
:1009C00063032093C600FF91EF919F918F913F9118
:1009D0002F910F900BBE0F900FBE0F901F90189588
:1009E0008091C1008F7D8093C100EDCF1F920F9247
:1009F0000FB60F920BB60F9211242F933F938F9344
:100A00009F93EF93FF932091E9033091EA03809144
:100A1000EB039091EC032817390709F1E091EB0300
:100A2000F091EC03E755FC4F20818091EB0390910E
:100A3000EC0301968F7390709093EC038093EB031B
:100A40002093CE00FF91EF919F918F913F912F9135
:100A50000F900BBE0F900FBE0F901F9018958091B6
:100A6000C9008F7D8093C900EDCF1F920F920FB602
:100A70000F920BB60F9211242F933F938F939F9356
:100A8000EF93FF932091710430917204809173046D
:100A9000909174042817390709F1E0917304F091DB
:100AA0007404EF5CFB4F2081809173049091740477
:100AB00001968F73907090937404809373042093C5
:100AC000D600FF91EF919F918F913F912F910F90C1
:100AD0000BBE0F900FBE0F901F9018958091D10004
:100AE0008F7D8093D100EDCF1F920F920FB60F92A2
:100AF0000BB60F9211242F933F938F939F93EF93F5
:100B0000FF932091F9043091FA048091FB049091B5
:100B1000FC042817390709F1E091FB04F091FC046B
:100B2000E754FB4F20818091FB049091FC040196D7
:100B30008F7390709093FC048093FB042093360194
:100B4000FF91EF919F918F913F912F910F900BBE4D
:100B50000F900FBE0F901F901895809131018F7DDF
:100B600080933101EDCFDF92EF92FF920F931F93AD
:100B7000CF93DF93EC017A018B01DD24403081EECD
:100B8000580780E0680780E0780721F1DD24D394DE
:100B9000EC89FD8981E090E008A002C0880F991FD0
:100BA0000A94E2F7808360E079E08DE390E0A801A9
:100BB00097010E94030C2150304040405040569510
:100BC00047953795279580E120303807D0F0DD2014
:100BD000C1F0DD24EC89FD89108260E874E88EE1C3
:100BE00090E0A80197010E94030C21503040404042
:100BF0005040569547953795279580E12030380726
:100C000030F7E889F9893083EA89FB89208319A2C2
:100C1000EE89FF89408121E030E0C9010C8C02C0DF
:100C2000880F991F0A94E2F7482B4083EE89FF89C9
:100C30004081C9010D8C02C0880F991F0A94E2F708
:100C4000482B4083EE89FF894081C9010E8C02C088
:100C5000880F991F0A94E2F7482B4083EE89FF8999
:100C600080810F8C02C0220F331F0A94E2F7209577
:100C700028232083DF91CF911F910F91FF90EF9058
:100C8000DF900895DC011C96ED91FC911D97E05CCE
:100C9000FF4F2191319180819181281B390B2F7356
:100CA0003070C9010895DC011C96ED91FC911D97EF
:100CB000E05CFF4F20813181E054F040DF01AE5B0A
:100CC000BF4F8D919C9111972817390749F08D914D
:100CD0009C91E80FF91F8081282F30E0C901089509
:100CE0002FEF3FEFC9010895DC011C96ED91FC91B7
:100CF0001D97E05CFF4F20813181E054F040DF011F
:100D0000AE5BBF4F8D919C9111972817390791F0D9
:100D10008D919C911197E80FF91F20818D919C91E5
:100D2000119701968F73907011969C938E9330E07B
:100D3000C90108952FEF3FEFC9010895FC0181A17A
:100D4000882311F411A20895A489B5898C9186FF96
:100D5000FDCF11A20895CF93DF93EC01AE85BF853F
:100D6000AD01405C5F4FFA01208131812F5F3F4F21
:100D70002F733070FD01EE5BFF4F8081918128174A
:100D80003907D9F3FA0180819181A80FB91F6C93BB
:100D9000EE85FF85E05CFF4F31832083EE89FF897C
:100DA000208181E090E00F8C02C0880F991F0A9487
:100DB000E2F7282B208381E089A3EC89FD898081DB
:100DC0008064808381E090E0DF91CF9108951F934C
:100DD000109200051092FF0428EE33E040E050E04E
:100DE00020930105309302054093030550930405B9
:100DF0006CE472E07093FE046093FD048DED92E06C
:100E000090930A058093090581E293E090930C0585
:100E100080930B0585EC90E090930E0580930D0573
:100E200084EC90E09093100580930F0580EC90E0A7
:100E3000909312058093110581EC90E09093140536
:100E40008093130582EC90E090931605809315052E
:100E500086EC90E0909318058093170514E01093AA
:100E60001905B3E0B0931A05A7E0A0931B05F5E0C0
:100E7000F0931C05E1E0E0931D051092220510920D
:100E80002105209323053093240540932505509395
:100E900026057093200560931F0585E693E09093E7
:100EA0002C0580932B0589EA93E090932E0580937F
:100EB0002D058DEC90E09093300580932F058CEC00
:100EC00090E0909332058093310588EC90E0909308
:100ED00034058093330589EC90E090933605809338
:100EE00035058AEC90E090933805809337058EECB9
:100EF00090E090933A058093390510933B05B093A9
:100F00003C05A0933D05F0933E05E0933F0510920C
:100F100044051092430520934505309346054093C0
:100F200047055093480570934205609341058DEE47
:100F300093E090934E0580934D0581E394E0909368
:100F4000500580934F0585ED90E090935205809376
:100F5000510584ED90E0909354058093530580ED06
:100F600090E0909356058093550581ED90E0909325
:100F700058058093570582ED90E090935A05809331
:100F8000590586ED90E090935C0580935B05109386
:100F90005D05B0935E05A0935F05F0936005E09357
:100FA00061051092660510926505209367053093E0
:100FB00068054093690550936A05709364056093D2
:100FC000630585E794E09093700580936F0589EB46
:100FD00094E0909372058093710585E391E090937E
:100FE00074058093730584E391E090937605809374
:100FF000750580E391E0909378058093770581E310
:1010000091E090937A058093790582E391E0909343
:101010007C0580937B0586E391E090937E05809329
:101020007D0510937F05B0938005A0938105F09313
:101030008205E09383051F9108950E948A0A0E9409
:1010400007030E9470028AE694E0892B29F00E942F
:101050006A040E947002FBCF0E9470020E9470021C
:10106000FBCFCF92DF92EF92FF920F931F93CF931C
:10107000DF937C016B01EA0141155105D9F000E0D5
:1010800010E0D6016D916D01D701ED91FC910190B9
:10109000F081E02DC7011995080F191F219789F7D5
:1010A000C801DF91CF911F910F91FF90EF90DF90DA
:1010B000CF90089500E010E0F3CFEF92FF920F93EE
:1010C0001F938C01DC01ED91FC910190F081E02DEA
:1010D0006DE019957C01D801ED91FC910190F081B2
:1010E000E02DC8016AE019959C012E0D3F1DC90134
:1010F0001F910F91FF90EF9008954F925F927F9212
:101100008F929F92AF92BF92CF92DF92EF92FF9217
:101110000F931F93DF93CF93CDB7DEB7A1970FB691
:10112000F894DEBF0FBECDBF2C01742ECB01223050
:1011300008F460C0822E9924AA24BB2419A221E2BB
:10114000C22ED12CCC0EDD1E0BC0405DF6014083BB
:10115000E114F1040105110501F17E2C5F2DC80198
:10116000672D752FA50194010E94030C79018A0156
:10117000C801B701A50194010E94E40B472D461B4D
:101180000894C108D1084A3004F3495CF601408351
:10119000E114F1040105110501F7C114D10481F135
:1011A000D6010D900020E9F71197AC19BD09F201A5
:1011B00080819181FC0122813381C201B601AD01A0
:1011C000F90119959C01C901A1960FB6F894DEBFEB
:1011D0000FBECDBFCF91DF911F910F91FF90EF9088
:1011E000DF90CF90BF90AF909F908F907F905F9057
:1011F0004F9008953AE0832E912CA12CB12C9ECFD4
:1012000020E030E0E0CFDC012115310519F00E942B
:101210007D080895ED91FC910190F081E02D642FFF
:1012200019950895EF92FF920F931F939A017B01F6
:1012300000E010E0B801A7010E9403091F910F917F
:10124000FF90EF900895EF92FF920F931F939A01F2
:10125000E62EFF2400E010E0B801A7010E94030978
:101260001F910F91FF90EF900895CF92DF92EF9230
:10127000FF920F931F936C01E62E9A01FF2400E06A
:1012800010E0B801A7010E9403098C01C6010E9469
:101290005D08080F191FC8011F910F91FF90EF9073
:1012A000DF90CF900895CF92DF92EF92FF920F934D
:1012B0001F93CF93DF93EC016A017B012115310568
:1012C000B9F02A30310539F477FD1BC02AE00E94BD
:1012D0007D089C0103C00E947D089C01C901DF912B
:1012E000CF911F910F91FF90EF90DF90CF900895D5
:1012F000E881F9810190F081E02D642F19959C011E
:10130000EDCFE881F9810190F081E02D6DE2199532
:101310008C0144275527BA014C195D096E097F09D4
:10132000CE012AE00E947D089801280F391FD6CFF0
:10133000EF92FF920F931F937B019A010027F7FC16
:101340000095102FB801A7010E9453091F910F911A
:10135000FF90EF900895CF93DF93EC016115710535
:1013600099F0DB010D900020E9F71197A61BB70B50
:10137000E881F9810280F381E02DAD0119959C018E
:10138000C901DF91CF91089520E030E0C901DF91DC
:10139000CF9108950F931F93CF93DF93EC016115C5
:1013A0007105D9F0DB010D900020E9F71197A61B1C
:1013B000B70BE881F9810280F381E02DAD01199529
:1013C0008C01CE010E945D089801280F391FC901C8
:1013D000DF91CF911F910F91089500E010E0F1CFC0
:1013E0001F920F920FB60F9211242F933F938F935A
:1013F0009F93AF93BF938091890590918A05A091A7
:101400008B05B0918C0530918D050196A11DB11D04
:10141000232F2D5F2D3720F02D570196A11DB11DD3
:1014200020938D058093890590938A05A0938B0561
:10143000B0938C058091850590918605A0918705D4
:10144000B09188050196A11DB11D809385059093EB
:101450008605A0938705B0938805BF91AF919F91B2
:101460008F913F912F910F900FBE0F901F90189565
:101470009FB7F894209185053091860540918705A6
:101480005091880586B5A89B06C08F3F21F02F5F3D
:101490003F4F4F4F5F4F9FBF542F432F322F222775
:1014A000280F311D411D511D220F331F441F551F91
:1014B000220F331F441F551FB901CA010895EF922F
:1014C000FF920F931F93CF93DF937B018C010E94B8
:1014D000380AE114F10401051105A9F0EB010E949D
:1014E000380A6C1B7D0B685E7340C8F30894E108F2
:1014F000F10801091109E114F1040105110519F0C0
:10150000C851DC4FECCFDF91CF911F910F91FF902D
:10151000EF900895789484B5826084BD84B581602D
:1015200084BD85B5826085BD85B5816085BDEEE6EB
:10153000F0E0808181608083E1E8F0E010828081CA
:1015400082608083808181608083E0E8F0E0808138
:1015500081608083E1EBF0E0808184608083E0EB58
:10156000F0E0808181608083E1E9F0E08081826049
:101570008083808181608083E0E9F0E08081816008
:101580008083E1EAF0E080818260808380818160F5
:101590008083E0EAF0E0808181608083E1E2F1E035
:1015A000808182608083808181608083E0E2F1E0DD
:1015B000808181608083EAE7F0E0808184608083BD
:1015C0008081826080838081816080838081806867
:1015D00080831092C1000895CF93DF93482F50E08D
:1015E000CA0188589E4FFC0134914E5C5E4FFA014F
:1015F00084918823B9F090E0880F991FFC01EC5189
:10160000FF4FA591B491FC01E250FF4FC591D491D9
:10161000662359F06230B9F09FB7F8948C91832B10
:101620008C939FBFDF91CF9108952FB7F8948C9141
:10163000932F909589238C938881892388832FBF4A
:10164000DF91CF9108952FB7F8948C91932F9095B7
:1016500089238C938881832B88832FBFE3CF8930A4
:1016600009F45EC08A3070F08D3009F45FC08E30AE
:10167000D0F0803109F46CC0813109F463C08F303F
:10168000C9F10895843009F445C08530B8F0873039
:10169000B9F1883048F58630A1F78091B0008F7796
:1016A0008093B00008958B3009F446C08C30B0F0C0
:1016B0008091A0008F7D8093A0000895823031F149
:1016C000833030F48130E9F684B58F7784BD089596
:1016D000809180008F7780938000089580919000A2
:1016E000877F809390000895809190008F778093FA
:1016F00090000895809120018F77809320010895B4
:101700008091B0008F7D8093B000089584B58F7D67
:1017100084BD0895809180008F7D8093800008951E
:10172000809190008F7D8093900008958091A0001B
:10173000877F8093A00008958091A0008F77809389
:10174000A000089580912001877F80932001089553
:10175000809120018F7D809320010895FF920F9347
:101760001F93F62E482F50E0CA0182549E4FFC0171
:101770002491CA0188589E4FFC0104914E5C5E4F33
:10178000FA011491112399F02223D1F4E12FF0E012
:10179000EE0FFF1FE250FF4FA591B4919FB7F89451
:1017A000FF2049F48C91009580238C939FBF1F915B
:1017B0000F91FF9008958C91802B8C939FBFF7CF52
:1017C000822F0E942F0BE2CF629FD001739FF00106
:1017D000829FE00DF11D649FE00DF11D929FF00DC1
:1017E000839FF00D749FF00D659FF00D9927729FF8
:1017F000B00DE11DF91F639FB00DE11DF91FBD0183
:10180000CF0111240895A1E21A2EAA1BBB1BFD01D2
:101810000DC0AA1FBB1FEE1FFF1FA217B307E407CF
:10182000F50720F0A21BB30BE40BF50B661F771F27
:10183000881F991F1A9469F7609570958095909507
:101840009B01AC01BD01CF010895EE0FFF1F059074
:0A185000F491E02D1994F894FFCFF5
:10185A004555493A20002E004465766963653A2069
:10186A0000205665722E2000457874656E73696F84
:10187A006E2064656C206461746F207265636962AE
:10188A0069646F3A20004461746F2072656369620B
:10189A0069646F3A2000200000000000AB0631089E
:0818AA004206740653069E0677
:00000001FF
