:100000000C9462000C948A000C948A000C948A0070
:100010000C948A000C948A000C948A000C948A0038
:100020000C948A000C948A000C948A000C948A0028
:100030000C948A000C948A000C948A000C948A0018
:100040000C945D060C948A000C94BA020C9408037C
:100050000C948A000C948A000C948A000C948A00F8
:100060000C948A000C948A000000000024002700F1
:100070002A0000000000250028002B0000000000DE
:1000800023002600290004040404040404040202DA
:100090000202020203030303030301020408102007
:1000A0004080010204081020010204081020000012
:1000B0000007000201000003040600000000000029
:1000C0000000740411241FBECFEFD8E0DEBFCDBF07
:1000D00011E0A0E0B1E0E8E2F0E102C005900D928D
:1000E000A835B107D9F712E0A8E5B1E001C01D922B
:1000F000A331B107E1F710E0C4ECD0E004C02297CF
:10010000FE010E940E08C23CD107C9F70E94CA0432
:100110000C9412080C9400000F931F93CF93DF935D
:100120008C01EB0160387105E8F1CB0180589040FB
:1001300080589F4738F010E0812FDF91CF911F91B9
:100140000F91089585E360E00E949807005C1F4FBF
:100150000EBD0DB407FEFDCF8EB5CE018F7790702A
:1001600080589F4F8EBD0DB407FEFDCF8EB5C07871
:10017000DF77CC0FCD2FCC1FDD0BD195CEBD0DB4CD
:1001800007FEFDCF8EB51EBC0DB407FEFDCF1EB51C
:1001900085E361E00E949807812FDF91CF911F9145
:1001A0000F91089585E360E00E949807005C1F4F5F
:1001B0000EBD0DB407FEFDCF8EB5CF77D070CEBD8E
:1001C0000DB407FEFDCF8EB51EBC0DB407FEFDCFEE
:1001D0001EB585E361E00E949807DECFFF920F9382
:1001E0001F93CF93DF938C01EB01F42E60387105E0
:1001F000E0F1CB018058904080589F4730F0DF916C
:10020000CF911F910F91FF90089585E360E00E94C8
:10021000980700541F4F0EBD0DB407FEFDCF8EB5DD
:10022000CE018F77907080589F4F8EBD0DB407FE22
:10023000FDCF8EB5C078DF77CC0FCD2FCC1FDD0B77
:10024000D195CEBD0DB407FEFDCF8EB5FEBC0DB46D
:1002500007FEFDCF8EB585E361E00E949807DF9130
:10026000CF911F910F91FF90089585E360E00E9468
:10027000980700541F4F0EBD0DB407FEFDCF8EB57D
:10028000CF77D070CEBD0DB407FEFDCF8EB5FEBCCE
:100290000DB407FEFDCF8EB585E361E00E9498079F
:1002A000DECFCF92DF92EF92FF920F931F9380E009
:1002B00090E063E070E00E948C00E82E80E090E027
:1002C00062E070E00E948C00F82E80E090E061E037
:1002D00070E00E948C00D82E80E090E060E070E03A
:1002E0000E948C00C82E08EE11E0C80168E071E0A1
:1002F0000E9447067E2D60E06F0D711DC80140E130
:1003000050E00E94B205C80161E171E00E94470619
:10031000C8016D2D40E150E00E94C305C80166E0B0
:1003200071E00E944706C8016C2D40E150E00E9438
:10033000D5051F910F91FF90EF90DF90CF9008951A
:100340001F9388EE91E068E171E00E9447068FE01C
:1003500090E060E070E00E948C00682F88EE91E0F1
:1003600042E050E00E94D50580915C01882309F4A9
:1003700096C089E090E060E070E04EED50E00E94B1
:10038000EE0088EE91E068E271E00E94470689E0A5
:1003900090E060E070E00E948C00482F50E060E048
:1003A00070E0409358015093590160935A01709343
:1003B0005B0188EE91E020E130E00E94330688EE98
:1003C00091E060E371E00E9447068DE090E060E01C
:1003D00070E00E948C00682F88EE91E042E050E0CF
:1003E0000E94D50560ED77E080E090E00E94CB06AA
:1003F0008DE090E060E070E00E948C00482F4E5F3E
:1004000040935E018DE090E060E070E050E00E947B
:10041000EE0010925D0104C080915D01882371F4AB
:100420008FE090E060E070E00E948C008078809324
:100430005F01803889F781E080935D0188EE91E06B
:100440006BE371E00E94470689E090E060E070E0B5
:100450000E948C00482F50E060E070E0409358010B
:100460005093590160935A0170935B0188EE91E0BB
:1004700020E130E00E94330680915D01882369F01D
:1004800011E010935D0164E670E080E090E00E946E
:10049000CB0680915D018823A1F71F91089581E02B
:1004A00080935C0188EE91E065E271E00E944A066B
:1004B0000E9451015ECF88EE91E040E855E260E095
:1004C00070E00E94430382E360E00E942C0783E314
:1004D00061E00E942C0784E361E00E942C0785E321
:1004E00061E00E942C0785E361E00E94980780E0AC
:1004F0000E948C0283E00E94910281E00E948302AC
:100500000E94A2020895882319F48CB5806202C06B
:100510008CB58F7D8CBD08959CB5937F982B9CBD29
:1005200008952CB5382F33702C7F322B3CBD2DB560
:1005300090E0959587959595879581702E7F822B74
:100540008DBD08958AE061E00E9498078AE061E02D
:100550000E942C078CB580618CBD8CB580648CBDED
:100560008DE061E00E942C078BE061E00E942C0787
:10057000089508951F920F920FB60F9211242F9392
:100580003F934F938F939F93EF93FF938091C0007E
:1005900082FD1DC04091C6002091A0013091A101B3
:1005A0002F5F3F4F2F7330708091A2019091A30174
:1005B0002817390771F0E091A001F091A101E05AEC
:1005C000FE4F40833093A1012093A00102C080918F
:1005D000C600FF91EF919F918F914F913F912F9185
:1005E0000F900FBE0F901F901895E091F401F091BD
:1005F000F501E05CFF4F8191919120813181821B57
:10060000930B8F739070892B11F00E94B90208959B
:100610001F920F920FB60F9211242F933F938F9337
:100620009F93EF93FF932091E4013091E501809136
:10063000E6019091E7012817390731F48091C10054
:100640008F7D8093C10014C0E091E601F091E70135
:10065000EC55FE4F20818091E6019091E7010196D3
:100660008F7390709093E7018093E6012093C6000A
:10067000FF91EF919F918F913F912F910F900FBE1E
:100680000F901F901895AF92BF92DF92EF92FF925A
:100690000F931F93CF93DF93EC017A018B01DD243D
:1006A000403081EE580780E0680780E0780711F05D
:1006B000DD24D39491E0A92EB12CEC89FD89DD20B5
:1006C00069F0C50108A002C0880F991F0A94E2F7DB
:1006D000808360E079E08DE390E005C0108260E8FF
:1006E00074E88EE190E0A80197010E94EA0721508A
:1006F000304040405040569547953795279580E1CA
:100700002030380720F0DD2011F0DD24D6CFE88935
:10071000F9893083EA89FB89208319A2EE89FF8950
:10072000408121E030E0C9010C8C02C0880F991F84
:100730000A94E2F7482B4083EE89FF894081C90182
:100740000D8C02C0880F991F0A94E2F7482B408352
:10075000EE89FF894081C9010E8C02C0880F991F64
:100760000A94E2F7482B4083EE89FF8980810F8C41
:1007700002C0220F331F0A94E2F72095282320831A
:10078000DF91CF911F910F91FF90EF90DF90BF907D
:10079000AF900895DC011C96ED91FC911D97E05CF3
:1007A000FF4F2191319180819181281B390B2F734B
:1007B0003070C9010895DC011C96ED91FC911D97E4
:1007C000E05CFF4F20813181E054F040DF01AE5BFF
:1007D000BF4F8D919C9111972817390719F42FEF6E
:1007E0003FEF07C08D919C91E80FF91F8081282F62
:1007F00030E0C9010895DC011C96ED91FC911D9734
:10080000E05CFF4F20813181E054F040DF01AE5BBE
:10081000BF4F8D919C9111972817390719F42FEF2D
:100820003FEF10C08D919C911197E80FF91F208127
:100830008D919C91119701968F73907011969C9356
:100840008E9330E0C9010895DC0191968C919197C7
:10085000882339F05496ED91FC915597808186FF5D
:10086000F9CF91961C920895CF93DF93EC01EE851A
:10087000FF85E05CFF4F20813181E054F0402F5F25
:100880003F4F2F733070DF01AE5BBF4F8D919C9156
:10089000119728173907D1F3E05CFF4F80819181D0
:1008A000E054F040E80FF91F6083EE85FF85E05CBF
:1008B000FF4F31832083EE89FF89208181E090E022
:1008C0000F8C02C0880F991F0A94E2F7282B20830F
:1008D00081E089A3EC89FD8980818064808381E047
:1008E00090E0DF91CF9108951092EB011092EA0110
:1008F00088EE93E0A0E0B0E08093EC019093ED01EE
:10090000A093EE01B093EF018CE491E09093E901A4
:100910008093E80180E691E09093F5018093F401E3
:1009200084EA91E09093F7018093F60185EC90E0E2
:100930009093F9018093F80184EC90E09093FB018F
:100940008093FA0180EC90E09093FD018093FC018C
:1009500081EC90E09093FF018093FE0182EC90E0A7
:10096000909301028093000286EC90E09093030242
:100970008093020284E08093040283E08093050266
:1009800087E08093060285E08093070281E08093F0
:1009900008020895CF93DF930E94F1060E945B0244
:1009A000C5EFD2E00E94A0012097E1F30E94F5027A
:1009B000F9CFCF92DF92EF92FF920F931F93CF93D5
:1009C000DF937C016B018A01C0E0D0E00FC0D6014B
:1009D0006D916D01D701ED91FC910190F081E02DB9
:1009E000C7010995C80FD91F015010400115110505
:1009F00071F7CE01DF91CF911F910F91FF90EF9092
:100A0000DF90CF900895EF92FF920F931F938C0188
:100A1000DC01ED91FC910190F081E02D6DE00995F4
:100A20007C01D801ED91FC910190F081E02DC8018D
:100A30006AE009959C012E0D3F1DC9011F910F9180
:100A4000FF90EF900895CF93DF93EC01611571054E
:100A500019F420E030E00FC0DB010D900020E9F731
:100A60001197A61BB70BE881F9810280F381E02D75
:100A7000AD0109959C01C901DF91CF9108954F9275
:100A80005F927F928F929F92AF92BF92CF92DF92AE
:100A9000EF92FF920F931F93DF93CF93CDB7DEB703
:100AA000A1970FB6F894DEBF0FBECDBF2C01742EF8
:100AB000CB01223008F42AE019A231E2C32ED12C56
:100AC000CC0EDD1E822E9924AA24BB24672D752FFF
:100AD000A50194010E94EA0779018A01C801B701C2
:100AE000A50194010E94CB07472D461B0894C1081D
:100AF000D1084A3014F4405D01C0495CF6014083DE
:100B0000E114F1040105110521F07E2C5F2DC801CF
:100B1000DDCFC201B6010E942305A1960FB6F8945D
:100B2000DEBF0FBECDBFCF91DF911F910F91FF9020
:100B3000EF90DF90CF90BF90AF909F908F907F907D
:100B40005F904F900895DC012115310541F4ED913E
:100B5000FC910190F081E02D642F099508950E9489
:100B60003F050895EF92FF920F931F939A017B0127
:100B700000E010E0B801A7010E94A3051F910F91AA
:100B8000FF90EF900895EF92FF920F931F939A01B9
:100B9000E62EFF2400E010E0B801A7010E94A305A3
:100BA0001F910F91FF90EF900895CF92DF92EF92F7
:100BB000FF920F931F936C01E62E9A01FF2400E031
:100BC00010E0B801A7010E94A3058C01C6010E9494
:100BD0000305080F191FC8011F910F91FF90EF9097
:100BE000DF90CF900895CF92DF92EF92FF920F9314
:100BF0001F93CF93DF93EC016A017B01211531052F
:100C000041F4E881F9810190F081E02D642F09958C
:100C10001FC02A303105D1F477FF17C0E881F98170
:100C20000190F081E02D6DE209958C014427552754
:100C3000BA014C195D096E097F09CE012AE00E94B4
:100C40003F059801280F391F04C02AE00E943F0584
:100C50009C01C901DF91CF911F910F91FF90EF90FF
:100C6000DF90CF900895EF92FF920F931F937C0136
:100C70000E94F3058C01C7010E9403059C01200F0F
:100C8000311FC9011F910F91FF90EF9008950E94AD
:100C900023050895EF92FF920F931F937C010E940A
:100CA00023058C01C7010E940305080F191FC80105
:100CB0001F910F91FF90EF9008951F920F920FB622
:100CC0000F9211242F933F938F939F93AF93BF93D2
:100CD00080910E0290910F02A0911002B09111022A
:100CE000309112020196A11DB11D232F2D5F2D37CA
:100CF00020F02D570196A11DB11D20931202809363
:100D00000E0290930F02A0931002B09311028091F3
:100D10000A0290910B02A0910C02B0910D02019673
:100D2000A11DB11D80930A0290930B02A0930C02A7
:100D3000B0930D02BF91AF919F918F913F912F91F1
:100D40000F900FBE0F901F9018959FB7F8942091A9
:100D50000A0230910B0240910C0250910D0286B5AF
:100D6000A89B06C08F3F21F02F5F3F4F4F4F5F4F33
:100D70009FBF542F432F322F2227280F311D411D93
:100D8000511D82E0220F331F441F551F8A95D1F752
:100D9000B901CA010895EF92FF920F931F93CF9369
:100DA000DF937B018C010E94A506EB010EC00E941F
:100DB000A5066C1B7D0B685E7340C8F30894E108C0
:100DC000F10801091109C851DC4FE114F1040105D2
:100DD000110569F7DF91CF911F910F91FF90EF906F
:100DE0000895789484B5826084BD84B5816084BDA3
:100DF00085B5826085BD85B5816085BDEEE6F0E094
:100E0000808181608083E1E8F0E0108280818260EF
:100E10008083808181608083E0E8F0E08081816070
:100E20008083E1EBF0E0808184608083E0EBF0E0A0
:100E3000808181608083EAE7F0E080818460808344
:100E400080818260808380818160808380818068EE
:100E500080831092C1000895CF93DF93482F50E014
:100E6000CA0186569F4FFC0134914A575F4FFA01E1
:100E70008491882369F190E0880F991FFC01E8595B
:100E8000FF4FA591B491FC01EE58FF4FC591D4914D
:100E9000662351F42FB7F8948C91932F9095892362
:100EA0008C93888189230BC0623061F42FB7F8944A
:100EB0008C91932F909589238C938881832B8883A1
:100EC0002FBF06C09FB7F8948C91832B8C939FBF44
:100ED000DF91CF910895833071F0843028F4813010
:100EE000A1F0823021F514C08630B1F08730D1F006
:100EF0008430E9F404C0809180008F7703C0809132
:100F000080008F7D80938000089584B58F7702C024
:100F100084B58F7D84BD08958091B0008F778093D4
:100F2000B00008958091B0008F7D8093B000089547
:100F3000FF920F931F93F62E482F50E0CA0182555F
:100F40009F4FFC012491CA0186569F4FFC011491CA
:100F50004A575F4FFA0104910023C9F0222319F088
:100F6000822F0E946B07E02FF0E0EE0FFF1FEE587C
:100F7000FF4FA591B4919FB7F894FF2021F48C9175
:100F80001095812302C08C91812B8C939FBF1F9160
:100F90000F91FF900895629FD001739FF001829F8F
:100FA000E00DF11D649FE00DF11D929FF00D839FF8
:100FB000F00D749FF00D659FF00D9927729FB00D95
:100FC000E11DF91F639FB00DE11DF91FBD01CF01A8
:100FD00011240895A1E21A2EAA1BBB1BFD010DC00E
:100FE000AA1FBB1FEE1FFF1FA217B307E407F507D9
:100FF00020F0A21BB30BE40BF50B661F771F881FB5
:10100000991F1A9469F760957095809590959B014A
:10101000AC01BD01CF010895EE0FFF1F0590F491C3
:08102000E02D0994F894FFCFC4
:101028004555493A20002E004465766963653A20A3
:1010380000205665722E20005359535F5354415473
:1010480055533A20002D2D004461746F313A200029
:101058005359535F4354524C3A20004461746F20F3
:10106800616761696E3A2000000000003404D90409
:08107800CA03FB03DB0324049F
:00000001FF
