:100000000C9462000C948A000C948A000C948A0070
:100010000C948A000C948A000C948A000C948A0038
:100020000C948A000C948A000C948A000C948A0028
:100030000C948A000C948A000C948A000C948A0018
:100040000C94AF060C948A000C9443030C94910317
:100050000C948A000C948A000C948A000C948A00F8
:100060000C948A000C948A000000000024002700F1
:100070002A0000000000250028002B0000000000DE
:1000800023002600290004040404040404040202DA
:100090000202020203030303030301020408102007
:1000A0004080010204081020010204081020000012
:1000B0000007000201000003040600000000000029
:1000C0000000FD0411241FBECFEFD8E0DEBFCDBF7E
:1000D00011E0A0E0B1E0E0EEF0E102C005900D9289
:1000E000A43AB107D9F712E0A4EAB1E001C01D9229
:1000F000A63DB107E1F710E0C4ECD0E004C02297C0
:10010000FE010E946A08C23CD107C9F70E9453054C
:100110000C946E080C9400001F93CF93DF93182F5C
:10012000EB0160387105E8F1CB01805890408058B0
:100130009F4730F010E0812FDF91CF911F910895FC
:1001400085E360E00E94F407812F90E0805C9F4F80
:100150008EBD0DB407FEFDCF8EB5CE018F779070AA
:1001600080589F4F8EBD0DB407FEFDCF8EB5C07871
:10017000DF77CC0FCD2FCC1FDD0BD195CEBD0DB4CD
:1001800007FEFDCF8EB51EBC0DB407FEFDCF1EB51C
:1001900085E361E00E94F407812FDF91CF911F91E9
:1001A000089585E360E00E94F407812F90E0805C71
:1001B0009F4F8EBD0DB407FEFDCF8EB5CF77D070AB
:1001C000CEBD0DB407FEFDCF8EB51EBC0DB407FE2F
:1001D000FDCF1EB585E361E00E94F407DDCFEF920D
:1001E000FF920F931F93082F83E0602F70E00E940F
:1001F0008C00E82EFF2410E00F5F1F4F83E0B80152
:100200000E948C00382F20E02E0D3F1DC9011F9148
:100210000F91FF90EF9008950F931F93CF93DF936B
:10022000182FEB01042F60387105E0F1CB018058E5
:10023000904080589F4728F0DF91CF911F910F91F8
:10024000089585E360E00E94F407812F90E08054D8
:100250009F4F8EBD0DB407FEFDCF8EB5CE018F77BB
:10026000907080589F4F8EBD0DB407FEFDCF8EB5A8
:10027000C078DF77CC0FCD2FCC1FDD0BD195CEBD55
:100280000DB407FEFDCF8EB50EBD0DB407FEFDCF3C
:100290008EB585E361E00E94F407DF91CF911F9155
:1002A0000F91089585E360E00E94F407812F90E0AC
:1002B00080549F4F8EBD0DB407FEFDCF8EB5CF7716
:1002C000D070CEBD0DB407FEFDCF8EB50EBD0DB402
:1002D00007FEFDCF8EB585E361E00E94F407DDCF18
:1002E000EF92FF920F931F93CF93DF937C018DE0EA
:1002F00060E070E040E40E940C018DE061E070E09D
:100300000E948C00482F4E7F4F5F8DE061E070E0CF
:100310000E940C018FE061E070E00E948C00182FB9
:100320008FE062E070E00E948C0015FD0BC014FDB0
:1003300035C084FFEFCF8BEA92E063E371E00E9467
:100340009C0606C08BEA92E060E071E00E949C0689
:100350008DE060E070E040E40E940C0180E160E02C
:1003600070E00E948C008F77082F10E001151105B6
:1003700071F0C0E0D0E081E1BE010E948C00F70185
:10038000EC0FFD1F80832196C017D107A4F3DF91E6
:10039000CF911F910F91FF90EF9008958BEA92E01B
:1003A00062E171E00E949C06D3CFEF92FF920F931F
:1003B0001F93CF93DF937C018B018DE060E070E0B1
:1003C00040E40E940C011016110674F4C0E0D0E065
:1003D000F701EC0FFD1F89E0BE0140810E940C0176
:1003E0002196C017D107A4F3402F4E5F88E060E04C
:1003F00070E00E940C018DE060E070E042E00E943D
:100400000C018FE060E070E00E948C0087FFF9CF64
:100410008BEA92E06BE471E00E949C068FE060E062
:1004200070E04EEF0E940C018DE060E070E040E46F
:100430000E940C01DF91CF911F910F91FF90EF90DF
:1004400008950F931F93082F462F83E0602F70E0CD
:100450000E940C0110E00F5F1F4F83E0B80140E0E5
:100460000E940C011F910F910895CF92DF92EF929D
:10047000FF920F931F9380E063E070E00E948C0076
:10048000E82E80E062E070E00E948C00F82E80E0B0
:1004900061E070E00E948C00D82E80E060E070E0A7
:1004A0000E948C00C82E0BEA12E0C80161E671E0E0
:1004B0000E9499067E2D60E06F0D711DC80140E11C
:1004C00050E00E943B06C8016AE671E00E9499066E
:1004D000C8016D2D40E150E00E946906C8016FE53A
:1004E00071E00E949906C8016C2D40E150E00E9425
:1004F0007B061F910F91FF90EF90DF90CF900895B2
:10050000CF93DF9384EA91E067E070E00E94D50129
:1005100084EA91E00E9470018BEA92E061E771E069
:100520000E949906C4EAD1E08BEA92E0699140E129
:1005300050E00E94690681E0CB3AD807A9F78BEA20
:1005400092E061E871E00E949C0668EB7BE080E04D
:1005500090E00E941D07DF91CF9108950F931F93A4
:100560000BEA12E0C80140E855E260E070E00E944A
:10057000CC0382E360E00E94880783E361E00E948D
:10058000880784E361E00E94880785E361E00E94B8
:10059000880785E361E00E94F40780E00E9415036C
:1005A00083E00E941A0381E00E940C030E942B0347
:1005B0008DE267E070E040E80E940C0186E990E07F
:1005C0000E9443070E9435028DE08093A4018EE0D3
:1005D0008093A5018CE08093A6018AE08093A70117
:1005E0001092A8011092A9011092AA0180E06AE07D
:1005F00070E00E942102C80163E871E00E94990640
:1006000080E00E94EF00BC01C80140E150E00E9480
:100610004C061F910F910895882319F48CB58062C0
:1006200002C08CB58F7D8CBD08959CB5937F982BAF
:100630009CBD08952CB5382F33702C7F322B3CBDD8
:100640002DB590E0959587959595879581702E7F2E
:10065000822B8DBD08958AE061E00E94F4078AE054
:1006600061E00E9488078CB580618CBD8CB5806488
:100670008CBD8DE061E00E9488078BE061E00E9404
:100680008807089508951F920F920FB60F921124B4
:100690002F933F934F938F939F93EF93FF9380916B
:1006A000C00082FD1DC04091C600209163023091C0
:1006B00064022F5F3F4F2F733070809165029091DD
:1006C00066022817390771F0E0916302F091640225
:1006D000ED5DFD4F4083309364022093630202C0BE
:1006E0008091C600FF91EF919F918F914F913F9123
:1006F0002F910F900FBE0F901F901895E091B702A9
:10070000F091B802E05CFF4F81919191208131819D
:10071000821B930B8F739070892B11F00E94420300
:1007200008951F920F920FB60F9211242F933F93AB
:100730008F939F93EF93FF932091A7023091A8028C
:100740008091A9029091AA022817390731F480916B
:10075000C1008F7D8093C10014C0E091A902F09187
:10076000AA02E959FD4F20818091A9029091AA0225
:1007700001968F7390709093AA028093A9022093A0
:10078000C600FF91EF919F918F913F912F910F9014
:100790000FBE0F901F901895AF92BF92DF92EF920D
:1007A000FF920F931F93CF93DF93EC017A018B019C
:1007B000DD24403081EE580780E0680780E078074C
:1007C00011F0DD24D39491E0A92EB12CEC89FD89A0
:1007D000DD2069F0C50108A002C0880F991F0A94A6
:1007E000E2F7808360E079E08DE390E005C010825D
:1007F00060E874E88EE190E0A80197010E94460845
:1008000021503040404050405695479537952795A8
:1008100080E12030380720F0DD2011F0DD24D6CF34
:10082000E889F9893083EA89FB89208319A2EE8956
:10083000FF89408121E030E0C9010C8C02C0880FA3
:10084000991F0A94E2F7482B4083EE89FF89408183
:10085000C9010D8C02C0880F991F0A94E2F7482B3A
:100860004083EE89FF894081C9010E8C02C0880F48
:10087000991F0A94E2F7482B4083EE89FF89808113
:100880000F8C02C0220F331F0A94E2F72095282311
:100890002083DF91CF911F910F91FF90EF90DF9018
:1008A000BF90AF900895DC011C96ED91FC911D97CF
:1008B000E05CFF4F2191319180819181281B390BA0
:1008C0002F733070C9010895DC011C96ED91FC91E5
:1008D0001D97E05CFF4F20813181E054F040DF0143
:1008E000AE5BBF4F8D919C9111972817390719F472
:1008F0002FEF3FEF07C08D919C91E80FF91F80818A
:10090000282F30E0C9010895DC011C96ED91FC917F
:100910001D97E05CFF4F20813181E054F040DF0102
:10092000AE5BBF4F8D919C9111972817390719F431
:100930002FEF3FEF10C08D919C911197E80FF91F99
:1009400020818D919C91119701968F7390701196D3
:100950009C938E9330E0C9010895DC0191968C91AF
:100960009197882339F05496ED91FC9155978081A9
:1009700086FFF9CF91961C920895CF93DF93EC01F7
:10098000EE85FF85E05CFF4F20813181E054F0402F
:100990002F5F3F4F2F733070DF01AE5BBF4F8D91E4
:1009A0009C91119728173907D1F3E05CFF4F8081A4
:1009B0009181E054F040E80FF91F6083EE85FF85D8
:1009C000E05CFF4F31832083EE89FF89208181E045
:1009D00090E00F8C02C0880F991F0A94E2F7282B31
:1009E000208381E089A3EC89FD89808180648083F4
:1009F00081E090E0DF91CF9108951092AE021092C5
:100A0000AD0288EE93E0A0E0B0E08093AF02909357
:100A1000B002A093B102B093B20288E991E0909342
:100A2000AC028093AB0283E292E09093B802809391
:100A3000B70287E692E09093BA028093B90285EC00
:100A400090E09093BC028093BB0284EC90E0909382
:100A5000BE028093BD0280EC90E09093C002809330
:100A6000BF0281EC90E09093C2028093C10282ECBD
:100A700090E09093C4028093C30286EC90E0909340
:100A8000C6028093C50284E08093C70283E080930E
:100A9000C80287E08093C90285E08093CA0281E0A2
:100AA0008093CB020895CF93DF930E944D070E945D
:100AB000AE02CEE7D3E00E9480022097E1F30E94CD
:100AC0007E03F9CFCF92DF92EF92FF920F931F93A5
:100AD000CF93DF937C016B018A01C0E0D0E00FC0AF
:100AE000D6016D916D01D701ED91FC910190F081DE
:100AF000E02DC7010995C80FD91F015010400115FD
:100B0000110571F7CE01DF91CF911F910F91FF90E9
:100B1000EF90DF90CF900895EF92FF920F931F9385
:100B20008C01DC01ED91FC910190F081E02D6DE0F4
:100B300009957C01D801ED91FC910190F081E02DA7
:100B4000C8016AE009959C012E0D3F1DC9011F9146
:100B50000F91FF90EF900895CF93DF93EC01611513
:100B6000710519F420E030E00FC0DB010D9000208A
:100B7000E9F71197A61BB70BE881F9810280F38191
:100B8000E02DAD0109959C01C901DF91CF91089538
:100B90004F925F927F928F929F92AF92BF92CF922D
:100BA000DF92EF92FF920F931F93DF93CF93CDB716
:100BB000DEB7A1970FB6F894DEBF0FBECDBF2C01F4
:100BC000742ECB01223008F42AE019A231E2C32EA0
:100BD000D12CCC0EDD1E822E9924AA24BB24672D95
:100BE000752FA50194010E94460879018A01C80168
:100BF000B701A50194010E942708472D461B0894C0
:100C0000C108D1084A3014F4405D01C0495CF601C6
:100C10004083E114F1040105110521F07E2C5F2DC4
:100C2000C801DDCFC201B6010E94AC05A1960FB686
:100C3000F894DEBF0FBECDBFCF91DF911F910F9112
:100C4000FF90EF90DF90CF90BF90AF909F908F90EC
:100C50007F905F904F900895DC012115310541F49C
:100C6000ED91FC910190F081E02D642F099508959C
:100C70000E94C8050895EF92FF920F931F939A0167
:100C80007B0100E010E0B801A7010E942C061F9133
:100C90000F91FF90EF900895CF92DF92EF92FF9225
:100CA0000F931F936C017B019A0100E010E0B801E3
:100CB000A7010E942C068C01C6010E948C05080F1A
:100CC000191FC8011F910F91FF90EF90DF90CF90F7
:100CD0000895EF92FF920F931F939A01E62EFF243F
:100CE00000E010E0B801A7010E942C061F910F91AF
:100CF000FF90EF900895CF92DF92EF92FF920F93C3
:100D00001F936C01E62E9A01FF2400E010E0B80169
:100D1000A7010E942C068C01C6010E948C05080FB9
:100D2000191FC8011F910F91FF90EF90DF90CF9096
:100D300008950E94AC050895EF92FF920F931F93C0
:100D40007C010E94AC058C01C7010E948C05080F34
:100D5000191FC8011F910F91FF90EF9008951F92E6
:100D60000F920FB60F9211242F933F938F939F935F
:100D7000AF93BF938091D1029091D202A091D30200
:100D8000B091D4023091D5020196A11DB11D232F3F
:100D90002D5F2D3720F02D570196A11DB11D2093F9
:100DA000D5028093D1029093D202A093D302B09344
:100DB000D4028091CD029091CE02A091CF02B09149
:100DC000D0020196A11DB11D8093CD029093CE0259
:100DD000A093CF02B093D002BF91AF919F918F911A
:100DE0003F912F910F900FBE0F901F9018959FB7B6
:100DF000F8942091CD023091CE024091CF025091D3
:100E0000D00286B5A89B06C08F3F21F02F5F3F4FD1
:100E10004F4F5F4F9FBF542F432F322F2227280F52
:100E2000311D411D511D82E0220F331F441F551FEC
:100E30008A95D1F7B901CA010895EF92FF920F93F5
:100E40001F93CF93DF937B018C010E94F706EB0188
:100E50000EC00E94F7066C1B7D0B685E7340C8F3E2
:100E60000894E108F10801091109C851DC4FE114A7
:100E7000F1040105110569F7DF91CF911F910F91E1
:100E8000FF90EF900895019739F0880F991F880F10
:100E9000991F02970197F1F70895789484B58260BD
:100EA00084BD84B5816084BD85B5826085BD85B50E
:100EB000816085BDEEE6F0E0808181608083E1E8BD
:100EC000F0E01082808182608083808181608083F5
:100ED000E0E8F0E0808181608083E1EBF0E08081F8
:100EE00084608083E0EBF0E0808181608083EAE7CA
:100EF000F0E0808184608083808182608083808153
:100F0000816080838081806880831092C100089511
:100F1000CF93DF93482F50E0CA0186569F4FFC01C4
:100F200034914A575F4FFA018491882369F190E028
:100F3000880F991FFC01E859FF4FA591B491FC015E
:100F4000EE58FF4FC591D491662351F42FB7F89412
:100F50008C91932F909589238C93888189230BC042
:100F6000623061F42FB7F8948C91932F9095892378
:100F70008C938881832B88832FBF06C09FB7F894FA
:100F80008C91832B8C939FBFDF91CF9108958330F9
:100F900071F0843028F48130A1F0823021F514C042
:100FA0008630B1F08730D1F08430E9F404C080910C
:100FB00080008F7703C0809180008F7D80938000B8
:100FC000089584B58F7702C084B58F7D84BD089560
:100FD0008091B0008F778093B00008958091B00029
:100FE0008F7D8093B0000895FF920F931F93F62E8C
:100FF000482F50E0CA0182559F4FFC012491CA013D
:1010000086569F4FFC0114914A575F4FFA01049195
:101010000023C9F0222319F0822F0E94C707E02F76
:10102000F0E0EE0FFF1FEE58FF4FA591B4919FB770
:10103000F894FF2021F48C911095812302C08C91AB
:10104000812B8C939FBF1F910F91FF900895629FFA
:10105000D001739FF001829FE00DF11D649FE00DB0
:10106000F11D929FF00D839FF00D749FF00D659F11
:10107000F00D9927729FB00DE11DF91F639FB00D10
:10108000E11DF91FBD01CF0111240895A1E21A2E1F
:10109000AA1BBB1BFD010DC0AA1FBB1FEE1FFF1F1C
:1010A000A217B307E407F50720F0A21BB30BE40B6C
:1010B000F50B661F771F881F991F1A9469F76095B3
:1010C0007095809590959B01AC01BD01CF0108956D
:1010D000EE0FFF1F0590F491E02D0994F894FFCFD7
:1010E000446174612072656365697665643A204F76
:1010F0004B004572726F723A20526563656976657E
:10110000722050485920686561646572204572728A
:101110006F72004572726F723A205265636569762C
:101120006572204F76657272756E0044617461203D
:1011300073656E743A204F4B004555493A20002E96
:10114000004465766963653A2000205665722E205A
:10115000004461746F20726563696269646F3A204C
:1011600000200053686F7274204164647265737369
:10117000202D200000000000BD04620553048404FB
:041180006404AD0452
:00000001FF
