:100000000C9403010C9430010C9430010C943001D9
:100010000C9430010C9430010C9430010C9430019C
:100020000C9430010C9430010C9430010C9430018C
:100030000C9430010C9430010C9430010C9430017C
:100040000C9430010C9430010C9430010C9430016C
:100050000C9430010C9430010C9430010C946F0A14
:100060000C9430010C9425040C9471050C9430010F
:100070000C9430010C9430010C9430010C9430013C
:100080000C9430010C9430010C9430010C9430012C
:100090000C9465040C94B0050C9430010C94300160
:1000A0000C9430010C9430010C9430010C9430010C
:1000B0000C9430010C9430010C9430010C943001FC
:1000C0000C9430010C9430010C9430010C94A50474
:1000D0000C94EF050C9430010C94E5040C942E065E
:1000E0000C94300100002100240027002A002D007C
:1000F0003000330001010000040107010A01000083
:100100002200250028002B002E00310034000201BF
:100110000000050108010B0100002000230026005B
:1001200029002C002F00320000010000030106010D
:10013000090105050505070508080808020202026D
:100140000A0A080804040404010101010101010173
:100150000303030303030303040707070C0C0C0C3E
:100160000C0C0C0C02020202060606060606060627
:100170000B0B0B0B0B0B0B0B0102102020080810B4
:100180002040102040800201020108040201010207
:1001900004081020408080402010080402018004E0
:1001A000020180402010080402010804020101023B
:1001B0000408102040800102040810204080000044
:1001C000090A02080B0C0D070603040100000000D9
:1001D000000000000000000000000000000000001F
:1001E0000000000000000000000011100F000000DF
:1001F00000000000000000000000000000000000FF
:1002000000000000A10711241FBECFEFD1E2DEBF26
:10021000CDBF00E00CBF12E0A0E0B2E0ECE6F9E1F7
:1002200000E00BBF02C007900D92A43CB107D9F7C4
:100230001BBE15E0A4ECB2E001C01D92A43FB107C3
:10024000E1F712E0C6E0D2E004C02297FE010E946E
:10025000B00CC430D107C9F70E94D7080C94B40C75
:100260000C9400001F93CF93DF93182FEB0160389D
:100270007105E8F1CB018058904080589F4730F0DD
:1002800010E0812FDF91CF911F91089585E360E009
:100290000E94370C812F90E0805C9F4F8EBD0DB483
:1002A00007FEFDCF8EB5CE018F77907080589F4F9F
:1002B0008EBD0DB407FEFDCF8EB5C078DF77CC0FB5
:1002C000CD2FCC1FDD0BD195CEBD0DB407FEFDCFDC
:1002D0008EB51EBC0DB407FEFDCF1EB585E361E0F3
:1002E0000E94370C812FDF91CF911F91089585E3F4
:1002F00060E00E94370C812F90E0805C9F4F8EBDA4
:100300000DB407FEFDCF8EB5CF77D070CEBD0DB446
:1003100007FEFDCF8EB51EBC0DB407FEFDCF1EB58A
:1003200085E361E00E94370CDDCFEF92FF920F93DF
:100330001F93082F83E0602F70E00E943201E82EA7
:10034000FF2410E00F5F1F4F83E0B8010E943201CD
:10035000382F20E02E0D3F1DC9011F910F91FF90F6
:10036000EF9008950F931F93CF93DF93182FEB0116
:10037000042F60387105E0F1CB018058904080581F
:100380009F4728F0DF91CF911F910F91089585E34A
:1003900060E00E94370C812F90E080549F4F8EBD0B
:1003A0000DB407FEFDCF8EB5CE018F7790708058CB
:1003B0009F4F8EBD0DB407FEFDCF8EB5C078DF77A1
:1003C000CC0FCD2FCC1FDD0BD195CEBD0DB407FECC
:1003D000FDCF8EB50EBD0DB407FEFDCF8EB585E306
:1003E00061E00E94370CDF91CF911F910F9108952A
:1003F00085E360E00E94370C812F90E080549F4F8E
:100400008EBD0DB407FEFDCF8EB5CF77D070CEBDBB
:100410000DB407FEFDCF8EB50EBD0DB407FEFDCFAA
:100420008EB585E361E00E94370CDDCF86E360E0A6
:1004300070E041E00E94B2018DE267E070E040E8C8
:100440000E94B20188EC90E00E94090B86E360E014
:1004500070E040E00E94B2010895EF92FF920F9386
:100460001F93CF93DF937C018DE060E070E040E468
:100470000E94B2018DE061E070E00E943201482FDD
:100480004E7F4F5F8DE061E070E00E94B2018FE02F
:1004900061E070E00E943201182F8FE062E070E0AE
:1004A0000E94320115FD0BC014FD44C084FFEFCF44
:1004B00083E695E063E372E00E94490A06C083E6A2
:1004C00095E060E072E00E94490A8DE060E070E033
:1004D00040E40E94B20180E160E070E00E943201DD
:1004E0008F77082F10E00115110571F0C0E0D0E002
:1004F00081E1BE010E943201F701EC0FFD1F8083F4
:100500002196C017D107A4F385E160E070E00E9456
:10051000320185E161E070E00E94320185E162E034
:1005200070E00E943201DF91CF911F910F91FF90F7
:10053000EF90089583E695E062E172E00E94490A37
:10054000C4CFEF92FF920F931F93CF93DF937C0161
:100550008B018DE060E070E040E40E94B201101673
:10056000110674F4C0E0D0E0F701EC0FFD1F89E044
:10057000BE0140810E94B2012196C017D107A4F3A9
:10058000402F4E5F88E060E070E00E94B2018DE095
:1005900060E070E042E00E94B2018FE060E070E055
:1005A0000E94320187FD0CC08FE063E070E00E9482
:1005B000320184FFF2CF83E695E069E572E004C082
:1005C00083E695E06BE472E00E94490A8FE060E008
:1005D00070E04EEF0E94B2018DE060E070E040E418
:1005E0000E94B201DF91CF911F910F91FF90EF9088
:1005F0000895EF92FF920F931F93082F7B01AB0199
:10060000507083E0602F70E00E94B20110E00F5F35
:100610001F4F83E0B8014F2D0E94B2011F910F912F
:10062000FF90EF900895CF92DF92EF92FF920F9399
:100630001F9380E063E070E00E943201E82E80E0CA
:1006400062E070E00E943201F82E80E061E070E02C
:100650000E943201D82E80E060E070E00E943201FA
:10066000C82E03E615E0C80160E872E00E942A0A7D
:100670007E2D60E06F0D711DC80140E150E00E94C9
:10068000CC09C80169E872E00E942A0AC8016D2DF0
:1006900040E150E00E94FA09C8016CE772E00E9454
:1006A0002A0AC8016C2D40E150E00E940C0A1F91FB
:1006B0000F91FF90EF90DF90CF900895CF93DF934D
:1006C00084EC92E067E070E00E94A10284EC92E08A
:1006D0000E942D0283E695E060E972E00E942A0AFA
:1006E000C4ECD2E083E695E0699140E150E00E94DD
:1006F000FA0982E0CB3CD807A9F783E695E060EAE7
:1007000072E00E94490A68EE73E080E090E00E9487
:10071000DE0ADF91CF9108950F931F9303E615E052
:10072000C80140E855E260E070E00E946D0682E397
:1007300060E00E94750B83E361E00E94750B84E327
:1007400061E00E94750B85E361E00E94750B85E313
:1007500061E00E94370C80E00E94F70383E00E9472
:10076000FC0381E00E94ED030E940D040E9416022A
:100770000E9413038DE08093C4028EE08093C50233
:100780008CE08093C6028AE08093C7021092C80270
:100790001092C9021092CA0280E06AE070E00E94E2
:1007A000F902C80162EA72E00E942A0A80E00E940F
:1007B0009501BC01C80140E150E00E94DD0982E0E2
:1007C0006CEC7EED0E94F9028DE060E070E040E4A8
:1007D0000E94B2011F910F910895882321F08CB5DA
:1007E0008F7D8CBD08958CB580628CBD08959CB5BD
:1007F000937F982B9CBD08952CB5382F33702C7F98
:10080000322B3CBD2DB590E09595879595958795B4
:1008100081702E7F822B8DBD089585E361E00E945B
:10082000370C85E361E00E94750B8CB580618CBD4F
:100830008CB580648CBD84E361E00E94750B83E31A
:1008400061E00E94750B089508951F920F920FB6F4
:100850000F920BB60F9211242F933F934F938F93C8
:100860009F93EF93FF938091C00082FD2AC0409137
:10087000C60020918303309184032F5F3F4F2F7375
:10088000307080918503909186032817390759F0BD
:10089000E0918303F0918403ED5BFC4F4083309340
:1008A000840320938303FF91EF919F918F914F9148
:1008B0003F912F910F900BBE0F900FBE0F901F9086
:1008C00018958091C600EFCF08951F920F920FB632
:1008D0000F920BB60F9211242F933F934F938F9348
:1008E0009F93EF93FF938091C80082FD2AC04091AF
:1008F000CE0020910B0430910C042F5F3F4F2F73DB
:10090000307080910D0490910E042817390759F02A
:10091000E0910B04F0910C04E553FC4F40833093BD
:100920000C0420930B04FF91EF919F918F914F91B5
:100930003F912F910F900BBE0F900FBE0F901F9005
:1009400018958091CE00EFCF08951F920F920FB6A9
:100950000F920BB60F9211242F933F934F938F93C7
:100960009F93EF93FF938091D00082FD2AC0409126
:10097000D60020919304309194042F5F3F4F2F7342
:10098000307080919504909196042817390759F09A
:10099000E0919304F0919404ED5AFB4F408330931F
:1009A000940420939304FF91EF919F918F914F9125
:1009B0003F912F910F900BBE0F900FBE0F901F9085
:1009C00018958091D600EFCF08951F920F920FB621
:1009D0000F920BB60F9211242F933F934F938F9347
:1009E0009F93EF93FF938091300182FD2AC0409145
:1009F000360120911B0530911C052F5F3F4F2F734F
:100A0000307080911D0590911E052817390759F007
:100A1000E0911B05F0911C05E552FB4F408330939C
:100A20001C0520931B05FF91EF919F918F914F9192
:100A30003F912F910F900BBE0F900FBE0F901F9004
:100A4000189580913601EFCFE0916F05F091700518
:100A5000E05CFF4F8191919120813181821B930B4A
:100A60008F739070892BD1F5E0919105F0919205EB
:100A7000E05CFF4F8191919120813181821B930B2A
:100A80008F739070892B39F5E091B305F091B4051F
:100A9000E05CFF4F8191919120813181821B930B0A
:100AA0008F739070892BA1F4E091D505F091D60554
:100AB000E05CFF4F8191919120813181821B930BEA
:100AC0008F739070892B09F408950E94E4040895AF
:100AD0000E94A404E9CF0E946404D6CF0E9424049B
:100AE000C3CF1F920F920FB60F920BB60F92112425
:100AF0002F933F938F939F93EF93FF932091C7037F
:100B00003091C8038091C9039091CA03281739070F
:100B100009F1E091C903F091CA03E957FC4F208124
:100B20008091C9039091CA0301968F73907090933E
:100B3000CA038093C9032093C600FF91EF919F9150
:100B40008F913F912F910F900BBE0F900FBE0F9082
:100B50001F9018958091C1008F7D8093C100EDCFCB
:100B60001F920F920FB60F920BB60F9211242F9374
:100B70003F938F939F93EF93FF9320914F04309176
:100B8000500480915104909152042817390709F1BB
:100B9000E0915104F0915204E15FFB4F208180917C
:100BA00051049091520401968F7390709093520467
:100BB000809351042093CE00FF91EF919F918F91EC
:100BC0003F912F910F900BBE0F900FBE0F901F9073
:100BD00018958091C9008F7D8093C900EDCF1F9239
:100BE0000F920FB60F920BB60F9211242F933F93D3
:100BF0008F939F93EF93FF932091D7043091D80464
:100C00008091D9049091DA042817390709F1E0910D
:100C1000D904F091DA04E956FB4F20818091D90480
:100C20009091DA0401968F7390709093DA04809318
:100C3000D9042093D600FF91EF919F918F913F911E
:100C40002F910F900BBE0F900FBE0F901F90189515
:100C50008091D1008F7D8093D100EDCF1F920F92B4
:100C60000FB60F920BB60F9211242F933F938F93D1
:100C70009F93EF93FF9320915F05309160058091E2
:100C80006105909162052817390709F1E091610526
:100C9000F0916205E15EFA4F2081809161059091AB
:100CA000620501968F739070909362058093610541
:100CB00020933601FF91EF919F918F913F912F915A
:100CC0000F900BBE0F900FBE0F901F901895809144
:100CD00031018F7D80933101EDCFDF92EF92FF9252
:100CE0000F931F93CF93DF93EC017A018B01DD24E7
:100CF000403081EE580780E0680780E0780721F1F6
:100D0000DD24D394EC89FD8981E090E008A002C045
:100D1000880F991F0A94E2F7808360E079E08DE301
:100D200090E0A80197010E948C0C21503040404077
:100D30005040569547953795279580E120303807E4
:100D4000D0F0DD20C1F0DD24EC89FD89108260E85F
:100D500074E88EE190E0A80197010E948C0C21506C
:100D6000304040405040569547953795279580E153
:100D70002030380730F7E889F9893083EA89FB8920
:100D8000208319A2EE89FF89408121E030E0C9016A
:100D90000C8C02C0880F991F0A94E2F7482B4083FD
:100DA000EE89FF894081C9010D8C02C0880F991F0F
:100DB0000A94E2F7482B4083EE89FF894081C901FC
:100DC0000E8C02C0880F991F0A94E2F7482B4083CB
:100DD000EE89FF8980810F8C02C0220F331F0A9495
:100DE000E2F7209528232083DF91CF911F910F9167
:100DF000FF90EF90DF900895DC011C96ED91FC913F
:100E00001D97E05CFF4F2191319180819181281BDA
:100E1000390B2F733070C9010895DC011C96ED91D8
:100E2000FC911D97E05CFF4F20813181E054F04040
:100E3000DF01AE5BBF4F8D919C9111972817390749
:100E400049F08D919C91E80FF91F8081282F30E0A7
:100E5000C90108952FEF3FEFC9010895DC011C96E9
:100E6000ED91FC911D97E05CFF4F20813181E054B2
:100E7000F040DF01AE5BBF4F8D919C911197281719
:100E8000390791F08D919C911197E80FF91F2081FE
:100E90008D919C91119701968F73907011969C93F0
:100EA0008E9330E0C90108952FEF3FEFC9010895F7
:100EB000FC0181A1882311F411A20895A489B589A8
:100EC0008C9186FFFDCF11A20895CF93DF93EC01A3
:100ED000AE85BF85AD01405C5F4FFA012081318155
:100EE0002F5F3F4F2F733070FD01EE5BFF4F80810E
:100EF000918128173907D9F3FA0180819181A80FD0
:100F0000B91F6C93EE85FF85E05CFF4F3183208332
:100F1000EE89FF89208181E090E00F8C02C0880F6C
:100F2000991F0A94E2F7282B208381E089A3EC899A
:100F3000FD8980818064808381E090E0DF91CF91A2
:100F400008951F93109266051092650528EE33E010
:100F500040E050E0209367053093680540936905B1
:100F600050936A0567EB72E07093640560936305C4
:100F700083E493E09093700580936F0587E893E096
:100F8000909372058093710585EC90E090937405C1
:100F90008093730584EC90E09093760580937505BB
:100FA00080EC90E0909378058093770581EC90E059
:100FB00090937A058093790582EC90E090937C057C
:100FC00080937B0586EC90E090937E0580937D0571
:100FD00014E010937F05B3E0B0938005A7E0A093E1
:100FE0008105F5E0F0938205E1E0E093830510923E
:100FF0008805109287052093890530938A054093D0
:101000008B0550938C0570938605609385058BEC5A
:1010100093E090939205809391058FE094E09093F4
:101020009405809393058DEC90E0909396058093C2
:1010300095058CEC90E0909398058093970588EC4B
:1010400090E090939A058093990589EC90E09093B5
:101050009C0580939B058AEC90E090939E0580937D
:101060009D058EEC90E09093A00580939F051093D2
:10107000A105B093A205A093A305F093A405E09366
:10108000A5051092AA051092A9052093AB053093EF
:10109000AC054093AD055093AE057093A8056093E1
:1010A000A70583E594E09093B4058093B30587E9A1
:1010B00094E09093B6058093B50585ED90E090930C
:1010C000B8058093B70584ED90E09093BA058093BE
:1010D000B90580ED90E09093BC058093BB0581ED50
:1010E00090E09093BE058093BD0582ED90E09093D3
:1010F000C0058093BF0586ED90E09093C205809374
:10110000C1051093C305B093C405A093C505F09322
:10111000C605E093C7051092CC051092CB0520932D
:10112000CD053093CE054093CF055093D0057093F5
:10113000CA056093C9058BED94E09093D605809322
:10114000D5058FE195E09093D8058093D70585E389
:1011500091E09093DA058093D90584E391E0909330
:10116000DC058093DB0580E391E09093DE058093BE
:10117000DD0581E391E09093E0058093DF0582E354
:1011800091E09093E2058093E10586E391E09093EE
:10119000E4058093E3051093E505B093E605A0937D
:1011A000E705F093E805E093E9051F9108950E9493
:1011B000130B0E948C030E945E0384E295E0892B4E
:1011C00029F00E9424050E945E03FBCF0E945E036B
:1011D0000E945E03FBCFCF92DF92EF92FF920F93BC
:1011E0001F93CF93DF937C016B01EA0141155105F9
:1011F000D9F000E010E0D6016D916D01D701ED91BD
:10120000FC910190F081E02DC7011995080F191F7D
:10121000219789F7C801DF91CF911F910F91FF901E
:10122000EF90DF90CF90089500E010E0F3CFEF92C1
:10123000FF920F931F938C01DC01ED91FC910190C3
:10124000F081E02D6DE019957C01D801ED91FC91C4
:101250000190F081E02DC8016AE019959C012E0DE6
:101260003F1DC9011F910F91FF90EF9008954F927C
:101270005F927F928F929F92AF92BF92CF92DF92B6
:10128000EF92FF920F931F93DF93CF93CDB7DEB70B
:10129000A1970FB6F894DEBF0FBECDBF2C01742E00
:1012A000CB01223008F460C0822E9924AA24BB24EA
:1012B00019A221E2C22ED12CCC0EDD1E0BC0405D46
:1012C000F6014083E114F1040105110501F17E2CC2
:1012D0005F2DC801672D752FA50194010E948C0C0C
:1012E00079018A01C801B701A50194010E946D0C22
:1012F000472D461B0894C108D1084A3004F3495CC5
:10130000F6014083E114F1040105110501F7C11450
:10131000D10481F1D6010D900020E9F71197AC19A5
:10132000BD09F20180819181FC0122813381C201DA
:10133000B601AD01F90119959C01C901A1960FB63D
:10134000F894DEBF0FBECDBFCF91DF911F910F91FB
:10135000FF90EF90DF90CF90BF90AF909F908F90D5
:101360007F905F904F9008953AE0832E912CA12CAE
:10137000B12C9ECF20E030E0E0CFDC01211531051B
:1013800019F00E9437090895ED91FC910190F081C8
:10139000E02D642F19950895EF92FF920F931F93FC
:1013A0009A017B0100E010E0B801A7010E94BD098D
:1013B0001F910F91FF90EF900895CF92DF92EF92DF
:1013C000FF920F931F936C017B019A0100E010E0E4
:1013D000B801A7010E94BD098C01C6010E9417092E
:1013E000080F191FC8011F910F91FF90EF90DF9018
:1013F000CF900895EF92FF920F931F939A01E62EDC
:10140000FF2400E010E0B801A7010E94BD091F9170
:101410000F91FF90EF900895CF92DF92EF92FF929D
:101420000F931F936C01E62E9A01FF2400E010E059
:10143000B801A7010E94BD098C01C6010E941709CD
:10144000080F191FC8011F910F91FF90EF90DF90B7
:10145000CF900895CF93DF93EC016115710599F05A
:10146000DB010D900020E9F71197A61BB70BE8816F
:10147000F9810280F381E02DAD0119959C01C9012C
:10148000DF91CF91089520E030E0C901DF91CF9145
:1014900008950F931F93CF93DF93EC0161157105AE
:1014A000D9F0DB010D900020E9F71197A61BB70BCF
:1014B000E881F9810280F381E02DAD0119958C015D
:1014C000CE010E9417099801280F391FC901DF9129
:1014D000CF911F910F91089500E010E0F1CF1F927E
:1014E0000F920FB60F9211242F933F938F939F93D8
:1014F000AF93BF938091EF059091F005A091F10516
:10150000B091F2053091F3050196A11DB11D232F75
:101510002D5F2D3720F02D570196A11DB11D209371
:10152000F3058093EF059093F005A093F105B09338
:10153000F2058091EB059091EC05A091ED05B0913D
:10154000EE050196A11DB11D8093EB059093EC056E
:10155000A093ED05B093EE05BF91AF919F918F9150
:101560003F912F910F900FBE0F901F9018959FB72E
:10157000F8942091EB053091EC054091ED055091E8
:10158000EE0586B5A89B06C08F3F21F02F5F3F4F29
:101590004F4F5F4F9FBF542F432F322F2227280FCB
:1015A000311D411D511D220F331F441F551F220F96
:1015B000331F441F551FB901CA010895EF92FF92CE
:1015C0000F931F93CF93DF937B018C010E94B70A87
:1015D000E114F10401051105A9F0EB010E94B70A1D
:1015E0006C1B7D0B685E7340C8F30894E108F1083A
:1015F00001091109E114F1040105110519F0C8519F
:10160000DC4FECCFDF91CF911F910F91FF90EF90C6
:101610000895019739F0880F991F880F991F029735
:101620000197F1F70895789484B5826084BD84B5FC
:10163000816084BD85B5826085BD85B5816085BDCD
:10164000EEE6F0E0808181608083E1E8F0E01082E6
:10165000808182608083808181608083E0E8F0E027
:10166000808181608083E1EBF0E080818460808311
:10167000E0EBF0E0808181608083E1E9F0E080814F
:1016800082608083808181608083E0E9F0E08081F6
:1016900081608083E1EAF0E08081826080838081E4
:1016A00081608083E0EAF0E0808181608083E1E214
:1016B000F1E0808182608083808181608083E0E2CC
:1016C000F1E0808181608083EAE7F0E080818460DE
:1016D000808380818260808380818160808380813B
:1016E000806880831092C1000895CF93DF93482FC4
:1016F00050E0CA0188589E4FFC0134914E5C5E4F09
:10170000FA0184918823B9F090E0880F991FFC01B9
:10171000EC51FF4FA591B491FC01E250FF4FC591F0
:10172000D491662359F06230B9F09FB7F8948C9148
:10173000832B8C939FBFDF91CF9108952FB7F8949F
:101740008C91932F909589238C938881892388830A
:101750002FBFDF91CF9108952FB7F8948C91932FDD
:10176000909589238C938881832B88832FBFE3CF27
:10177000893009F45EC08A3070F08D3009F45FC0A2
:101780008E30D0F0803109F46CC0813109F463C02F
:101790008F30C9F10895843009F445C08530B8F020
:1017A0008730B9F1883048F58630A1F78091B000D4
:1017B0008F778093B00008958B3009F446C08C3049
:1017C000B0F08091A0008F7D8093A00008958230BA
:1017D00031F1833030F48130E9F684B58F7784BD00
:1017E0000895809180008F77809380000895809184
:1017F0009000877F809390000895809190008F776C
:10180000809390000895809120018F77809320012C
:1018100008958091B0008F7D8093B000089584B5C5
:101820008F7D84BD0895809180008F7D809380009E
:101830000895809190008F7D80939000089580910D
:10184000A000877F8093A00008958091A0008F77EB
:101850008093A000089580912001877F80932001CC
:101860000895809120018F7D809320010895FF923B
:101870000F931F93F62E482F50E0CA0182549E4FBB
:10188000FC012491CA0188589E4FFC0104914E5CD2
:101890005E4FFA011491112399F02223D1F4E12F24
:1018A000F0E0EE0FFF1FE250FF4FA591B4919FB7FC
:1018B000F894FF2049F48C91009580238C939FBF6E
:1018C0001F910F91FF9008958C91802B8C939FBF57
:1018D000F7CF822F0E94B80BE2CF629FD001739F97
:1018E000F001829FE00DF11D649FE00DF11D929FBC
:1018F000F00D839FF00D749FF00D659FF00D9927FB
:10190000729FB00DE11DF91F639FB00DE11DF91F1E
:10191000BD01CF0111240895A1E21A2EAA1BBB1B01
:10192000FD010DC0AA1FBB1FEE1FFF1FA217B307AB
:10193000E407F50720F0A21BB30BE40BF50B661FC1
:10194000771F881F991F1A9469F760957095809585
:1019500090959B01AC01BD01CF010895EE0FFF1FD3
:0C1960000590F491E02D1994F894FFCF4D
:10196C00446174612072656365697665643A204FE1
:10197C004B004572726F723A2052656365697665E9
:10198C0072205048592068656164657220457272F6
:10199C006F72004572726F723A2052656365697698
:1019AC006572204F76657272756E004461746120A9
:1019BC0073656E743A204F4B004572726F723A2009
:1019CC005472616E736D697420427566666572201F
:1019DC004572726F72004555493A20002E000A007C
:1019EC004465766963653A2000205665722E2000A6
:1019FC004461746F20726563696269646F3A200098
:101A0C00200053686F727420416464726573732094
:101A1C002D2000000000006507EB08FC062E070DCA
:041A2C000758070050
:00000001FF
