:100000000C9403010C9430010C9430010C943001D9
:100010000C9430010C9430010C9430010C9430019C
:100020000C9430010C9430010C9430010C9430018C
:100030000C9430010C9430010C9430010C9430017C
:100040000C9430010C9430010C9430010C9430016C
:100050000C9430010C9430010C9430010C94810903
:100060000C9430010C9454030C94A0040C943001B3
:100070000C9430010C9430010C9430010C9430013C
:100080000C9430010C9430010C9430010C9430012C
:100090000C9494030C94DF040C9430010C94300104
:1000A0000C9430010C9430010C9430010C9430010C
:1000B0000C9430010C9430010C9430010C943001FC
:1000C0000C9430010C9430010C9430010C94D40346
:1000D0000C941E050C9430010C9414040C945D05D2
:1000E0000C94300100002100240027002A002D007C
:1000F0003000330001010000040107010A01000083
:100100002200250028002B002E00310034000201BF
:100110000000050108010B0100002000230026005B
:1001200029002C002F00320000010000030106010D
:10013000090105050505070508080808020202026D
:100140000A0A080804040404010101010101010173
:100150000303030303030303040707070C0C0C0C3E
:100160000C0C0C0C02020202060606060606060627
:100170000B0B0B0B0B0B0B0B0102102020080810B4
:100180002040102040800201020108040201010207
:1001900004081020408080402010080402018004E0
:1001A000020180402010080402010804020101023B
:1001B0000408102040800102040810204080000044
:1001C000090A02080B0C0D070603040100000000D9
:1001D000000000000000000000000000000000001F
:1001E0000000000000000000000011100F000000DF
:1001F00000000000000000000000000000000000FF
:1002000000000000D00611241FBECFEFD1E2DEBFF8
:10021000CDBF00E00CBF12E0A0E0B2E0ECE7F7E1F8
:1002200000E00BBF02C007900D92AA33B107D9F7C7
:100230001BBE14E0AAE3B2E001C01D92A03FB107CB
:10024000E1F712E0C6E0D2E004C02297FE010E946E
:10025000B80BC430D107C9F70E9406080C94BC0B38
:100260000C9400000F931F93CF93DF938C01EB014D
:1002700060387105E8F1CB018058904080589F4765
:1002800038F010E0812FDF91CF911F910F910895E9
:1002900085E360E00E943F0B005C1F4F0EBD0DB474
:1002A00007FEFDCF8EB5CE018F77907080589F4F9F
:1002B0008EBD0DB407FEFDCF8EB5C078DF77CC0FB5
:1002C000CD2FCC1FDD0BD195CEBD0DB407FEFDCFDC
:1002D0008EB51EBC0DB407FEFDCF1EB585E361E0F3
:1002E0000E943F0B812FDF91CF911F910F910895B5
:1002F00085E360E00E943F0B005C1F4F0EBD0DB414
:1003000007FEFDCF8EB5CF77D070CEBD0DB407FE02
:10031000FDCF8EB51EBC0DB407FEFDCF1EB585E327
:1003200061E00E943F0BDECFFF920F931F93CF93AC
:10033000DF938C01EB01F42E60387105E0F1CB0105
:100340008058904080589F4730F0DF91CF911F91A7
:100350000F91FF90089585E360E00E943F0B0054E9
:100360001F4F0EBD0DB407FEFDCF8EB5CE018F77AA
:10037000907080589F4F8EBD0DB407FEFDCF8EB597
:10038000C078DF77CC0FCD2FCC1FDD0BD195CEBD44
:100390000DB407FEFDCF8EB5FEBC0DB407FEFDCF3C
:1003A0008EB585E361E00E943F0BDF91CF911F91F5
:1003B0000F91FF90089585E360E00E943F0B005489
:1003C0001F4F0EBD0DB407FEFDCF8EB5CF77D07099
:1003D000CEBD0DB407FEFDCF8EB5FEBC0DB407FE3D
:1003E000FDCF8EB585E361E00E943F0BDECFCF925B
:1003F000DF92EF92FF920F931F9380E090E063E013
:1004000070E00E943201E82E80E090E062E070E04F
:100410000E943201F82E80E090E061E070E00E94DE
:100420003201D82E80E090E060E070E00E9432015E
:10043000C82E0FE514E0C80168E072E00E943C0994
:100440007E2D60E06F0D711DC80140E150E00E94FB
:10045000FB08C80161E172E00E943C09C8016D2DF2
:1004600040E150E00E940C09C80166E072E00E9481
:100470003C09C8016C2D40E150E00E941E091F910B
:100480000F91FF90EF90DF90CF9008951F93809190
:100490003A02882309F49CC089E090E060E070E0B3
:1004A0004DE050E00E94940189E090E061E070E04E
:1004B0004EE050E00E94940189E090E062E070E03C
:1004C0004CE050E00E94940189E090E063E070E02D
:1004D0004AE050E00E94940189E090E064E070E01E
:1004E00042E050E00E94940189E090E065E070E015
:1004F00040E050E00E94940189E090E066E070E006
:1005000041E050E00E94940189E090E067E070E0F3
:1005100045E050E00E9494018AE080933E0288E02A
:1005200090E060E070E04AE050E00E9494018DE0CD
:1005300090E060E070E00E943201482F4E5F4093EF
:100540003C028DE090E060E070E050E00E94940199
:1005500010923B0204C080913B02882371F48FE02B
:1005600090E060E070E00E943201807880933D026C
:10057000803889F781E080933B028DE090E060E075
:1005800070E00E943201482F4F7B405C40933C0258
:100590008DE090E060E070E050E00E9494018FE513
:1005A00094E06BE172E00E945B0980913B0288233A
:1005B00069F011E010933B0264E670E080E090E0A7
:1005C0000E94F00980913B028823A1F71F910895B2
:1005D00081E080933A028FE594E068E172E00E9446
:1005E0005B090E94F70158CF8FE594E040E855E29F
:1005F00060E070E00E949C0582E360E00E947D0A5A
:1006000083E361E00E947D0A84E361E00E947D0A49
:1006100085E361E00E947D0A85E361E00E943F0B73
:1006200080E00E94260383E00E942B0381E00E9469
:100630001C030E943C030895882321F08CB58F7D14
:100640008CBD08958CB580628CBD08959CB5937F58
:10065000982B9CBD08952CB5382F33702C7F322BEE
:100660003CBD2DB590E095958795959587958170C2
:100670002E7F822B8DBD089585E361E00E943F0BA4
:1006800085E361E00E947D0A8CB580618CBD8CB5EC
:1006900080648CBD84E361E00E947D0A83E361E0B5
:1006A0000E947D0A089508951F920F920FB60F922F
:1006B0000BB60F9211242F933F934F938F939F93D9
:1006C000EF93FF938091C00082FD2AC04091C60045
:1006D00020917F02309180022F5F3F4F2F73307047
:1006E00080918102909182022817390759F0E09198
:1006F0007F02F0918002E15CFD4F408330938002E5
:1007000020937F02FF91EF919F918F914F913F91A5
:100710002F910F900BBE0F900FBE0F901F9018954A
:100720008091C600EFCF08951F920F920FB60F92DF
:100730000BB60F9211242F933F934F938F939F9358
:10074000EF93FF938091C80082FD2AC04091CE00B4
:1007500020910703309108032F5F3F4F2F733070B4
:100760008091090390910A032817390759F0E09105
:100770000703F0910803E953FD4F408330930803CA
:1007800020930703FF91EF919F918F914F913F919C
:100790002F910F900BBE0F900FBE0F901F901895CA
:1007A0008091CE00EFCF08951F920F920FB60F9257
:1007B0000BB60F9211242F933F934F938F939F93D8
:1007C000EF93FF938091D00082FD2AC04091D60024
:1007D00020918F03309190032F5F3F4F2F73307024
:1007E00080919103909192032817390759F0E09175
:1007F0008F03F0919003E15BFC4F408330939003B3
:1008000020938F03FF91EF919F918F914F913F9193
:100810002F910F900BBE0F900FBE0F901F90189549
:100820008091D600EFCF08951F920F920FB60F92CE
:100830000BB60F9211242F933F934F938F939F9357
:10084000EF93FF938091300182FD2AC040913601E1
:1008500020911704309118042F5F3F4F2F73307091
:100860008091190490911A042817390759F0E091E2
:100870001704F0911804E952FC4F40833093180498
:1008800020931704FF91EF919F918F914F913F918A
:100890002F910F900BBE0F900FBE0F901F901895C9
:1008A00080913601EFCFE0916B04F0916C04E05C35
:1008B000FF4F8191919120813181821B930B8F7326
:1008C0009070892BD1F5E0918D04F0918E04E05C5D
:1008D000FF4F8191919120813181821B930B8F7306
:1008E0009070892B39F5E091AF04F091B004E05C91
:1008F000FF4F8191919120813181821B930B8F73E6
:100900009070892BA1F4E091D104F091D204E05CC5
:10091000FF4F8191919120813181821B930B8F73C5
:100920009070892B09F408950E94130408950E9481
:10093000D303E9CF0E949303D6CF0E945303C3CFC2
:100940001F920F920FB60F920BB60F9211242F9396
:100950003F938F939F93EF93FF932091C302309126
:10096000C4028091C5029091C6022817390709F187
:10097000E091C502F091C602ED57FD4F20818091B4
:10098000C5029091C60201968F7390709093C60233
:100990008093C5022093C600FF91EF919F918F91A4
:1009A0003F912F910F900BBE0F900FBE0F901F9095
:1009B00018958091C1008F7D8093C100EDCF1F926B
:1009C0000F920FB60F920BB60F9211242F933F93F5
:1009D0008F939F93EF93FF9320914B0330914C03A0
:1009E00080914D0390914E032817390709F1E0914A
:1009F0004D03F0914E03E55FFC4F208180914D0344
:100A000090914E0301968F73907090934E03809354
:100A10004D032093CE00FF91EF919F918F913F91D5
:100A20002F910F900BBE0F900FBE0F901F90189537
:100A30008091C9008F7D8093C900EDCF1F920F92E6
:100A40000FB60F920BB60F9211242F933F938F93F3
:100A50009F93EF93FF932091D3033091D403809120
:100A6000D5039091D6032817390709F1E091D503F2
:100A7000F091D603ED56FC4F20818091D5039091E3
:100A8000D60301968F7390709093D6038093D5030D
:100A90002093D600FF91EF919F918F913F912F91DD
:100AA0000F900BBE0F900FBE0F901F901895809166
:100AB000D1008F7D8093D100EDCF1F920F920FB6A2
:100AC0000F920BB60F9211242F933F938F939F9306
:100AD000EF93FF9320915B0430915C0480915D045F
:100AE00090915E042817390709F1E0915D04F091B7
:100AF0005E04E55EFB4F208180915D0490915E0471
:100B000001968F73907090935E0480935D042093A0
:100B10003601FF91EF919F918F913F912F910F900F
:100B20000BBE0F900FBE0F901F9018958091310152
:100B30008F7D80933101EDCFDF92EF92FF920F9383
:100B40001F93CF93DF93EC017A018B01DD244030BA
:100B500081EE580780E0680780E0780721F1DD2406
:100B6000D394EC89FD8981E090E008A002C0880F51
:100B7000991F0A94E2F7808360E079E08DE390E0CA
:100B8000A80197010E94940B2150304040405040F2
:100B9000569547953795279580E120303807D0F056
:100BA000DD20C1F0DD24EC89FD89108260E874E865
:100BB0008EE190E0A80197010E94940B21503040F3
:100BC00040405040569547953795279580E1203015
:100BD000380730F7E889F9893083EA89FB8920836F
:100BE00019A2EE89FF89408121E030E0C9010C8C17
:100BF00002C0880F991F0A94E2F7482B4083EE89C0
:100C0000FF894081C9010D8C02C0880F991F0A9489
:100C1000E2F7482B4083EE89FF894081C9010E8CA1
:100C200002C0880F991F0A94E2F7482B4083EE898F
:100C3000FF8980810F8C02C0220F331F0A94E2F7D4
:100C4000209528232083DF91CF911F910F91FF9052
:100C5000EF90DF900895DC011C96ED91FC911D97BB
:100C6000E05CFF4F2191319180819181281B390BEC
:100C70002F733070C9010895DC011C96ED91FC9131
:100C80001D97E05CFF4F20813181E054F040DF018F
:100C9000AE5BBF4F8D919C9111972817390749F092
:100CA0008D919C91E80FF91F8081282F30E0C901B8
:100CB00008952FEF3FEFC9010895DC011C96ED91D7
:100CC000FC911D97E05CFF4F20813181E054F040A2
:100CD000DF01AE5BBF4F8D919C91119728173907AB
:100CE00091F08D919C911197E80FF91F20818D91C2
:100CF0009C91119701968F73907011969C938E938F
:100D000030E0C90108952FEF3FEFC9010895FC01BC
:100D100081A1882311F411A20895A489B5898C9129
:100D200086FFFDCF11A20895CF93DF93EC01AE852E
:100D3000BF85AD01405C5F4FFA01208131812F5F9B
:100D40003F4F2F733070FD01EE5BFF4F808191812B
:100D500028173907D9F3FA0180819181A80FB91FAB
:100D60006C93EE85FF85E05CFF4F31832083EE8935
:100D7000FF89208181E090E00F8C02C0880F991FCD
:100D80000A94E2F7282B208381E089A3EC89FD896E
:100D900080818064808381E090E0DF91CF9108952D
:100DA0001F93109262041092610428EE33E040E039
:100DB00050E020936304309364044093650450939F
:100DC00066046DE272E07093600460935F048FE3E9
:100DD00092E090936C0480936B0483E892E090938C
:100DE0006E0480936D0485EC90E090937004809382
:100DF0006F0484EC90E0909372048093710480EC13
:100E000090E0909374048093730481EC90E090934D
:100E100076048093750482EC90E09093780480933C
:100E2000770486EC90E090937A048093790414E040
:100E300010937B04B3E0B0937C04A7E0A0937D04FF
:100E4000F5E0F0937E04E1E0E0937F0410928404E7
:100E50001092830420938504309386044093870482
:100E600050938804709382046093810487EC92E02D
:100E700090938E0480938D048BE093E09093900484
:100E800080938F048DEC90E0909392048093910472
:100E90008CEC90E0909394048093930488EC90E021
:100EA000909396048093950489EC90E09093980435
:100EB000809397048AEC90E090939A04809399042D
:100EC0008EEC90E090939C0480939B0410939D047F
:100ED000B0939E04A0939F04F093A004E093A10418
:100EE0001092A6041092A5042093A7043093A8049E
:100EF0004093A9045093AA047093A4046093A3049C
:100F00008FE493E09093B0048093AF0483E993E07F
:100F10009093B2048093B10485ED90E09093B40473
:100F20008093B30484ED90E09093B6048093B5046D
:100F300080ED90E09093B8048093B70481ED90E049
:100F40009093BA048093B90482ED90E09093BC042E
:100F50008093BB0486ED90E09093BE048093BD0423
:100F60001093BF04B093C004A093C104F093C204D3
:100F7000E093C3041092C8041092C7042093C904DC
:100F80003093CA044093CB045093CC047093C604AE
:100F90006093C50487ED93E09093D2048093D104CD
:100FA0008BE194E09093D4048093D30485E391E0A3
:100FB0009093D6048093D50484E391E09093D80471
:100FC0008093D70480E391E09093DA048093D9046E
:100FD00081E391E09093DC048093DB0482E391E071
:100FE0009093DE048093DD0486E391E09093E00427
:100FF0008093DF041093E104B093E204A093E30430
:10100000F093E404E093E5041F9108950E941B0A05
:101010000E94F4020E94460283E594E0892B29F0A5
:101020000E9453040E944602FBCF0E9446020E9487
:101030004602FBCFCF92DF92EF92FF920F931F9366
:10104000CF93DF937C016B01EA0141155105D9F083
:1010500000E010E0D6016D916D01D701ED91FC919A
:101060000190F081E02DC7011995080F191F2197F4
:1010700089F7C801DF91CF911F910F91FF90EF90F9
:10108000DF90CF90089500E010E0F3CFEF92FF9251
:101090000F931F938C01DC01ED91FC910190F08185
:1010A000E02D6DE019957C01D801ED91FC91019046
:1010B000F081E02DC8016AE019959C012E0D3F1DBD
:1010C000C9011F910F91FF90EF9008954F925F9289
:1010D0007F928F929F92AF92BF92CF92DF92EF92C8
:1010E000FF920F931F93DF93CF93CDB7DEB7A197F6
:1010F0000FB6F894DEBF0FBECDBF2C01742ECB010E
:10110000223008F460C0822E9924AA24BB2419A29C
:1011100021E2C22ED12CCC0EDD1E0BC0405DF601AB
:101120004083E114F1040105110501F17E2C5F2DCE
:10113000C801672D752FA50194010E94940B7901B8
:101140008A01C801B701A50194010E94750B472DC2
:10115000461B0894C108D1084A3004F3495CF601E3
:101160004083E114F1040105110501F7C114D10414
:1011700081F1D6010D900020E9F71197AC19BD0956
:10118000F20180819181FC0122813381C201B6018B
:10119000AD01F90119959C01C901A1960FB6F8940A
:1011A000DEBF0FBECDBFCF91DF911F910F91FF909A
:1011B000EF90DF90CF90BF90AF909F908F907F90F7
:1011C0005F904F9008953AE0832E912CA12CB12C82
:1011D0009ECF20E030E0E0CFDC012115310519F091
:1011E0000E9466080895ED91FC910190F081E02D38
:1011F000642F19950895EF92FF920F931F939A0110
:101200007B0100E010E0B801A7010E94EC081F91EB
:101210000F91FF90EF900895EF92FF920F931F931D
:101220009A01E62EFF2400E010E0B801A7010E9419
:10123000EC081F910F91FF90EF900895CF92DF92ED
:10124000EF92FF920F931F936C01E62E9A01FF24F9
:1012500000E010E0B801A7010E94EC088C01C60173
:101260000E944608080F191FC8011F910F91FF9097
:10127000EF90DF90CF900895CF93DF93EC0161154D
:10128000710599F0DB010D900020E9F71197A61B7D
:10129000B70BE881F9810280F381E02DAD0119954A
:1012A0009C01C901DF91CF91089520E030E0C90190
:1012B000DF91CF9108950F931F93CF93DF93EC01AC
:1012C00061157105D9F0DB010D900020E9F7119748
:1012D000A61BB70BE881F9810280F381E02DAD01F7
:1012E00019958C01CE010E9446089801280F391FDC
:1012F000C901DF91CF911F910F91089500E010E097
:10130000F1CF1F920F920FB60F9211242F933F939C
:101310008F939F93AF93BF938091EB049091EC04D4
:10132000A091ED04B091EE043091EF040196A11D5F
:10133000B11D232F2D5F2D3720F02D570196A11DB4
:10134000B11D2093EF048093EB049093EC04A093E1
:10135000ED04B093EE048091E7049091E804A0912D
:10136000E904B091EA040196A11DB11D8093E70440
:101370009093E804A093E904B093EA04BF91AF917D
:101380009F918F913F912F910F900FBE0F901F90C3
:1013900018959FB7F8942091E7043091E8044091A4
:1013A000E9045091EA0486B5A89B06C08F3F21F05E
:1013B0002F5F3F4F4F4F5F4F9FBF542F432F322F11
:1013C0002227280F311D411D511D220F331F441F9D
:1013D000551F220F331F441F551FB901CA0108951D
:1013E000EF92FF920F931F93CF93DF937B018C01BA
:1013F0000E94C909E114F10401051105A9F0EB01EE
:101400000E94C9096C1B7D0B685E7340C8F3089489
:10141000E108F10801091109E114F10401051105C0
:1014200019F0C851DC4FECCFDF91CF911F910F9194
:10143000FF90EF900895789484B5826084BD84B560
:10144000816084BD85B5826085BD85B5816085BDBF
:10145000EEE6F0E0808181608083E1E8F0E01082D8
:10146000808182608083808181608083E0E8F0E019
:10147000808181608083E1EBF0E080818460808303
:10148000E0EBF0E0808181608083E1E9F0E0808141
:1014900082608083808181608083E0E9F0E08081E8
:1014A00081608083E1EAF0E08081826080838081D6
:1014B00081608083E0EAF0E0808181608083E1E206
:1014C000F1E0808182608083808181608083E0E2BE
:1014D000F1E0808181608083EAE7F0E080818460D0
:1014E000808380818260808380818160808380812D
:1014F000806880831092C1000895CF93DF93482FB6
:1015000050E0CA0188589E4FFC0134914E5C5E4FFA
:10151000FA0184918823B9F090E0880F991FFC01AB
:10152000EC51FF4FA591B491FC01E250FF4FC591E2
:10153000D491662359F06230B9F09FB7F8948C913A
:10154000832B8C939FBFDF91CF9108952FB7F89491
:101550008C91932F909589238C93888189238883FC
:101560002FBFDF91CF9108952FB7F8948C91932FCF
:10157000909589238C938881832B88832FBFE3CF19
:10158000893009F45EC08A3070F08D3009F45FC094
:101590008E30D0F0803109F46CC0813109F463C021
:1015A0008F30C9F10895843009F445C08530B8F012
:1015B0008730B9F1883048F58630A1F78091B000C6
:1015C0008F778093B00008958B3009F446C08C303B
:1015D000B0F08091A0008F7D8093A00008958230AC
:1015E00031F1833030F48130E9F684B58F7784BDF2
:1015F0000895809180008F77809380000895809176
:101600009000877F809390000895809190008F775D
:10161000809390000895809120018F77809320011E
:1016200008958091B0008F7D8093B000089584B5B7
:101630008F7D84BD0895809180008F7D8093800090
:101640000895809190008F7D8093900008958091FF
:10165000A000877F8093A00008958091A0008F77DD
:101660008093A000089580912001877F80932001BE
:101670000895809120018F7D809320010895FF922D
:101680000F931F93F62E482F50E0CA0182549E4FAD
:10169000FC012491CA0188589E4FFC0104914E5CC4
:1016A0005E4FFA011491112399F02223D1F4E12F16
:1016B000F0E0EE0FFF1FE250FF4FA591B4919FB7EE
:1016C000F894FF2049F48C91009580238C939FBF60
:1016D0001F910F91FF9008958C91802B8C939FBF49
:1016E000F7CF822F0E94C00AE2CF629FD001739F82
:1016F000F001829FE00DF11D649FE00DF11D929FAE
:10170000F00D839FF00D749FF00D659FF00D9927EC
:10171000729FB00DE11DF91F639FB00DE11DF91F10
:10172000BD01CF0111240895A1E21A2EAA1BBB1BF3
:10173000FD010DC0AA1FBB1FEE1FFF1FA217B3079D
:10174000E407F50720F0A21BB30BE40BF50B661FB3
:10175000771F881F991F1A9469F760957095809577
:1017600090959B01AC01BD01CF010895EE0FFF1FC5
:0C1770000590F491E02D1994F894FFCF3F
:10177C004555493A20002E004465766963653A2048
:10178C0000205665722E20002D2D004461746120BE
:10179C0073656E743A204F4B000000000094061ADB
:0A17AC00082B065D063C06870600C8
:00000001FF
