:100000000C9403010C9430010C9430010C943001D9
:100010000C9430010C9430010C9430010C9430019C
:100020000C9430010C9430010C9430010C9430018C
:100030000C9430010C9430010C9430010C9430017C
:100040000C9430010C9430010C9430010C9430016C
:100050000C9430010C9430010C9430010C94C209C2
:100060000C9430010C9495030C94E1040C94300131
:100070000C9430010C9430010C9430010C9430013C
:100080000C9430010C9430010C9430010C9430012C
:100090000C94D5030C9420050C9430010C94300181
:1000A0000C9430010C9430010C9430010C9430010C
:1000B0000C9430010C9430010C9430010C943001FC
:1000C0000C9430010C9430010C9430010C94150404
:1000D0000C945F050C9430010C9455040C949E050F
:1000E0000C94300100002100240027002A002D007C
:1000F0003000330001010000040107010A01000083
:100100002200250028002B002E00310034000201BF
:100110000000050108010B0100002000230026005B
:1001200029002C002F00320000010000030106010D
:10013000090105050505070508080808020202026D
:100140000A0A080804040404010101010101010173
:100150000303030303030303040707070C0C0C0C3E
:100160000C0C0C0C02020202060606060606060627
:100170000B0B0B0B0B0B0B0B0102102020080810B4
:100180002040102040800201020108040201010207
:1001900004081020408080402010080402018004E0
:1001A000020180402010080402010804020101023B
:1001B0000408102040800102040810204080000044
:1001C000090A02080B0C0D070603040100000000D9
:1001D000000000000000000000000000000000001F
:1001E0000000000000000000000011100F000000DF
:1001F00000000000000000000000000000000000FF
:1002000000000000110711241FBECFEFD1E2DEBFB6
:10021000CDBF00E00CBF12E0A0E0B2E0EEEFF7E1EE
:1002200000E00BBF02C007900D92A634B107D9F7CA
:100230001BBE14E0A6E4B2E001C01D92AC3FB107C2
:10024000E1F712E0C6E0D2E004C02297FE010E946E
:10025000F90BC430D107C9F70E9447080C94FD0B75
:100260000C9400000F931F93CF93DF938C01EB014D
:1002700060387105E8F1CB018058904080589F4765
:1002800038F010E0812FDF91CF911F910F910895E9
:1002900085E360E00E94800B005C1F4F0EBD0DB433
:1002A00007FEFDCF8EB5CE018F77907080589F4F9F
:1002B0008EBD0DB407FEFDCF8EB5C078DF77CC0FB5
:1002C000CD2FCC1FDD0BD195CEBD0DB407FEFDCFDC
:1002D0008EB51EBC0DB407FEFDCF1EB585E361E0F3
:1002E0000E94800B812FDF91CF911F910F91089574
:1002F00085E360E00E94800B005C1F4F0EBD0DB4D3
:1003000007FEFDCF8EB5CF77D070CEBD0DB407FE02
:10031000FDCF8EB51EBC0DB407FEFDCF1EB585E327
:1003200061E00E94800BDECFFF920F931F93CF936B
:10033000DF938C01EB01F42E60387105E0F1CB0105
:100340008058904080589F4730F0DF91CF911F91A7
:100350000F91FF90089585E360E00E94800B0054A8
:100360001F4F0EBD0DB407FEFDCF8EB5CE018F77AA
:10037000907080589F4F8EBD0DB407FEFDCF8EB597
:10038000C078DF77CC0FCD2FCC1FDD0BD195CEBD44
:100390000DB407FEFDCF8EB5FEBC0DB407FEFDCF3C
:1003A0008EB585E361E00E94800BDF91CF911F91B4
:1003B0000F91FF90089585E360E00E94800B005448
:1003C0001F4F0EBD0DB407FEFDCF8EB5CF77D07099
:1003D000CEBD0DB407FEFDCF8EB5FEBC0DB407FE3D
:1003E000FDCF8EB585E361E00E94800BDECFCF9319
:1003F000DF938BE694E060E072E00E947D09C0E04C
:10040000D0E081E090E0BE010E943201482F50E030
:1004100060E070E08BE694E02AE030E00E942D0975
:100420008BE694E066E072E00E947D092196C83078
:10043000D10539F78BE694E066E072E00E949C09F2
:10044000DF91CF910895CF92DF92EF92FF920F93B9
:100450001F9380E090E063E070E00E943201E82E9C
:1004600080E090E062E070E00E943201F82E80E0CF
:1004700090E061E070E00E943201D82E80E090E0D0
:1004800060E070E00E943201C82E0BE614E0C80163
:1004900068E072E00E947D097E2D60E06F0D711DA5
:1004A000C80140E150E00E943C09C80161E172E0EE
:1004B0000E947D09C8016D2D40E150E00E944D0968
:1004C000C80166E072E00E947D09C8016C2D40E120
:1004D00050E00E945F091F910F91FF90EF90DF9015
:1004E000CF9008951F938BE694E068E172E00E943C
:1004F0007D098FE090E060E070E00E943201682F9B
:100500008BE694E042E050E00E945F098091460251
:10051000882309F49CC089E090E060E070E04DE041
:1005200050E00E94940189E090E061E070E04EE0CC
:1005300050E00E94940189E090E062E070E04CE0BD
:1005400050E00E94940189E090E063E070E04AE0AE
:1005500050E00E94940189E090E064E070E042E0A5
:1005600050E00E94940189E090E065E070E040E096
:1005700050E00E94940189E090E066E070E041E084
:1005800050E00E94940189E090E067E070E045E06F
:1005900050E00E9494018AE080934A0288E090E053
:1005A00060E070E04AE050E00E9494018DE090E04D
:1005B00060E070E00E943201482F4E5F4093480295
:1005C0008DE090E060E070E050E00E9494011092B5
:1005D000470204C080914702882371F48FE090E0C5
:1005E00060E070E00E943201807880934902803898
:1005F00089F781E0809347028DE090E060E070E051
:100600000E943201482F4F7B405C409348028DE0AE
:1006100090E060E070E050E00E9494018BE694E08E
:1006200068E272E00E949C0980914702882369F089
:1006300011E01093470264E670E080E090E00E94D1
:10064000310A809147028823A1F71F91089581E024
:10065000809346028BE694E065E272E00E949C097A
:100660000E9423020E94F70156CF8BE694E040E8F7
:1006700055E260E070E00E94DD0582E360E00E94E8
:10068000BE0A83E361E00E94BE0A84E361E00E9447
:10069000BE0A85E361E00E94BE0A85E361E00E9434
:1006A000800B80E00E94670383E00E946C0381E07E
:1006B0000E945D030E947D030895882321F08CB57C
:1006C0008F7D8CBD08958CB580628CBD08959CB5DE
:1006D000937F982B9CBD08952CB5382F33702C7FB9
:1006E000322B3CBD2DB590E09595879595958795D6
:1006F00081702E7F822B8DBD089585E361E00E947D
:10070000800B85E361E00E94BE0A8CB580618CBDE0
:100710008CB580648CBD84E361E00E94BE0A83E3F3
:1007200061E00E94BE0A089508951F920F920FB6CD
:100730000F920BB60F9211242F933F934F938F93E9
:100740009F93EF93FF938091C00082FD2AC0409158
:10075000C60020918B0230918C022F5F3F4F2F7388
:10076000307080918D0290918E022817390759F0D0
:10077000E0918B02F0918C02E55BFD4F408330935A
:100780008C0220938B02FF91EF919F918F914F915B
:100790003F912F910F900BBE0F900FBE0F901F90A7
:1007A00018958091C600EFCF08951F920F920FB653
:1007B0000F920BB60F9211242F933F934F938F9369
:1007C0009F93EF93FF938091C80082FD2AC04091D0
:1007D000CE0020911303309114032F5F3F4F2F73EE
:1007E000307080911503909116032817390759F03E
:1007F000E0911303F0911403ED52FD4F40833093C9
:10080000140320931303FF91EF919F918F914F91C8
:100810003F912F910F900BBE0F900FBE0F901F9026
:1008200018958091CE00EFCF08951F920F920FB6CA
:100830000F920BB60F9211242F933F934F938F93E8
:100840009F93EF93FF938091D00082FD2AC0409147
:10085000D60020919B0330919C032F5F3F4F2F7355
:10086000307080919D0390919E032817390759F0AD
:10087000E0919B03F0919C03E55AFC4F4083309339
:100880009C0320939B03FF91EF919F918F914F9138
:100890003F912F910F900BBE0F900FBE0F901F90A6
:1008A00018958091D600EFCF08951F920F920FB642
:1008B0000F920BB60F9211242F933F934F938F9368
:1008C0009F93EF93FF938091300182FD2AC0409166
:1008D000360120912304309124042F5F3F4F2F7362
:1008E000307080912504909126042817390759F01B
:1008F000E0912304F0912404ED51FC4F40833093A8
:10090000240420932304FF91EF919F918F914F91A5
:100910003F912F910F900BBE0F900FBE0F901F9025
:10092000189580913601EFCFE0917704F09178042B
:10093000E05CFF4F8191919120813181821B930B6B
:100940008F739070892BD1F5E0919904F0919A04FE
:10095000E05CFF4F8191919120813181821B930B4B
:100960008F739070892B39F5E091BB04F091BC0432
:10097000E05CFF4F8191919120813181821B930B2B
:100980008F739070892BA1F4E091DD04F091DE0467
:10099000E05CFF4F8191919120813181821B930B0B
:1009A0008F739070892B09F408950E945404089560
:1009B0000E941404E9CF0E94D403D6CF0E9494036E
:1009C000C3CF1F920F920FB60F920BB60F92112446
:1009D0002F933F938F939F93EF93FF932091CF0299
:1009E0003091D0028091D1029091D202281739071C
:1009F00009F1E091D102F091D202E157FD4F20813F
:100A00008091D1029091D20201968F739070909351
:100A1000D2028093D1022093C600FF91EF919F9163
:100A20008F913F912F910F900BBE0F900FBE0F90A3
:100A30001F9018958091C1008F7D8093C100EDCFEC
:100A40001F920F920FB60F920BB60F9211242F9395
:100A50003F938F939F93EF93FF9320915703309190
:100A600058038091590390915A032817390709F1C7
:100A7000E0915903F0915A03E95EFC4F2081809187
:100A8000590390915A0301968F73907090935A0373
:100A9000809359032093CE00FF91EF919F918F9106
:100AA0003F912F910F900BBE0F900FBE0F901F9094
:100AB00018958091C9008F7D8093C900EDCF1F925A
:100AC0000F920FB60F920BB60F9211242F933F93F4
:100AD0008F939F93EF93FF932091DF033091E00377
:100AE0008091E1039091E2032817390709F1E09121
:100AF000E103F091E203E156FC4F20818091E10394
:100B00009091E20301968F7390709093E20380932B
:100B1000E1032093D600FF91EF919F918F913F9138
:100B20002F910F900BBE0F900FBE0F901F90189536
:100B30008091D1008F7D8093D100EDCF1F920F92D5
:100B40000FB60F920BB60F9211242F933F938F93F2
:100B50009F93EF93FF9320916704309168048091F5
:100B6000690490916A042817390709F1E091690432
:100B7000F0916A04E95DFB4F2081809169049091B6
:100B80006A0401968F73907090936A04809369044D
:100B900020933601FF91EF919F918F913F912F917B
:100BA0000F900BBE0F900FBE0F901F901895809165
:100BB00031018F7D80933101EDCFDF92EF92FF9273
:100BC0000F931F93CF93DF93EC017A018B01DD2408
:100BD000403081EE580780E0680780E0780721F117
:100BE000DD24D394EC89FD8981E090E008A002C067
:100BF000880F991F0A94E2F7808360E079E08DE323
:100C000090E0A80197010E94D50B21503040404050
:100C10005040569547953795279580E12030380705
:100C2000D0F0DD20C1F0DD24EC89FD89108260E880
:100C300074E88EE190E0A80197010E94D50B215045
:100C4000304040405040569547953795279580E174
:100C50002030380730F7E889F9893083EA89FB8941
:100C6000208319A2EE89FF89408121E030E0C9018B
:100C70000C8C02C0880F991F0A94E2F7482B40831E
:100C8000EE89FF894081C9010D8C02C0880F991F30
:100C90000A94E2F7482B4083EE89FF894081C9011D
:100CA0000E8C02C0880F991F0A94E2F7482B4083EC
:100CB000EE89FF8980810F8C02C0220F331F0A94B6
:100CC000E2F7209528232083DF91CF911F910F9188
:100CD000FF90EF90DF900895DC011C96ED91FC9160
:100CE0001D97E05CFF4F2191319180819181281BFC
:100CF000390B2F733070C9010895DC011C96ED91FA
:100D0000FC911D97E05CFF4F20813181E054F04061
:100D1000DF01AE5BBF4F8D919C911197281739076A
:100D200049F08D919C91E80FF91F8081282F30E0C8
:100D3000C90108952FEF3FEFC9010895DC011C960A
:100D4000ED91FC911D97E05CFF4F20813181E054D3
:100D5000F040DF01AE5BBF4F8D919C91119728173A
:100D6000390791F08D919C911197E80FF91F20811F
:100D70008D919C91119701968F73907011969C9311
:100D80008E9330E0C90108952FEF3FEFC901089518
:100D9000FC0181A1882311F411A20895A489B589C9
:100DA0008C9186FFFDCF11A20895CF93DF93EC01C4
:100DB000AE85BF85AD01405C5F4FFA012081318176
:100DC0002F5F3F4F2F733070FD01EE5BFF4F80812F
:100DD000918128173907D9F3FA0180819181A80FF1
:100DE000B91F6C93EE85FF85E05CFF4F3183208354
:100DF000EE89FF89208181E090E00F8C02C0880F8E
:100E0000991F0A94E2F7282B208381E089A3EC89BB
:100E1000FD8980818064808381E090E0DF91CF91C3
:100E200008951F9310926E0410926D0428EE33E023
:100E300040E050E020936F043093700440937104BD
:100E4000509372046AE372E070936C0460936B04D5
:100E50008BE492E090937804809377048FE892E09B
:100E600090937A048093790485EC90E090937C04CD
:100E700080937B0484EC90E090937E0480937D04C7
:100E800080EC90E09093800480937F0481EC90E06C
:100E9000909382048093810482EC90E09093840488
:100EA0008093830486EC90E090938604809385047D
:100EB00014E010938704B3E0B0938804A7E0A093F4
:100EC0008904F5E0F0938A04E1E0E0938B0410924A
:100ED000900410928F0420939104309392044093D5
:100EE00093045093940470938E0460938D0483ED67
:100EF00092E090939A048093990487E193E0909311
:100F00009C0480939B048DEC90E090939E048093CE
:100F10009D048CEC90E09093A00480939F0488EC57
:100F200090E09093A2048093A10489EC90E09093C8
:100F3000A4048093A3048AEC90E09093A604809389
:100F4000A5048EEC90E09093A8048093A7041093DE
:100F5000A904B093AA04A093AB04F093AC04E0936B
:100F6000AD041092B2041092B1042093B3043093F4
:100F7000B4044093B5045093B6047093B0046093E6
:100F8000AF048BE593E09093BC048093BB048FE99E
:100F900093E09093BE048093BD0485ED90E0909320
:100FA000C0048093BF0484ED90E09093C2048093CA
:100FB000C10480ED90E09093C4048093C30481ED5C
:100FC00090E09093C6048093C50482ED90E09093E6
:100FD000C8048093C70486ED90E09093CA04809380
:100FE000C9041093CB04B093CC04A093CD04F09328
:100FF000CE04E093CF041092D4041092D304209333
:10100000D5043093D6044093D7045093D8047093FA
:10101000D2046093D10483EE93E09093DE04809336
:10102000DD0487E294E09093E0048093DF0485E39D
:1010300091E09093E2048093E10484E391E0909343
:10104000E4048093E30480E391E09093E6048093CA
:10105000E50481E391E09093E8048093E70482E360
:1010600091E09093EA048093E90486E391E0909301
:10107000EC048093EB041093ED04B093EE04A09382
:10108000EF04F093F004E093F1041F9108950E949F
:101090005C0A0E9435030E94720284E994E0892B65
:1010A00029F00E9494040E947202FBCF0E947202F7
:1010B0000E947202FBCFCF92DF92EF92FF920F93CA
:1010C0001F93CF93DF937C016B01EA01411551051A
:1010D000D9F000E010E0D6016D916D01D701ED91DE
:1010E000FC910190F081E02DC7011995080F191F9F
:1010F000219789F7C801DF91CF911F910F91FF9040
:10110000EF90DF90CF90089500E010E0F3CFEF92E2
:10111000FF920F931F938C01DC01ED91FC910190E4
:10112000F081E02D6DE019957C01D801ED91FC91E5
:101130000190F081E02DC8016AE019959C012E0D07
:101140003F1DC9011F910F91FF90EF9008954F929D
:101150005F927F928F929F92AF92BF92CF92DF92D7
:10116000EF92FF920F931F93DF93CF93CDB7DEB72C
:10117000A1970FB6F894DEBF0FBECDBF2C01742E21
:10118000CB01223008F460C0822E9924AA24BB240B
:1011900019A221E2C22ED12CCC0EDD1E0BC0405D67
:1011A000F6014083E114F1040105110501F17E2CE3
:1011B0005F2DC801672D752FA50194010E94D50BE5
:1011C00079018A01C801B701A50194010E94B60BFB
:1011D000472D461B0894C108D1084A3004F3495CE6
:1011E000F6014083E114F1040105110501F7C11472
:1011F000D10481F1D6010D900020E9F71197AC19C7
:10120000BD09F20180819181FC0122813381C201FB
:10121000B601AD01F90119959C01C901A1960FB65E
:10122000F894DEBF0FBECDBFCF91DF911F910F911C
:10123000FF90EF90DF90CF90BF90AF909F908F90F6
:101240007F905F904F9008953AE0832E912CA12CCF
:10125000B12C9ECF20E030E0E0CFDC01211531053C
:1012600019F00E94A7080895ED91FC910190F0817A
:10127000E02D642F19950895EF92FF920F931F931D
:101280009A017B0100E010E0B801A7010E942D093E
:101290001F910F91FF90EF900895EF92FF920F939F
:1012A0001F939A01E62EFF2400E010E0B801A70189
:1012B0000E942D091F910F91FF90EF900895CF92FA
:1012C000DF92EF92FF920F931F936C01E62E9A012B
:1012D000FF2400E010E0B801A7010E942D098C0155
:1012E000C6010E948708080F191FC8011F910F919E
:1012F000FF90EF90DF90CF900895CF93DF93EC01B4
:101300006115710599F0DB010D900020E9F7119747
:10131000A61BB70BE881F9810280F381E02DAD01B6
:1013200019959C01C901DF91CF91089520E030E02B
:10133000C901DF91CF9108950F931F93CF93DF934E
:10134000EC0161157105D9F0DB010D900020E9F782
:101350001197A61BB70BE881F9810280F381E02D7C
:10136000AD0119958C01CE010E9487089801280FC4
:10137000391FC901DF91CF911F910F91089500E0AE
:1013800010E0F1CF1F920F920FB60F9211242F93FE
:101390003F938F939F93AF93BF938091F704909166
:1013A000F804A091F904B091FA043091FB0401967D
:1013B000A11DB11D232F2D5F2D3720F02D57019634
:1013C000A11DB11D2093FB048093F7049093F804B2
:1013D000A093F904B093FA048091F3049091F4047B
:1013E000A091F504B091F6040196A11DB11D809362
:1013F000F3049093F404A093F504B093F604BF9122
:10140000AF919F918F913F912F910F900FBE0F90B1
:101410001F9018959FB7F8942091F3043091F4042D
:101420004091F5045091F60486B5A89B06C08F3F05
:1014300021F02F5F3F4F4F4F5F4F9FBF542F432FE0
:10144000322F2227280F311D411D511D220F331F1E
:10145000441F551F220F331F441F551FB901CA01D6
:101460000895EF92FF920F931F93CF93DF937B0129
:101470008C010E940A0AE114F10401051105A9F08A
:10148000EB010E940A0A6C1B7D0B685E7340C8F377
:101490000894E108F10801091109E114F1040105BA
:1014A000110519F0C851DC4FECCFDF91CF911F919E
:1014B0000F91FF90EF900895789484B5826084BD79
:1014C00084B5816084BD85B5826085BD85B5816048
:1014D00085BDEEE6F0E0808181608083E1E8F0E0A8
:1014E0001082808182608083808181608083E0E8D7
:1014F000F0E0808181608083E1EBF0E080818460B6
:101500008083E0EBF0E0808181608083E1E9F0E0BE
:10151000808182608083808181608083E0E9F0E067
:10152000808181608083E1EAF0E080818260808355
:10153000808181608083E0EAF0E080818160808347
:10154000E1E2F1E08081826080838081816080833C
:10155000E0E2F1E0808181608083EAE7F0E0808171
:1015600084608083808182608083808181608083C9
:101570008081806880831092C1000895CF93DF93AB
:10158000482F50E0CA0188589E4FFC0134914E5CB0
:101590005E4FFA0184918823B9F090E0880F991F7B
:1015A000FC01EC51FF4FA591B491FC01E250FF4FBB
:1015B000C591D491662359F06230B9F09FB7F89481
:1015C0008C91832B8C939FBFDF91CF9108952FB780
:1015D000F8948C91932F909589238C9388818923FB
:1015E00088832FBFDF91CF9108952FB7F8948C9106
:1015F000932F909589238C938881832B88832FBF89
:10160000E3CF893009F45EC08A3070F08D3009F480
:101610005FC08E30D0F0803109F46CC0813109F4A4
:1016200063C08F30C9F10895843009F445C0853016
:10163000B8F08730B9F1883048F58630A1F780914D
:10164000B0008F778093B00008958B3009F446C0C6
:101650008C30B0F08091A0008F7D8093A000089521
:10166000823031F1833030F48130E9F684B58F7700
:1016700084BD0895809180008F77809380000895C5
:1016800080919000877F80939000089580919000D2
:101690008F77809390000895809120018F778093B9
:1016A000200108958091B0008F7D8093B00008954F
:1016B00084B58F7D84BD0895809180008F7D809357
:1016C00080000895809190008F7D80939000089510
:1016D0008091A000877F8093A00008958091A00052
:1016E0008F778093A000089580912001877F809359
:1016F00020010895809120018F7D8093200108951D
:10170000FF920F931F93F62E482F50E0CA01825488
:101710009E4FFC012491CA0188589E4FFC01049100
:101720004E5C5E4FFA011491112399F02223D1F4FB
:10173000E12FF0E0EE0FFF1FE250FF4FA591B491B3
:101740009FB7F894FF2049F48C91009580238C93E7
:101750009FBF1F910F91FF9008958C91802B8C93C8
:101760009FBFF7CF822F0E94010BE2CF629FD00173
:10177000739FF001829FE00DF11D649FE00DF11D4C
:10178000929FF00D839FF00D749FF00D659FF00DFB
:101790009927729FB00DE11DF91F639FB00DE11DE8
:1017A000F91FBD01CF0111240895A1E21A2EAA1B31
:1017B000BB1BFD010DC0AA1FBB1FEE1FFF1FA21701
:1017C000B307E407F50720F0A21BB30BE40BF50BFE
:1017D000661F771F881F991F1A9469F76095709587
:1017E000809590959B01AC01BD01CF010895EE0F4E
:0E17F000FF1F0590F491E02D1994F894FFCF9F
:1017FE004555493A20002E004465766963653A20C6
:10180E0000205665722E20005359535F5354415495
:10181E0055533A20002D2D00446174612073656E7E
:10182E00743A204F4B0000000000D5065B086C0692
:06183E009E067D06C806AF
:00000001FF
