:100000000C9403010C9430010C9430010C943001D9
:100010000C9430010C9430010C9430010C9430019C
:100020000C9430010C9430010C9430010C9430018C
:100030000C9430010C9430010C9430010C9430017C
:100040000C9430010C9430010C9430010C9430016C
:100050000C9430010C9430010C9430010C94460A3D
:100060000C9430010C94FC030C9448050C94300162
:100070000C9430010C9430010C9430010C9430013C
:100080000C9430010C9430010C9430010C9430012C
:100090000C943C040C9487050C9430010C943001B2
:1000A0000C9430010C9430010C9430010C9430010C
:1000B0000C9430010C9430010C9430010C943001FC
:1000C0000C9430010C9430010C9430010C947C049D
:1000D0000C94C6050C9430010C94BC040C940506D9
:1000E0000C94300100002100240027002A002D007C
:1000F0003000330001010000040107010A01000083
:100100002200250028002B002E00310034000201BF
:100110000000050108010B0100002000230026005B
:1001200029002C002F00320000010000030106010D
:10013000090105050505070508080808020202026D
:100140000A0A080804040404010101010101010173
:100150000303030303030303040707070C0C0C0C3E
:100160000C0C0C0C02020202060606060606060627
:100170000B0B0B0B0B0B0B0B0102102020080810B4
:100180002040102040800201020108040201010207
:1001900004081020408080402010080402018004E0
:1001A000020180402010080402010804020101023B
:1001B0000408102040800102040810204080000044
:1001C000090A02080B0C0D070603040100000000D9
:1001D000000000000000000000000000000000001F
:1001E0000000000000000000000011100F000000DF
:1001F00000000000000000000000000000000000FF
:1002000000000000780711241FBECFEFD1E2DEBF4F
:10021000CDBF00E00CBF12E0A0E0B2E0EAE1F9E1FE
:1002200000E00BBF02C007900D92A23CB107D9F7C6
:100230001BBE15E0A2ECB2E001C01D92A23FB107C7
:10024000E1F712E0C6E0D2E004C02297FE010E946E
:10025000870CC430D107C9F70E94AE080C948B0CF0
:100260000C9400001F93CF93DF93182FEB0160389D
:100270007105E8F1CB018058904080589F4730F0DD
:1002800010E0812FDF91CF911F91089585E360E009
:100290000E940E0C812F90E0805C9F4F8EBD0DB4AC
:1002A00007FEFDCF8EB5CE018F77907080589F4F9F
:1002B0008EBD0DB407FEFDCF8EB5C078DF77CC0FB5
:1002C000CD2FCC1FDD0BD195CEBD0DB407FEFDCFDC
:1002D0008EB51EBC0DB407FEFDCF1EB585E361E0F3
:1002E0000E940E0C812FDF91CF911F91089585E31D
:1002F00060E00E940E0C812F90E0805C9F4F8EBDCD
:100300000DB407FEFDCF8EB5CF77D070CEBD0DB446
:1003100007FEFDCF8EB51EBC0DB407FEFDCF1EB58A
:1003200085E361E00E940E0CDDCFEF92FF920F9308
:100330001F93082F83E0602F70E00E943201E82EA7
:10034000FF2410E00F5F1F4F83E0B8010E943201CD
:10035000382F20E02E0D3F1DC9011F910F91FF90F6
:10036000EF9008950F931F93CF93DF93182FEB0116
:10037000042F60387105E0F1CB018058904080581F
:100380009F4728F0DF91CF911F910F91089585E34A
:1003900060E00E940E0C812F90E080549F4F8EBD34
:1003A0000DB407FEFDCF8EB5CE018F7790708058CB
:1003B0009F4F8EBD0DB407FEFDCF8EB5C078DF77A1
:1003C000CC0FCD2FCC1FDD0BD195CEBD0DB407FECC
:1003D000FDCF8EB50EBD0DB407FEFDCF8EB585E306
:1003E00061E00E940E0CDF91CF911F910F91089553
:1003F00085E360E00E940E0C812F90E080549F4FB7
:100400008EBD0DB407FEFDCF8EB5CF77D070CEBDBB
:100410000DB407FEFDCF8EB50EBD0DB407FEFDCFAA
:100420008EB585E361E00E940E0CDDCFEF92FF9266
:100430000F931F93CF93DF937C018DE060E070E01A
:1004400040E40E94B2018DE061E070E00E94320160
:10045000482F4E7F4F5F8DE061E070E00E94B20157
:100460008FE061E070E00E943201182F8FE062E0BF
:1004700070E00E94320115FD0BC014FD35C084FFF1
:10048000EFCF81E695E063E372E00E94200A06C0A8
:1004900081E695E060E072E00E94200A8DE060E075
:1004A00070E040E40E94B20180E160E070E00E94F0
:1004B00032018F77082F10E00115110571F0C0E0AF
:1004C000D0E081E1BE010E943201F701EC0FFD1F77
:1004D00080832196C017D107A4F3DF91CF911F919C
:1004E0000F91FF90EF90089581E695E062E172E050
:1004F0000E94200AD3CFEF92FF920F931F93CF93C6
:10050000DF937C018B018DE060E070E040E40E94AD
:10051000B2011016110674F4C0E0D0E0F701EC0F40
:10052000FD1F89E0BE0140810E94B2012196C017E3
:10053000D107A4F3402F4E5F88E060E070E00E9496
:10054000B2018DE060E070E042E00E94B2018FE015
:1005500060E070E00E94320187FD0CC08FE063E034
:1005600070E00E94320184FFF2CF81E695E069E5F8
:1005700072E004C081E695E06BE472E00E94200A1C
:100580008FE060E070E04EEF0E94B2018DE060E02D
:1005900070E040E40E94B201DF91CF911F910F9172
:1005A000FF90EF9008950F931F93082F462F83E03D
:1005B000602F70E00E94B20110E00F5F1F4F83E0D8
:1005C000B80140E00E94B2011F910F910895CF92AF
:1005D000DF92EF92FF920F931F9380E063E070E051
:1005E0000E943201E82E80E062E070E00E94320159
:1005F000F82E80E061E070E00E943201D82E80E0A9
:1006000060E070E00E943201C82E01E615E0C801EA
:100610006EE772E00E94010A7E2D60E06F0D711D91
:10062000C80140E150E00E94A309C80167E872E0F8
:100630000E94010AC8016D2D40E150E00E94D109DD
:10064000C8016CE772E00E94010AC8016C2D40E10C
:1006500050E00E94E3091F910F91FF90EF90DF900F
:10066000CF900895CF93DF9382EC92E067E070E043
:100670000E947B0282EC92E00E94160281E695E0E5
:100680006EE872E00E94010AC2ECD2E081E695E0D9
:10069000699140E150E00E94D10982E0C93CD8074D
:1006A000A9F781E695E06EE972E00E94200A68EE03
:1006B00073E080E090E00E94B50ADF91CF91089549
:1006C0000F931F9301E615E0C80140E855E260E092
:1006D00070E00E94440682E360E00E944C0B83E3DA
:1006E00061E00E944C0B84E361E00E944C0B85E3C7
:1006F00061E00E944C0B85E361E00E940E0C80E0FB
:100700000E94CE0383E00E94D30381E00E94C403D1
:100710000E94E4038DE267E070E040E80E94B201CD
:1007200086E990E00E94E00A0E94E7028DE0809353
:10073000C2028EE08093C3028CE08093C4028AE000
:100740008093C5021092C6021092C7021092C8028E
:1007500080E06AE070E00E94D302C80160EA72E0C3
:100760000E94010A80E00E949501BC01C80140E19D
:1007700050E00E94B4098DE060E070E040E40E9427
:10078000B2011F910F910895882321F08CB58F7DC0
:100790008CBD08958CB580628CBD08959CB5937F07
:1007A000982B9CBD08952CB5382F33702C7F322B9D
:1007B0003CBD2DB590E09595879595958795817071
:1007C0002E7F822B8DBD089585E361E00E940E0C83
:1007D00085E361E00E944C0B8CB580618CBD8CB5CB
:1007E00080648CBD84E361E00E944C0B83E361E094
:1007F0000E944C0B089508951F920F920FB60F920E
:100800000BB60F9211242F933F934F938F939F9387
:10081000EF93FF938091C00082FD2AC04091C600F3
:1008200020918103309182032F5F3F4F2F733070EF
:1008300080918303909184032817390759F0E09140
:100840008103F0918203EF5BFC4F4083309382037E
:1008500020938103FF91EF919F918F914F913F9151
:100860002F910F900BBE0F900FBE0F901F901895F9
:100870008091C600EFCF08951F920F920FB60F928E
:100880000BB60F9211242F933F934F938F939F9307
:10089000EF93FF938091C80082FD2AC04091CE0063
:1008A0002091090430910A042F5F3F4F2F7330705D
:1008B00080910B0490910C042817390759F0E091AE
:1008C0000904F0910A04E753FC4F408330930A0473
:1008D00020930904FF91EF919F918F914F913F9148
:1008E0002F910F900BBE0F900FBE0F901F90189579
:1008F0008091CE00EFCF08951F920F920FB60F9206
:100900000BB60F9211242F933F934F938F939F9386
:10091000EF93FF938091D00082FD2AC04091D600D2
:1009200020919104309192042F5F3F4F2F733070CC
:1009300080919304909194042817390759F0E0911D
:100940009104F0919204EF5AFB4F4083309392044C
:1009500020939104FF91EF919F918F914F913F913F
:100960002F910F900BBE0F900FBE0F901F901895F8
:100970008091D600EFCF08951F920F920FB60F927D
:100980000BB60F9211242F933F934F938F939F9306
:10099000EF93FF938091300182FD2AC04091360190
:1009A0002091190530911A052F5F3F4F2F7330703A
:1009B00080911B0590911C052817390759F0E0918B
:1009C0001905F0911A05E752FB4F408330931A0541
:1009D00020931905FF91EF919F918F914F913F9136
:1009E0002F910F900BBE0F900FBE0F901F90189578
:1009F00080913601EFCFE0916D05F0916E05E05CDE
:100A0000FF4F8191919120813181821B930B8F73D4
:100A10009070892BD1F5E0918F05F0919005E05C05
:100A2000FF4F8191919120813181821B930B8F73B4
:100A30009070892B39F5E091B105F091B205E05C39
:100A4000FF4F8191919120813181821B930B8F7394
:100A50009070892BA1F4E091D305F091D405E05C6E
:100A6000FF4F8191919120813181821B930B8F7374
:100A70009070892B09F408950E94BB0408950E9488
:100A80007B04E9CF0E943B04D6CF0E94FB03C3CF77
:100A90001F920F920FB60F920BB60F9211242F9345
:100AA0003F938F939F93EF93FF932091C5033091D2
:100AB000C6038091C7039091C8032817390709F12D
:100AC000E091C703F091C803EB57FC4F2081809160
:100AD000C7039091C80301968F7390709093C803D9
:100AE0008093C7032093C600FF91EF919F918F9150
:100AF0003F912F910F900BBE0F900FBE0F901F9044
:100B000018958091C1008F7D8093C100EDCF1F9219
:100B10000F920FB60F920BB60F9211242F933F93A3
:100B20008F939F93EF93FF9320914D0430914E0448
:100B300080914F04909150042817390709F1E091F2
:100B40004F04F0915004E35FFB4F208180914F04EC
:100B50009091500401968F739070909350048093FD
:100B60004F042093CE00FF91EF919F918F913F9181
:100B70002F910F900BBE0F900FBE0F901F901895E6
:100B80008091C9008F7D8093C900EDCF1F920F9295
:100B90000FB60F920BB60F9211242F933F938F93A2
:100BA0009F93EF93FF932091D5043091D6048091C9
:100BB000D7049091D8042817390709F1E091D70498
:100BC000F091D804EB56FB4F20818091D70490918F
:100BD000D80401968F7390709093D8048093D704B3
:100BE0002093D600FF91EF919F918F913F912F918C
:100BF0000F900BBE0F900FBE0F901F901895809115
:100C0000D1008F7D8093D100EDCF1F920F920FB650
:100C10000F920BB60F9211242F933F938F939F93B4
:100C2000EF93FF9320915D0530915E0580915F0504
:100C3000909160052817390709F1E0915F05F0915F
:100C40006005E35EFA4F208180915F059091600519
:100C500001968F7390709093600580935F05209349
:100C60003601FF91EF919F918F913F912F910F90BE
:100C70000BBE0F900FBE0F901F9018958091310101
:100C80008F7D80933101EDCFDF92EF92FF920F9332
:100C90001F93CF93DF93EC017A018B01DD24403069
:100CA00081EE580780E0680780E0780721F1DD24B5
:100CB000D394EC89FD8981E090E008A002C0880F00
:100CC000991F0A94E2F7808360E079E08DE390E079
:100CD000A80197010E94630C2150304040405040D1
:100CE000569547953795279580E120303807D0F005
:100CF000DD20C1F0DD24EC89FD89108260E874E814
:100D00008EE190E0A80197010E94630C21503040D1
:100D100040405040569547953795279580E12030C3
:100D2000380730F7E889F9893083EA89FB8920831D
:100D300019A2EE89FF89408121E030E0C9010C8CC5
:100D400002C0880F991F0A94E2F7482B4083EE896E
:100D5000FF894081C9010D8C02C0880F991F0A9438
:100D6000E2F7482B4083EE89FF894081C9010E8C50
:100D700002C0880F991F0A94E2F7482B4083EE893E
:100D8000FF8980810F8C02C0220F331F0A94E2F783
:100D9000209528232083DF91CF911F910F91FF9001
:100DA000EF90DF900895DC011C96ED91FC911D976A
:100DB000E05CFF4F2191319180819181281B390B9B
:100DC0002F733070C9010895DC011C96ED91FC91E0
:100DD0001D97E05CFF4F20813181E054F040DF013E
:100DE000AE5BBF4F8D919C9111972817390749F041
:100DF0008D919C91E80FF91F8081282F30E0C90167
:100E000008952FEF3FEFC9010895DC011C96ED9185
:100E1000FC911D97E05CFF4F20813181E054F04050
:100E2000DF01AE5BBF4F8D919C9111972817390759
:100E300091F08D919C911197E80FF91F20818D9170
:100E40009C91119701968F73907011969C938E933D
:100E500030E0C90108952FEF3FEFC9010895FC016B
:100E600081A1882311F411A20895A489B5898C91D8
:100E700086FFFDCF11A20895CF93DF93EC01AE85DD
:100E8000BF85AD01405C5F4FFA01208131812F5F4A
:100E90003F4F2F733070FD01EE5BFF4F80819181DA
:100EA00028173907D9F3FA0180819181A80FB91F5A
:100EB0006C93EE85FF85E05CFF4F31832083EE89E4
:100EC000FF89208181E090E00F8C02C0880F991F7C
:100ED0000A94E2F7282B208381E089A3EC89FD891D
:100EE00080818064808381E090E0DF91CF910895DC
:100EF0001F93109264051092630528EE33E040E0E2
:100F000050E0209365053093660540936705509344
:100F1000680565EB72E0709362056093610581E49A
:100F200093E090936E0580936D0585E893E0909330
:100F3000700580936F0585EC90E090937205809327
:100F4000710584EC90E0909374058093730580ECB8
:100F500090E0909376058093750581EC90E09093F6
:100F600078058093770582EC90E090937A058093E2
:100F7000790586EC90E090937C0580937B0514E0E6
:100F800010937D05B3E0B0937E05A7E0A0937F05A5
:100F9000F5E0F0938005E1E0E0938105109286058D
:100FA0001092850520938705309388054093890525
:100FB00050938A05709384056093830589EC93E0D0
:100FC0009093900580938F058DE094E09093920527
:100FD000809391058DEC90E0909394058093930518
:100FE0008CEC90E0909396058093950588EC90E0CA
:100FF000909398058093970589EC90E090939A05DB
:10100000809399058AEC90E090939C0580939B05D2
:101010008EEC90E090939E0580939D0510939F0524
:10102000B093A005A093A105F093A205E093A305BA
:101030001092A8051092A7052093A9053093AA0540
:101040004093AB055093AC057093A6056093A5053E
:1010500081E594E09093B2058093B10585E994E031
:101060009093B4058093B30585ED90E09093B60519
:101070008093B50584ED90E09093B8058093B70513
:1010800080ED90E09093BA058093B90581ED90E0F2
:101090009093BC058093BB0582ED90E09093BE05D4
:1010A0008093BD0586ED90E09093C0058093BF05C9
:1010B0001093C105B093C205A093C305F093C40576
:1010C000E093C5051092CA051092C9052093CB057F
:1010D0003093CC054093CD055093CE057093C80551
:1010E0006093C70589ED94E09093D4058093D30570
:1010F0008DE195E09093D6058093D50585E391E049
:101100009093D8058093D70584E391E09093DA0516
:101110008093D90580E391E09093DC058093DB0513
:1011200081E391E09093DE058093DD0582E391E019
:101130009093E0058093DF0586E391E09093E205CC
:101140008093E1051093E305B093E405A093E505D2
:10115000F093E605E093E7051F9108950E94EA0ADF
:101160000E9460030E9432038BEF94E0892B29F0E8
:101170000E94FB040E943203FBCF0E9432030E94B4
:101180003203FBCFCF92DF92EF92FF920F931F9328
:10119000CF93DF937C016B01EA0141155105D9F032
:1011A00000E010E0D6016D916D01D701ED91FC9149
:1011B0000190F081E02DC7011995080F191F2197A3
:1011C00089F7C801DF91CF911F910F91FF90EF90A8
:1011D000DF90CF90089500E010E0F3CFEF92FF9200
:1011E0000F931F938C01DC01ED91FC910190F08134
:1011F000E02D6DE019957C01D801ED91FC910190F5
:10120000F081E02DC8016AE019959C012E0D3F1D6B
:10121000C9011F910F91FF90EF9008954F925F9237
:101220007F928F929F92AF92BF92CF92DF92EF9276
:10123000FF920F931F93DF93CF93CDB7DEB7A197A4
:101240000FB6F894DEBF0FBECDBF2C01742ECB01BC
:10125000223008F460C0822E9924AA24BB2419A24B
:1012600021E2C22ED12CCC0EDD1E0BC0405DF6015A
:101270004083E114F1040105110501F17E2C5F2D7D
:10128000C801672D752FA50194010E94630C790197
:101290008A01C801B701A50194010E94440C472DA1
:1012A000461B0894C108D1084A3004F3495CF60192
:1012B0004083E114F1040105110501F7C114D104C3
:1012C00081F1D6010D900020E9F71197AC19BD0905
:1012D000F20180819181FC0122813381C201B6013A
:1012E000AD01F90119959C01C901A1960FB6F894B9
:1012F000DEBF0FBECDBFCF91DF911F910F91FF9049
:10130000EF90DF90CF90BF90AF909F908F907F90A5
:101310005F904F9008953AE0832E912CA12CB12C30
:101320009ECF20E030E0E0CFDC012115310519F03F
:101330000E940E090895ED91FC910190F081E02D3D
:10134000642F19950895EF92FF920F931F939A01BE
:101350007B0100E010E0B801A7010E9494091F91F1
:101360000F91FF90EF900895CF92DF92EF92FF924E
:101370000F931F936C017B019A0100E010E0B8010C
:10138000A7010E9494098C01C6010E94EE08080F73
:10139000191FC8011F910F91FF90EF90DF90CF9020
:1013A0000895EF92FF920F931F939A01E62EFF2468
:1013B00000E010E0B801A7010E9494091F910F916D
:1013C000FF90EF900895CF92DF92EF92FF920F93EC
:1013D0001F936C01E62E9A01FF2400E010E0B80193
:1013E000A7010E9494098C01C6010E94EE08080F13
:1013F000191FC8011F910F91FF90EF90DF90CF90C0
:101400000895CF93DF93EC016115710599F0DB012D
:101410000D900020E9F71197A61BB70BE881F98121
:101420000280F381E02DAD0119959C01C901DF9186
:10143000CF91089520E030E0C901DF91CF91089568
:101440000F931F93CF93DF93EC0161157105D9F0D2
:10145000DB010D900020E9F71197A61BB70BE8817F
:10146000F9810280F381E02DAD0119958C01CE0147
:101470000E94EE089801280F391FC901DF91CF9112
:101480001F910F91089500E010E0F1CF1F920F928D
:101490000FB60F9211242F933F938F939F93AF9387
:1014A000BF938091ED059091EE05A091EF05B0916D
:1014B000F0053091F1050196A11DB11D232F2D5F7F
:1014C0002D3720F02D570196A11DB11D2093F10558
:1014D0008093ED059093EE05A093EF05B093F00592
:1014E0008091E9059091EA05A091EB05B091EC059A
:1014F0000196A11DB11D8093E9059093EA05A09383
:10150000EB05B093EC05BF91AF919F918F913F9107
:101510002F910F900FBE0F901F9018959FB7F894C2
:101520002091E9053091EA054091EB055091EC05D9
:1015300086B5A89B06C08F3F21F02F5F3F4F4F4FCE
:101540005F4F9FBF542F432F322F2227280F311D6B
:10155000411D511D220F331F441F551F220F331FE2
:10156000441F551FB901CA010895EF92FF920F93CE
:101570001F93CF93DF937B018C010E948E0AE114AD
:10158000F10401051105A9F0EB010E948E0A6C1B04
:101590007D0B685E7340C8F30894E108F108010907
:1015A0001109E114F1040105110519F0C851DC4FCE
:1015B000ECCFDF91CF911F910F91FF90EF900895A5
:1015C000019739F0880F991F880F991F029701978B
:1015D000F1F70895789484B5826084BD84B5816004
:1015E00084BD85B5826085BD85B5816085BDEEE62B
:1015F000F0E0808181608083E1E8F0E0108280810A
:1016000082608083808181608083E0E8F0E0808177
:1016100081608083E1EBF0E0808184608083E0EB97
:10162000F0E0808181608083E1E9F0E08081826088
:101630008083808181608083E0E9F0E08081816047
:101640008083E1EAF0E08081826080838081816034
:101650008083E0EAF0E0808181608083E1E2F1E074
:10166000808182608083808181608083E0E2F1E01C
:10167000808181608083EAE7F0E0808184608083FC
:1016800080818260808380818160808380818068A6
:1016900080831092C1000895CF93DF93482F50E0CC
:1016A000CA0188589E4FFC0134914E5C5E4FFA018E
:1016B00084918823B9F090E0880F991FFC01EC51C8
:1016C000FF4FA591B491FC01E250FF4FC591D49119
:1016D000662359F06230B9F09FB7F8948C91832B50
:1016E0008C939FBFDF91CF9108952FB7F8948C9181
:1016F000932F909589238C938881892388832FBF8A
:10170000DF91CF9108952FB7F8948C91932F9095F6
:1017100089238C938881832B88832FBFE3CF8930E3
:1017200009F45EC08A3070F08D3009F45FC08E30ED
:10173000D0F0803109F46CC0813109F463C08F307E
:10174000C9F10895843009F445C08530B8F0873078
:10175000B9F1883048F58630A1F78091B0008F77D5
:101760008093B00008958B3009F446C08C30B0F0FF
:101770008091A0008F7D8093A0000895823031F188
:10178000833030F48130E9F684B58F7784BD0895D5
:10179000809180008F7780938000089580919000E1
:1017A000877F809390000895809190008F77809339
:1017B00090000895809120018F77809320010895F3
:1017C0008091B0008F7D8093B000089584B58F7DA7
:1017D00084BD0895809180008F7D8093800008955E
:1017E000809190008F7D8093900008958091A0005B
:1017F000877F8093A00008958091A0008F778093C9
:10180000A000089580912001877F80932001089592
:10181000809120018F7D809320010895FF920F9386
:101820001F93F62E482F50E0CA0182549E4FFC01B0
:101830002491CA0188589E4FFC0104914E5C5E4F72
:10184000FA011491112399F02223D1F4E12FF0E051
:10185000EE0FFF1FE250FF4FA591B4919FB7F89490
:10186000FF2049F48C91009580238C939FBF1F919A
:101870000F91FF9008958C91802B8C939FBFF7CF91
:10188000822F0E948F0BE2CF629FD001739FF001E5
:10189000829FE00DF11D649FE00DF11D929FF00D00
:1018A000839FF00D749FF00D659FF00D9927729F37
:1018B000B00DE11DF91F639FB00DE11DF91FBD01C2
:1018C000CF0111240895A1E21A2EAA1BBB1BFD0112
:1018D0000DC0AA1FBB1FEE1FFF1FA217B307E4070F
:1018E000F50720F0A21BB30BE40BF50B661F771F67
:1018F000881F991F1A9469F7609570958095909547
:101900009B01AC01BD01CF010895EE0FFF1F0590B3
:0A191000F491E02D1994F894FFCF34
:10191A00446174612072656365697665643A204F33
:10192A004B004572726F723A20526563656976653B
:10193A007220504859206865616465722045727248
:10194A006F72004572726F723A20526563656976EA
:10195A006572204F76657272756E004461746120FB
:10196A0073656E743A204F4B004572726F723A205B
:10197A005472616E736D6974204275666665722071
:10198A004572726F72004555493A20002E0044652F
:10199A00766963653A2000205665722E20004461FC
:1019AA00746F20726563696269646F3A200020006F
:1019BA0053686F72742041646472657373202D20BA
:1019CA0000000000003C07C208D3060507E4062F02
:0219DA00070004
:00000001FF
